:020000040000FA
:0600000003EF3DF01200C9
:020006001200E6
:060008000EEF35F01200BE
:02000E000004EC
:04001000A300000049
:030014000D0A00D2
:0100170000E8
:06001800BEEF34F01200FF
:02001E000800D8
:1000200017000000FF01000001000000B57A000089
:100030002005000002000000497A00006C02000068
:100040006C000000477A00001E050000020000005E
:10005000427A0000F802000005000000407A00002B
:100060001C050000020000003C7A0000180500009A
:10007000040000003A7A0000FD02000002000000C7
:100080000101415105011C5D01E11200FE0E1C5DE4
:100090000CE01C0EE66EE66A250EE66E010EE66EBC
:1000A0001C51F6EC15F061EC16F041C11CF5FE0E8A
:1000B0000101415D01E112001C0EE66EE66A41514C
:1000C000F6EC15F0250EE66E010EE66E61EF16F009
:1000D00005011C511D5D01E11200FE0E1D5D1EE0BB
:1000E000250E0101B66FB76B0101010EB56F01015D
:1000F000000EB36F010EB46F37EC18F0EFCFB2F112
:100100001D51CAEC14F0EECFB0F1EFCFB1F1010107
:10011000250EB05F000EB15B35EC13F01CC51DF56C
:10012000250E0101B66FB76B37EC18F0EFCFB5F1C4
:100130001C51CAEC14F0EECFB3F1EFCFB4F10101D2
:10014000250EB35F000EB45B28EC17F0000EB06F05
:10015000010EB16F35EF13F007013A0E096F1C0E57
:100160000A6F3C0EE66EE66AE66A920EE66E040ED2
:10017000E66E9AEC37F0146E050EE15E145007013E
:10018000016B006B00512EEC15F001E384D000C729
:1001900041F12DEC17F0F1EC13F0F62A000EF722E6
:1001A000F8220800F5CF08F7F1EC13F0020EF6265E
:1001B000000EF722F8220900F5CF02F70A00F5CF6A
:1001C00003F7F1EC13F0040EF626000EF722F822E6
:1001D0000900F5CF04F70A00F5CF05F7070108512C
:1001E00028E109C706F70AC707F7250E176A02258F
:1001F000166E0351172231EC17F016500425146EB9
:10020000175005218FEC17F01450092715500A23B9
:1002100009C714F00AC715F0166A176AD880820E4B
:1002200014541F0E1554000E1654000E175402E2FB
:10023000EFD7FFD7F1EC13F00800F5CF24F108C792
:1002400040F1250E070106250101256F000E07016B
:1002500007210101266F2551070102250101276FA2
:100260002651070103210101286F010E2727000EE7
:1002700028232751070104250101296F285107016F
:10028000052101012A6F0D0E3B6F3C974AEC0DF0E2
:100290000701002B77D712000701026B02512EECE9
:1002A00015F021E202C741F1EBDE0D0E01013B5DCD
:1002B00017E10EDF01014951245D12E146510CE1C5
:1002C00047C110F148C111F13C87040E3B6F47C193
:1002D0003EF148C13FF101D0FE0C0701025112006E
:1002E0000701022BDBD7FE0C4AC141F1C9DE010137
:1002F0003DA902D03D99010C000C4BC141F1C0DE7B
:10030000070E01013B5D01E0000C010C4CC141F105
:10031000E9EC16F001013B51080A1CE0010A1AE061
:10032000050A18E0020A13E0050A0CE00D0A05E0D0
:10033000010A03E0020A0EE114D0D1EC15F001012C
:10034000080E06D0D1EC15F001010C0E01D00D0EF7
:100350003B6F120001019F6B0101140E9E6F63EC55
:1003600009F04AEF0DF0B4DE0A0EE66EE66A36ECEE
:1003700017F04E0EE66E010EE66E68EC16F00EC13A
:1003800058F10FC159F14E0E146E010ED4EF14F056
:100390005AC141F12DEC17F001010C512B1902E16A
:1003A0000D512C1902E089EC14F012005BC141F1EF
:1003B00067DE3BC145F7070E0701455D06E00B0E02
:1003C000455D03E0F36AF46A120001012D512B5DD3
:1003D0002E512C590EE3EAEC17F01606000E175AB0
:1003E0002D512B5D186E2C512E55F1EC17F0D4EFDA
:1003F00014F02B512D5D146E2E512C55156E1406D4
:10040000000E155A14C0F3FF15C0F4FF12005CC1B2
:1004100041F136DE5CC15BF1C9DFF3CF00F7F4CF09
:1004200001F70701F350F41001E1000C010E00196F
:1004300004E1015102E13BEC17F001013D51010BD8
:100440000CE1D2EC17F007010051145C0151155872
:1004500004E33BEC17F001013D81010E0101B66F91
:10046000B76B0101B56F01015D0EB36F010EB46F83
:10047000C1EC17F001012B2B000E2C2327512B5D13
:1004800028512C5902E380EC16F00701010E0019E7
:1004900005E1015103E13BEC17F0010C01013CBB0C
:1004A00002D061EC14F0010C0701AA6BAB6B5EC1CA
:1004B00041F1E6DD5EC15BF179DFF3CFA8F7F4CF60
:1004C000A9F70701F350F41005E13FEC17F0F36AC8
:1004D000F46A1200A8C7A6F7A9C7A7F7CDEC16F0D3
:1004E00004E261C1A6F762C1A7F73D51010B0CE11F
:1004F000D2EC17F00701A851145CA951155804E378
:100500003FEC17F001013D8101012B510701A625A8
:10051000146E01012C510701A721F0EC16F01EE327
:100520002B51275D0701AA6F01012C5128590701A2
:10053000AB6FAAC7B6F1E8CFB7F162EC15F00701CF
:10054000AA5101015F270701AB5101016023070197
:10055000AA51A65FAB51A75B80EC16F0A6C7B6F117
:10056000A7C7B7F162EC15F00701A65101012B27CF
:100570000701A75101012C230701CDEC16F003E37D
:100580003FEC17F004D03CBB02D061EC14F0070143
:10059000A651AA25146EA751AB21D4EF14F0070180
:1005A000166B176B63C141F16BDD63C15BF1FEDE5E
:1005B000F3CF14F7F4CF15F70701F350F41005E16A
:1005C00043EC17F0F36AF46A120001013D51010B8C
:1005D0000CE1D2EC17F007011451145C15511558B9
:1005E00004E343EC17F001013D8114C712F715C76E
:1005F00013F789EC16F004E267C112F768C113F72C
:100600002B5107011225146E01012C5107011321F2
:10061000F0EC16F022E32B51275D0701166F010164
:100620002C5128590701176F16C7BEF1E8CFBFF14B
:10063000AAEC15F016C714F017C715F0166A145077
:1006400001016427155065231650662307011651D2
:10065000125F1751135B80EC16F012C7BEF113C77F
:10066000BFF1AAEC15F00701125101012B27070178
:10067000135101012C2389EC16F003E343EC17F02E
:1006800004D03CBB02D061EC14F0070112511625D6
:10069000146E13511721D4EF14F06AC1E6FF6BC139
:1006A000E6FF03EC38F0E552E552F3CF61F1F4CF09
:1006B00062F16AC15FF16BC160F169C15EF1F4DEA4
:1006C00001016A51F324146E6B51F420D4EF14F03D
:1006D0006DC1E6FF6EC1E6FF6FC1E6FF11EC38F0B9
:1006E000E552E552E55207C067F108C068F16DC1F7
:1006F00064F16EC165F16FC166F16CC163F14FDFEA
:10070000196A01016D51F324146E6E51F420156EB7
:100710006F511920166E14C007F015C008F0096E4D
:10072000120070C141F1ACDC01012551275D0701C8
:10073000026F0101265128590701036F010E025F64
:10074000000E035B70C15BF131DEF3CF00F7F4CF35
:1007500001F70701F350025D146E0351F454D4EF16
:1007600014F071C172F10CD818EC18F0F350F410B9
:1007700006E071C141F1E9EC16F089EC14F01200C9
:1007800072C141F17DDC45EC16F006E331512F5D7D
:10079000146E3051325513D03151295D166E2A51E5
:1007A0003255176E31EC17F027512F5D186E30510E
:1007B0002855196E16501824146E17501920D4EFAE
:1007C00014F073C172F1DCDFF3CF00F7F4CF01F75F
:1007D0000701F350F41001E1000C73C141F150DC4A
:1007E0000101745175110FE0010EB6EC16F031C124
:1007F000B3F132C1B4F10101B26F74C1B0F175C18E
:10080000B1F135EC13F00101312B000E32233151DF
:10081000295D32512A5902E247EC17F00701010E17
:10082000001905E1015103E101013D85010C0101C0
:100830003CBB02D061EC14F0010C0701026B036BAE
:1008400076C172F19DDFF3CF00F7F4CF01F7070116
:10085000F350F41003E1F36AF46A120076C141F137
:100860000FDC010179510701005D01017A51070197
:10087000015904E200C779F101C77AF10101315150
:100880007925146E32517A21BCEC16F029E23151EF
:10089000295D0701026F010132512A590701036FD7
:1008A000010E0227000E03230101775178110EE09B
:1008B00002C7B6F103C7B7F16BEC15F0070102519F
:1008C0000101772707010351010178230701025134
:1008D0000101795F0701035101017A5B47EC17F0D1
:1008E0007751781106E079C1B6F17AC1B7F16BECB6
:1008F00015F00101795131277A5132230701025154
:10090000010179270701035101017A237951070178
:10091000005D146E015101017A55156E1450795D18
:1009200015507A5902E33D8504D03CBB02D061ECFE
:1009300014F079C1F3FF7AC1F4FF12007BC141F1D9
:1009400040EC00F001012751295D0701026F010110
:1009500028512A590701036F7BC172F111DF07018A
:10096000F350025D146E0351F454D4EF14F00101FE
:100970007F51801103E1F36AF46A12007CC141F1F6
:1009800040EC00F07CC172F1FBDE01018151F35CAF
:100990000701026F01018251F4580701036F92ECC5
:1009A00016F001E205D10101835184110DE0070128
:1009B00002510101835D070103510101845904E2E1
:1009C00083C102F784C103F7315181250701066F06
:1009D0000101325182210701076F06510101295D92
:1009E0000701075101012A5906E2ADEC14F0070195
:1009F000065F1550075B06C700F707C701F7070139
:100A000006510101295D0701046F075101012A59AF
:100A10000701056F010E0427000E052381C106F7AB
:100A200082C107F77FC108F780C109F77DC10AF7C6
:100A30007EC10BF701017DC1E9FF7EC1EAFF7D2B7D
:100A40007E23EFCF0DF707010F6B0101855109E000
:100A5000610E07010D5D05E30D517A0802E3E00E1A
:100A60000D270701200E0E6FE850045D000E05599A
:100A700002E204C70EF70E51025D000E035902E2B6
:100A800002C70EF70E51B6EC16F000C7B3F101C75E
:100A9000B4F128EC17F0100EB06F070EB16F35EC03
:100AA00013F007010E5185EC16F0002715500123B5
:100AB0000E5185EC16F0045F1550055B04510511CD
:100AC00006E127C100F728C101F7046905690101A2
:100AD00085513EE007010C6B0E510C5D5FE235EC79
:100AE00015F0EFCF14F0610E145C0BE335EC15F04C
:100AF000EF507A0806E3E00E146E35EC15F0145052
:100B0000EF2635EC15F0EF500D5D0EE1F7EC16F029
:100B10002CE001EC16F0610E0D5D18E30D517A0822
:100B200015E3E00E0D2712D008C77FF109C780F149
:100B30000F510CE0B8EC15F0610E07010D5D05E3F7
:100B40000D517A0802E3E00E0D270F6B0C2BC4D772
:100B500007010C6B0E510C5D21E235EC15F0EF50E6
:100B60000D5D10E1F7EC16F00AE107010851065D92
:100B7000166E07510955176E0C517AEF15F001ECFE
:100B800016F00AD008C77FF109C780F10F5104E0C1
:100B9000B8EC15F007010F6B0C2BDCD707010E51D9
:100BA00085EC16F0025F1550035B92EC16F003E241
:100BB000F368F46812000E5185EC16F00627155004
:100BC00007234FD701018A518B1103E1F36AF46ABD
:100BD000120086C141F140EC00F086C172F1D0DD17
:100BE00001018C51F35C0701026F01018D51F45832
:100BF0000701036F9BEC16F001E205D101018E5154
:100C00008F110DE00701025101018E5D07010351B3
:100C100001018F5904E28EC102F78FC103F73151F0
:100C20008C250701066F010132518D210701076FE5
:100C300006510101295D0701075101012A5906E208
:100C4000ADEC14F00701065F1550075B06C700F70F
:100C500007C701F7070106510101295D0701046F6C
:100C6000075101012A590701056F010E0427000EE3
:100C700005238CC106F78DC107F78AC108F78BC120
:100C800009F787C10AF788C10BF789C10CF7010181
:100C900087C1F6FF872B88C1F7FFC9EC17F0106BEF
:100CA0000101905109E0610E07010E5D05E30E514F
:100CB0007A0802E3E00E0E270701200E0F6FE850BE
:100CC000045D000E055902E204C70FF70F51025DE3
:100CD000000E035902E202C70FF70F51B6EC16F0EF
:100CE00000C7B3F101C7B4F128EC17F0110EB06FD3
:100CF000070EB16F35EC13F007010F5185EC16F0BC
:100D00000027155001230F5185EC16F0045F155094
:100D1000055B0451051106E127C100F728C101F761
:100D200004690569010190513EE007010D6B0F5107
:100D30000D5D5FE23CEC15F0EFCF14F0610E145C3A
:100D40000BE33CEC15F0EF507A0806E3E00E146E6E
:100D50003CEC15F01450EF263CEC15F0EF500E5D16
:100D60000EE1FEEC16F02CE04BEC15F0610E0E5D82
:100D700018E30E517A0815E3E00E0E2712D008C7CB
:100D80008AF109C78BF110510CE0DEEC14F0610E12
:100D900007010E5D05E30E517A0802E3E00E0E270F
:100DA000106B0D2BC4D707010D6B0F510D5D21E2A8
:100DB0003CEC15F0EF500E5D10E1FEEC16F00AE190
:100DC00007010851065D166E07510955176E0D5142
:100DD0007AEF15F04BEC15F00AD008C78AF109C775
:100DE0008BF1105104E0DEEC14F00701106B0D2BB9
:100DF000DCD707010F5185EC16F0025F1550035B3D
:100E00009BEC16F003E2F368F46812000F5185ECD6
:100E100016F00627155007234FD797C185F195C1C6
:100E200083F196C184F193C181F194C182F1010EE5
:100E300001017F6F806B0101920E7D6F010E7E6F4D
:100E400091C17CF1B7EF04F00701006B00512EEC6B
:100E500015F001E368D100C741F140EC00F0070153
:100E6000036B016B026B01013D51020B03E13D512C
:100E7000040B0EE01BEC21F000090AE00701100E44
:100E8000036F01013D51040B01E0010E0701016FE9
:100E900001013CAB11D019EC3CF001010650375D6B
:100EA000146E07503859156EE83402E24CEC17F016
:100EB00003E30701100E036F01013CAD09D04BECB9
:100EC00016F002E24CEC17F003E30701100E036F7B
:100ED0000B0E01013B5D0CE14BEC16F002E24CEC19
:100EE00017F006E30701110E036F01010C0E3B6FB3
:100EF000040E3B5D63E10701046B056B030E045DAB
:100F0000000E05595BE26CEC17F01DEC18F056E092
:100F10006CEC17F0F3EC15F05DEC15F001013E51AF
:100F2000141847E13F51151844E168EC00F00A0E2F
:100F3000E66EE66A6CEC17F0A4EC16F036EC17F0EF
:100F40004CEC37F0060EE15E6CEC17F051EC17F04C
:100F5000EECF0EF1EDCF0FF16CEC17F00C0E72EC42
:100F600017F0EECF08F1EECF09F1EECF0AF1EFCF97
:100F70000BF10101082B09230A230B231851162515
:100F8000166E19511721176E16500E25146E175034
:100F90000F21156E145010193E6F155011193F6F27
:100FA0000701120E036F0101060E3B6F1BEC14F0DC
:100FB00005D00701042B000E0523A0D7070103511C
:100FC0000AE0015102E0000E01D0010E01019F6F05
:100FD00003C79EF178D901013CB92DD0070E3B5DC6
:100FE00001E09ED01BEC15F001E09AD001013C51CC
:100FF000070B060816E13C51080B01E0010E070142
:10100000036F00C74CF186EC01F000C74CF186EC91
:1010100001F00701035101E083D001010E0E3B6F87
:101020007FD068EC00F00101020E9F6F3DEC18F0DC
:10103000FCEC14F075D01BEC15F072E168EC00F0DC
:1010400001013B510C0A2FE0060A27E0030A34E0B5
:10105000010A1FE00F0A14E00C0A12E00D0A05E075
:10106000030A2FE10701020E23D0020E235D03E2E3
:101070000701120E1DD03CB71FD00701020E07D08A
:10108000050E235D0DE3080E3B6F0701110E036F84
:1010900018D0050E235D10E209D0050E235D0CE289
:1010A0000701100E05D0050E235D06E20701110EA3
:1010B000036F010E016F05D00701140E036F010EBF
:1010C000026F0701035127E001511FE00101232BAB
:1010D000D8900037013702370337D8EC15F015AE3A
:1010E00002D016681768F3EC14F025EC16F008E24D
:1010F000E3EC17F015AE02D016681768F3EC14F0A5
:1011000054EC17F001019F6B03D00101010E9F6F9A
:1011100003C79EF1D8D80701025102E04AEC0DF056
:101120000701002B93D6046B056B030E045D000EC4
:1011300005592FE26CEC17F01DEC18F001E11200DC
:101140006CEC17F059EC17F02AEC16F016C0E6FF1D
:1011500017C0E6FF19EC3CF0E552E7CF17F0E55277
:10116000E7CF16F01650065C146E17500758156E30
:10117000250ED8801454020E155406E21BEC14F010
:1011800007010407000E055B0701042B000E052371
:10119000CCD7120098C1E9FF99C1EAFFEECF14F74E
:1011A000EECF15F7EECF16F7EFCF17F79AC1E9FF9D
:1011B0009BC1EAFFEECF18F7EECF19F7EECF1AF783
:1011C000EFCF1BF707011C6B060E1D6F9CC11EF7AE
:1011D0009DC11FF79CC1E4F49DC1E5F432EC30F0F1
:1011E000F3CF1EF7F4CF1FF70C0E0401EC6FED6B7D
:1011F0000401140EEA6F070EEB6F4DEC30F0F3CFE5
:1012000020F7F4CF21F70701201F211F9CC16DF4A7
:101210009DC16EF465EC23F0F3CF22F7F4CF23F7F2
:101220000701F35020194CE12351211949E1020132
:10123000E66BE76BF1EC36F0140E0401776F786B18
:101240000401000E756F070E766FD1EC24F00101DA
:10125000000EA46F070EA56FDCDB07010C51D7EC65
:1012600017F0040DF350146E156A140E145E000E80
:10127000155A14C024F71450146E156AE850010171
:101280009C5D9C6F15509D599D6F140E9C5F000EC8
:101290009D5B98C1A2F199C1A3F10101000EA06F5D
:1012A000070EA16F76DA00090BE09CC1A8F19DC181
:1012B000A9F10101000EA66F070EA76F89EC0DF0D2
:1012C00022EC21F0010C68EC00F001019EA102D09B
:1012D0003D879E913C9B3C9D3C9F3D933D953D9120
:1012E0001BEC21F00009FCE0060E01019E1504E054
:1012F00007016B6B6C6BD7D00C512B190FE10D51A3
:101300002C190CE107016B6B6C6B01013DA7CBD075
:101310001251131101E1C7D09E81C5D02B510C5D34
:101320002C510D5939E20C512B5D07016B6F0101F6
:101330000D512C59ABEC17F003E3DDEC17F002D0A4
:1013400043EC15F056EC16F004E26DC76BF76EC770
:101350006CF7180ED8806B55020E6C5502E205EC46
:1013600017F001013DA70FD007016D516B1902E184
:101370006E516C1908E0180E6B1902E1020E6C191F
:1013800002E001019E816BC7B6F16CC7B7F185EC35
:1013900015F0ADEC16F087D00C51275D0701696F91
:1013A00001010D51285907016A6F695101012B256F
:1013B000146E07016A5101012C21156E2551145C30
:1013C00007016B6F010126511558ABEC17F003E3D1
:1013D000DDEC17F002D043EC15F056EC16F004E209
:1013E0006DC76BF76EC76CF7180ED8806B55020E81
:1013F0006C5502E205EC17F001013DA70FD0070183
:101400006D516B1902E16E516C1908E0180E6B19E1
:1014100002E1020E6C1902E001019E81070169518F
:101420006B5D6A516C5904E26BC769F76CC76AF768
:1014300069C7B6F16AC7B7F185EC15F007016951C4
:101440006B5D696F6A516C596A6F69516A1122E06C
:1014500069C7B6F16AC7B7F140C1B5F125C1B3F1AB
:1014600026C1B4F10101B26B01010C51275D146E6C
:1014700028510D55156E166A176A7F0E1426160E22
:101480001522000E1622172214C0B0F115C0B1F1BA
:1014900035EC13F0ADEC16F027510C5D28510D59C9
:1014A00002E3F8EC17F007016B516C1104E1030E35
:1014B00001019E1514E007016B516C1102E001015E
:1014C0009E8701019FA107D0236B1B0E006FB70EF3
:1014D000016F026B036B94EC15F03C8927D09FA33E
:1014E00019D03C0EE96E010EEA6EEF50070BE82AA8
:1014F000E850070BF36EF46EF80EEF14F310EF6E76
:101500000407000E055B065B075B010E07016B6FAE
:101510006C6B0CD03CA90AD09FB106D02307D890A1
:10152000033302330133003394EC15F010C147F755
:1015300011C148F70EC149F70FC14AF704C14BF773
:1015400005C14CF706C14DF707C14EF708C14FF76B
:1015500009C150F70AC151F70BC152F70701539166
:101560005393539553979EC154F7596B5A6B6B51D4
:101570000101042707016C5101010523000E062318
:1015800007239EA30DD022A306D007014B074C5B77
:101590004D5B4E5B05D0042B0523062307232283D6
:1015A00001019EA10DD022A106D007014B074C5B83
:1015B0004D5B4E5B05D0042B0523062307232281B8
:1015C00045EC16F00AE30EEC16F007011650145C19
:1015D000556F17501558566F0DD02F51315D0701BB
:1015E000556F0101305132590701566F010E555F99
:1015F000000E565B4BEC21F0F3CF45F7F4CF46F7E6
:101600000701400E455F000E465B800E461502E066
:10161000456B466B5551455D5651465904E245C7E9
:1016200055F746C756F70101470EA46F070EA56F81
:10163000F0D9140E07016B27000E6C235389539BBE
:10164000538D539F01019EA323D0040E07016B27E6
:10165000000E6C23020E5B6F040E5C6F020E5D6F5A
:10166000140E5E6F010E146E530EE96E070EEA6ED5
:10167000EF50D7EC17F014240F0BF36EF46EF34613
:10168000F346F346F3460F0EEF14F310EF6EF450EB
:10169000C0C15FF7C1C160F7C2C161F7C3C162F7E2
:1016A00016C163F717C164F718C165F719C166F76A
:1016B0000701676B060E686F6BC769F76CC76AF73F
:1016C0006BC7E4F46CC7E5F432EC30F0F3CF69F7A4
:1016D000F4CF6AF70C0E0401EC6FED6B04015F0EA2
:1016E000EA6F070EEB6F4DEC30F0F3CF57F7F4CF06
:1016F00058F70701571F581F0401570E656F160E44
:10170000666F0CEC23F06BC7E4F26CC7E5F20201E4
:10171000060EE36F0201160EE16F010EE26F7EEC22
:1017200036F0140E5CEC17F0470E7A6F070E7B6FE5
:101730001BEC25F001019EA309D0040E5CEC17F010
:101740005B0E7A6F070E7B6F1BEC25F004016B0EAE
:10175000676F160E686F21EC23F06BC76DF46CC7D2
:101760006EF465EC23F0F3CF45F7F4CF46F70401B0
:101770007B0E656F160E666F0CEC23F0020E5CECB0
:1017800017F0450E7A6F070E7B6F1BEC25F091EF7B
:1017900022F085EC14F0EE50ED1001E1000C070191
:1017A000FE0E266FC8EC16F0020E72EC17F0EECFAC
:1017B00018F0EFCF19F0C8EC16F01850EE24166EA2
:1017C0001950EE20176E85EC17F01650EE24146EAB
:1017D0001750EE20156E85EC14F01450EE18276F9C
:1017E0001550EE18286F256B25512EEC15F048E2A8
:1017F00025C741F140EC00F00D0E01013B5D3DE0DD
:10180000040E3B5D0BE1E7EC17F014503E1935E197
:1018100015503F1932E125C726F72FD00701275170
:1018200001013E192AE10701285101013F1925E173
:1018300068EC00F0E7EC17F00101105114181DE1FD
:10184000115115181AE185EC17F02AEC16F00E511B
:10185000161813E10F51171810E1C8EC16F0EE50EE
:1018600016190BE1EE50171908E1EE50181905E1B1
:10187000EE50191902E101E1010C0701252BB4D743
:10188000FE0E265D21E026C741F12DEC17F0FE0E7D
:101890000701265D19E027C73EF128C73FF1D5ECC7
:1018A00016F036EC17F068EC16F085EC17F0EECF7A
:1018B0000EF1EDCF0FF185EC14F0EECF10F1EDCF7E
:1018C00011F161EC17F0010C85EC17F00D0E72ECC4
:1018D00017F0EF50020B01E1000C0401CA51CB11CB
:1018E00001E0000C0701296B2A6B030E295D000E35
:1018F0002A593BE266EC17F01DEC18F036E066EC76
:1019000017F0F3EC15F05DEC15F085EC14F02AEC13
:1019100016F01650141824E11750151821E166EC42
:1019200017F051EC17F05DEC15F085EC17F02AEC90
:1019300016F01650141814E11750151811E1C8ECE0
:1019400016F030EC18F0EE500001141808E1EE50DB
:10195000151805E1EE50161802E1EE50171848E090
:101960000701292B000E2A23C0D7256B25512EEC09
:1019700015F04EE225C741F140EC00F001013CA713
:1019800044D068EC00F0E7EC17F014500101101996
:101990003CE11550111939E1D5EC16F066EC17F061
:1019A000A4EC16F061EC16F085EC17F05DEC15F088
:1019B00066EC17F051EC17F014C0EEFF15C0EDFF08
:1019C00085EC17F0040E72EC17F030EC18F00C0EEA
:1019D00072EC17F014C0EEFFFEEC17F0E7EC17F016
:1019E00066EC17F0F3EC15F014C0EEFF15C0EDFF38
:1019F00019EC3CF007C015F066EC17F059EC17F045
:101A000006C0EEFF15C0EDFF000C0701252BAED779
:101A1000000C8AEC17F075EC14F0F3CFEEFF15C054
:101A2000EDFF8AEC17F0020E72EC17F075EC14F073
:101A3000020EF3CFEBFF030E6FEC16F0040EB5ECC5
:101A400014F0040EA4EC15F0080EB5EC14F0080E1A
:101A5000A4EC15F00E0E72EC17F075EC14F00E0EEF
:101A6000F3CFEBFF0F0E6FEC16F0F3EC15F075EC07
:101A700014F0100EF3CFEBFF110E6FEC16F059ECD3
:101A800017F075EC14F0120EF3CFEBFF130E15C028
:101A9000EBFF120068EC00F010C13EF111C13FF104
:101AA00080EC16F025C12DF126C12EF127C12FF1B2
:101AB00028C130F147EC17F001013C51080B02E05E
:101AC000040E01D00D0E3B6F3C913C933C953C992C
:101AD0003C9B3C9D3C9F3D913D933D953D973D8971
:101AE000229122932297229961EC17F0C6EC3CF0E8
:101AF000F3CF04F1F4CF05F1C6EC3CF0F3CF06F1DF
:101B0000F4CF07F1010120692169010E126F136BF7
:101B10001200A6EC17F00D0E72EC17F0EFCF33F7B2
:101B2000A6EC17F0080E72EC17F0EECF34F7EECFFC
:101B300035F7EECF36F7EFCF37F7A6EC17F0040EF8
:101B400072EC17F0EECF38F7EECF39F7EECF3AF769
:101B5000EFCF3BF701013C913C933C953CB902D05F
:101B6000FCEC14F03B51050A1DE0010A08E0A8C195
:101B70003CF7A9C13DF7070133A140D03CD0070194
:101B800033B50ED033A906D02FEC16F0040EBEEC00
:101B900017F006D033A304D0C7EC15F01BEF16F0F6
:101BA0004AEF0DF0070133B5120033A910D0C2EC93
:101BB00016F00101041908E1EE50051905E1EE5097
:101BC000061902E1EE50071902E08EEF14F007014A
:101BD00033A355EF12F0C7EC15F005EC18F0070130
:101BE00033A907D089EC14F00101070E3B6F3C9933
:101BF00012001BEF16F03C2B000E3D2333A303D045
:101C00003C2B000E3D2345EC16F00AE30EEC16F0DB
:101C100007011650145C316F17501558326F0DD0F4
:101C20002F51315D0701316F0101305132590701E8
:101C3000326F010E315F000E325B080EE96E010E4D
:101C4000EA6EEE50385D2B6FEE5039592C6FEE5026
:101C50003A592D6FEE503B592E6F2BC72FF72CC7DB
:101C600030F73E6B3C513D1164E03151321101E1DE
:101C700073D0800E2E1509E1E1EC15F0E8AE02D02C
:101C8000173402D0EAEC15F03BE33CC714F03DC733
:101C900015F0166A176A2B0EE96E070EEA6EEE5003
:101CA0001426EE501522EE501622EE50172217344D
:101CB000000E171809E6D880000E1454000E1554B3
:101CC000000E1654000E17541DE23C51315D186E83
:101CD00032513D55196E1A6A1B6A19AE02D01A6844
:101CE0001B681B502E19E8AE02D02E3508D02B51A0
:101CF000185C2C5119582D511A582E511B5802E3BB
:101D0000010E3E6FE1EC15F0E8AE02D0173402D0C0
:101D1000EAEC15F021E22F513C25186E30513D219F
:101D2000196EE83419E218500008000E195414E234
:101D300011D02B512C112D112E110CE0800E2E15CF
:101D40000BE1E1EC15F0E8AE02D0173402D0EAEC7A
:101D500015F002E2010E3E6F3E5104E133B5A5D30A
:101D600089EF14F0060E331502E04AEF0DF033A9A7
:101D7000120001013B510C0A01E192D10B0A1CE057
:101D80000F0A1AE0010A18E0020A16E0010A14E03C
:101D90000C0A01E095D1C2EC16F0041908E1EE50EE
:101DA000051905E1EE50061902E1EE50071902E0AF
:101DB0008EEF14F0070E3B6F0C512B5D0701296F5E
:101DC00001010D512C5907012A6F800E2A1508E0D8
:101DD00001017EEC14F014500701292715502A2325
:101DE00029C714F02AC715F0166A176A21EC18F0F3
:101DF000EE501424256FEE501520266FEE5016205D
:101E0000276FEE501720286FC2EC16F0255D146E78
:101E1000EE502659156EEE502759166EEE50285981
:101E2000176E0001800E171402E0DDEF16F00101BD
:101E3000D8EC15F015AE02D01668176821EC18F032
:101E40001450EE5C0701256F1550EE58266F1650A2
:101E5000EE58276F1750EE58286F010125EC16F049
:101E60000BE2E3EC17F014500701255F1550265BD9
:101E70001650275B1750285B250EE96E070EEA6E99
:101E8000EE500701345D256FEE503559266FEE5048
:101E90003659276FEE503759286FE834000E28194D
:101EA00009E6D880000E2555000E2655000E275550
:101EB000000E28556CE20101E3EC17F007012551F3
:101EC000145C2651155827511658285117585FE3AE
:101ED0000101229722993D912DC129F72EC12AF7A0
:101EE0000701255101012D270701265101012E234C
:101EF0000701295101010C5D07012A5101010D590A
:101F000009E325EC16F02FE20C512D5D146E2E51D5
:101F10000D551BD07EEC14F00C5114240701296FD1
:101F200001010D51152007012A6F01012D510701F3
:101F3000295D01012E5107012A5915E2295101019C
:101F40002D5D146E2E5107012A55156E0001145097
:101F5000010104270001155001010523000E06238D
:101F6000072354EC17F0010127512D5D28512E59FC
:101F700006E37EEC14F014502D5F15502E5B2751B4
:101F80000C5D28510D5926E3F8EC17F023D0010120
:101F90000C512D1902E10D512E191CE022A719D068
:101FA00022A916D0D8EC15F015AE02D01668176825
:101FB000F3EC14F025EC16F008E2E3EC17F015AEA4
:101FC00002D016681768F3EC14F054EC17F03D8556
:101FD000228922872B512D1918E12C512E1915E138
:101FE0003DB702D03C9911D0D9EC14F00EE1EE507F
:101FF00035190BE1EE50361908E1EE50371905E1BD
:1020000004E101013C993D97229101011251131104
:1020100006E1DDEC15F0EE50ED1001E03D8305EC3E
:1020200018F0080E3B5D1CE1D9EC14F049E1EE50CC
:10203000351946E1EE50361943E1EE50371940E1CB
:102040003FE195EC17F0870E01013327930E3423FF
:10205000030E3523000E36233C89090E3B6F30D02A
:10206000090E3B5D0AE1070133B12AD02FEC16F0CF
:10207000140EBEEC17F04AEF0DF00A0E3B5D20E1A6
:10208000D9EC14F00CE1EE50351909E1EE50361997
:1020900006E1EE50371903E101E007D2FBDC120044
:1020A000D9EC14F00CE1EE50351909E1EE50361977
:1020B00006E1EE50371903E101E0F7D1EBDC120045
:1020C000070133BB12000B0E01013B5D01E1120061
:1020D0000A0E3B5D01E112000C0E3B5D01E11200B6
:1020E000A851A91101E167D10701303504E22F5150
:1020F0000008000E305501E2A2D055EC15F0146E28
:10210000156A2F51F35C0201E66F07013051155833
:102110000201E76FF1EC36F007012F510101A8270A
:10212000070130510101A923A8510701315D0101C7
:10213000A9510701325904E231C7A8F132C7A9F108
:102140000101A8510827A9510923000E0A230B23D6
:102150002F51A825146E3051A921BCEC16F024E2B1
:102160002F51295D0701296F010130512A590701BB
:102170002A6F010E2927000E2A230BEC18F02FC11D
:10218000B0F130C1B1F176EC17F073EC16F0146ECB
:10219000A95107012A55156E0101275114242F6FEB
:1021A00028511520306F0CD0A0EC17F02FC1B0F1E2
:1021B00030C1B1F15ADA0101A8512F27A9513023BA
:1021C000201D01E1211D01E1F6D0A851205FA95198
:1021D000215B145120250701296F0101155121218F
:1021E00007012A6F800E2A1502E0010125D00101A6
:1021F000213504E220510008000E215501E2DBD018
:10220000070129510101082707012A51010109236A
:10221000000E0A230B230701295101012F27070173
:102220002A51010130232F51295D30512A5904E2EE
:1022300094DB2F5F1550305B20692169BCD03035AD
:1022400001E3B9D02F510008000E305501E3B3D09F
:102250000101A85107012F25146E0101A9510701A1
:102260003021156E1450315D1550325909E22F514D
:10227000315D0101A86F0701305132590101A96F89
:1022800055EC15F00201E66FE76BF1EC36F026EC49
:1022900018F0166E2BEC18F0176E16500101A825D9
:1022A000146E1750A921BCEC16F031E22F51295DB4
:1022B000146E2A5130558FEC17F007012F51145C22
:1022C000296F305115582A6F800E2A1508E10BEC42
:1022D00018F033EC16F0B16F76EC17F01DD0A0ECCF
:1022E00017F026EC18F0146E2BEC18F0156E0101A7
:1022F0002751295D166E2A512855176E31EC17F0BB
:1023000001011650145CB06F1750155804D0A0ECA2
:1023100017F033EC16F0B16FA8D90101201D0BE1C5
:10232000211D09E12FC720F130C721F1A8C114F107
:10233000A9C115F140D0205107012F5D01012151A4
:10234000070130591EE263DB06E3070139EC16F0A2
:102350002151195805E2A8C114F1A9C115F10CD0F9
:1023600079EC16F007012F51145C0101146F07017D
:10237000305115580101156F2FC720F130C721F1D9
:102380001AD045DB18E279EC16F007012F51145CE6
:102390003051155810E339EC16F0166E21511958CA
:1023A000176E1451165C146E15511758156E145093
:1023B00014271550152307013C513D1119E0070E54
:1023C00001013B5D04E02FC131F130C132F13CAF7E
:1023D00004D09FDA68EC00F00BD03C8F3CBD08D0F5
:1023E0003C8D0CEC17F0120E01013927000E3A2338
:1023F000070133A15AD008C114F009C115F00AC170
:1024000016F00BC117F0142A000E152216221722FF
:102410003CC718F03DC719F01A6A1B6A380EE96EFE
:10242000070EEA6EEE501826EE501922EE501A22D0
:10243000EE501B221450181838E11550191835E1C8
:1024400016501A1832E117501B182FE12EE111EC2B
:1024500018F03B51090A24E0010A12E00F0A06E0D5
:10246000010A22E10C0E3B6FD1EF15F00B0E3B6F12
:102470000CEC17F0240E01013927000E3A2314D07A
:1024800098DA0AE1EE50351907E1EE50361904E109
:10249000EE50371901E104E001010A0E3B6F04D050
:1024A000DDEC16F04AEF0DF034DA1200AAC141F16A
:1024B00040EC00F00101AB51AC1103E1010EAB6F38
:1024C000AC6B2551295D0701006F010126512A5986
:1024D0000701016F010E005F000E015B010113ECAB
:1024E00017F007011450005D1550015901E2000C6E
:1024F00068EC00F0030E0101AF1502E1030EAF130B
:10250000ADC104F7AEC105F713EC17F01450070185
:10251000005F1550015B0101AFA313D0AFA10CD038
:1025200000C714F001C715F0D890153214321450BA
:1025300007010427155004D0070100510427015159
:1025400005230101255107010425006F01012651D2
:1025500007010521016F010E0027000E01232FC185
:1025600002F730C103F70101201D01E1211D13E035
:10257000C0DB14500701022715500323025101014B
:10258000295D0701035101012A5905E2E6D9070136
:10259000025F1550035B070102510101315D070124
:1025A0000351010132590CE2070100510101315D73
:1025B000070101510101325918E2AFA50ED0000CFC
:1025C000E1EC16F00AE200510101275D070101511B
:1025D000010128590AE2AFB5000C00C731F101C76B
:1025E00032F100C72FF101C730F10101EADB2CE223
:1025F000040E0101AF1528E027510701025D01011A
:10260000B66F01012851070103590101B76F40C19D
:10261000B5F127C1B3F128C1B4F140C1B2F100C78F
:10262000B0F101C7B1F121D830DB0EE20701005152
:102630000101275D146E285107010155156E1450D4
:1026400001012F5F1550305B00C727F101C728F14A
:1026500061EC17F025C12DF126C12EF151DB070EDB
:1026600001013B5D01E155D9010C0101B55128E0A3
:10267000010A01E01200B25111E0010A01E012006A
:10268000B6C1E6FFB7C1E6FFB3C1E6FFB4C1E6FFDE
:10269000B0C1E6FFB1C1E6FF68EF16F0B1BF06D0EA
:1026A000B0C165F4B1C166F40CEC23F0B6C17CF4A2
:1026B000B7C17DF4B3C17AF4B4C17BF41BEF25F04C
:1026C000B25115E0010A01E01200B4BF06D0B3C157
:1026D00067F4B4C168F421EC23F0B6C177F4B7C154
:1026E00078F4B0C175F4B1C176F4D1EF24F0B6C17D
:1026F00073F4B7C174F4B3C171F4B4C172F4B0C16E
:102700006FF4B1C170F4F3EC23F0B8EC24F00009DD
:10271000FCE012000101BA510EE0010A01E01200D2
:10272000BEC1E6FFBFC1E6FF85DBB8C1E6FFB9C1A8
:10273000E6FF21EF17F0B9BF06D0B8C165F4B9C103
:1027400066F40CEC23F0100E0701106F116B010101
:10275000BE51BF1137E0070110510101BE5D0701F5
:1027600011510101BF5904E2BEC110F7BFC111F7F9
:1027700010C7E6FF11C7E6FF5DDB000EE66E070E31
:10278000E66E5FDB10C77CF411C77DF40401000E18
:102790007A6F070E7B6F1BEC25F010C714F011C782
:1027A00015F0166A14500101BB271550BC231650B2
:1027B000BD23070110510101BE5F07011151010145
:1027C000BF5BC5D71200140EEA02F3CFEAFFE9029D
:1027D000F3CFE9FFF450EA26920EE926040EEA222E
:1027E0001200220E146E7A0E156E000E166E00C7C1
:1027F00017F0186A196A060E0C6E0D6A0E6A00C789
:1028000007F018C008F019C009F0ABEC3BF004C0A9
:1028100017F005C018F006C019F014500424F36E28
:1028200015500520F46E16500620F86EF4CFF7FF11
:10283000F3CFF6FF120004C7B6F105C7B7F10101E7
:10284000020ED880B657000EB757140EB703F3CF59
:10285000B7F1B603F3CFB6F1F450B7270101010E7B
:10286000B56F070104250101B36F000E07010521B3
:102870000101B46F140EB403F3CFB4F1B303F3CF7B
:10288000B3F1F450B427920EB327040EB423010120
:10289000010EB26F140E086E096A04C70DF005C769
:1028A0000EF08DEC3BF006C0B0F107C0B1F1920E16
:1028B0000101B027040EB123D8DE0401CA6BCB6B33
:1028C00012003C8B19EC3CF006C014F007C015F068
:1028D000166A176A070E1426000E152216221722F2
:1028E00014C037F115C038F11200EECFE4F4EDCF8B
:1028F000E5F432EC30F09CDB8AEF17F02551275DD0
:10290000146E28512655156E1200FFDA020E72EF72
:1029100017F00101010E9F6F3DEF18F004C138F769
:1029200005C139F706C13AF707C13BF71DDB010EB8
:102930009F6F0101040E22DB38C704F139C705F18E
:102940003AC706F13BC707F112000101B56B01015F
:10295000B369B46940C1B2F112002751295D146E08
:102960002A512855DCDA14501200BCDAEECFE6F416
:10297000EECFE7F4EECFE8F4EFCFE9F437EC30F048
:1029800006C014F007C015F008C016F009C017F013
:102990008AEF17F01C0DF3CFE9FFF4CFEAFF000E2A
:1029A000E926040EEA221200156E14C0F3FFF46E3D
:1029B000120047DBEE500701341912000AC787F1F5
:1029C0000BC788F10CC789F101010AC7F6FF872BF5
:1029D0000BC7F7FF000E88230CC7F8FF89230800F8
:1029E000F5CF0EF712001450045F1550055B16501A
:1029F000065B1750075B120098DA0E0E01013327B1
:102A0000270E3423070E3523000E362312002F51D4
:102A10000101A825146E070130510101A921156E8D
:102A200020511425166E21511521176E1450165C75
:102A30001550175812000FEC3CF001013351065CA1
:102A4000146E34510758156E35510858166E3651AC
:102A50000958176E0001800E17141200146E156AC3
:102A6000030E145C000E155812000C51EA6A100F88
:102A7000E96E070EEA2212000D51EA6A110FE96EA3
:102A8000070EEA221200A6DA0C512D5D186E2E51A7
:102A90000D55F1EF17F087C1F6FF872B88C1F7FFBF
:102AA000000E77DA010E106F120050DA0C0E1ADAEF
:102AB000EF507DDA040DF3501200EECF14F0EFCF9B
:102AC00015F012000101010EB56F5FC1B3F160C1D5
:102AD000B4F1C1EF17F040C1B5F131C1B3F132C16A
:102AE000B4F10101010EB26F77C1B0F178C1B1F15B
:102AF00035EF13F000011624146E000E17200FDAC4
:102B000014C0F3FF15C0F4FF120040C1B5F10CC1B1
:102B1000B3F10DC1B4F10101B26B01017F0EB06FD1
:102B2000160EB16F35EF13F00FEC3CF006500101BB
:102B30000025336F07500121346F08500221356F93
:102B400009500321366F1200CDD906C0EEFF56DAC8
:102B50008AEF17F064C1BBF165C1BCF166C1BDF17C
:102B600040C1BAF12BC1B8F12CC1B9F18AEF13F011
:102B70000AC77DF10BC77EF101010AC7E9FF0BC748
:102B8000EAFF7D2B000E7E23EFCF0DF7120038C732
:102B900008F139C709F13AC70AF13BC70BF111EF48
:102BA00018F00101010E9F6F0101110EBEEF17F029
:102BB00004DA156E166A176A1200C8D90E0E72EF83
:102BC00017F031C714F032C715F0166A176A2E5184
:102BD0001718120014502B5D15502C5916502D59F2
:102BE00017502E591200100E72EF17F01C0D20DA3C
:102BF000000E1426040E152214C0E6FF15C0E6FFD1
:102C000012007DC1E9FF7EC1EAFF7D2B000E7E230D
:102C1000EFCF0DF70701010E0F6F12002751295D4D
:102C2000146E2A512855156E31512F5D166E305194
:102C30003255176E12000101010E9F6F0101120E35
:102C40009DD90101060E3B6F12002D510C5D2E51D6
:102C50000D591200EECF16F0EFCF17F0120084D905
:102C60009F6B01011200F2D90101B06FF4D901018B
:102C700012002F510101A825186E070130510101E2
:102C8000A921196E2051185C1200010131512F5DEC
:102C900032513059120019EC3CF001010650395DF7
:102CA000146E07503A59156EE8341200156E145020
:102CB00007016D5F15506E5B6B516D5D6C516E5908
:102CC00012004CEC37F0166E060EE15E1650120044
:102CD0004CEC37F0146E060EE15E1450120015C075
:102CE000EBFF8AEF17F0C1DC070129510101A85D54
:102CF000120020511425146E21511521156E120059
:102D000025C12BF126C12CF11200146E156A145046
:102D10001200070114510101675D070115510101FE
:102D20006859120001017F510701025D01018051C4
:102D300007010359120001018A510701025D0101D7
:102D40008B51070103591200E9CF14F0EACF15F0B7
:102D5000E9CFE6FFEACFE6FF120007016B51010160
:102D60000C2707016C5101010D2312000101B66F00
:102D7000B76B40C1B5F11200156E1450295D1550A6
:102D80002A591200340EE96E070EEA6EEE50120058
:102D9000A2C1E9FFA3C1EAFF1200A8510101615DD0
:102DA0000701A9510101625912000A0EE66EE66A96
:102DB000A2C1E6FFA3C1E6FF120001019F6B3DEF38
:102DC00018F031510701025D010132510701035929
:102DD000120040EC00F02FC131F130C132F112008D
:102DE000156E01012751145C28511558120001017C
:102DF0007F07000E805B7F518011120001018A075E
:102E0000000E8B5B8A518B111200180E6B6F020E35
:102E10006C6F01013D85120019EC3CF006C039F1E0
:102E200007C03AF11200AB51AD25146EAC51AE2182
:102E3000156E1200BBC1E6FFBCC1E6FFBDC1E6FFD7
:102E4000120077EC37F0146E070EE15E145012009A
:102E50000101010EB26F0101120040EC00F068EFB9
:102E600000F0010E1626000E17221200160EE66E56
:102E7000010EE66E12005CC15AF1C8EF01F05EC1AE
:102E80005AF1C8EF01F063C15AF1C8EF01F027C150
:102E900031F128C132F1120014500008000E15540F
:102EA00012000A0E72EF17F02DC10CF12EC10DF1B8
:102EB0001200120E72EF17F004017C6F7D6B04019B
:102EC000120025C10CF126C10DF1120029C7E9FF3E
:102ED0002AC7EAFFE3EF13F004C7E9FF05C7EAFFDB
:102EE000E3EF13F0E926000EEA221200FCDE0101F6
:102EF000B66F07012A510101A9590101B76F25DDFC
:102F000027C1B0F128C1B1F11200A0C1E9FFA1C1F0
:102F1000EAFF1200A4C1E9FFA5C1EAFF1200156E85
:102F2000010E1426000E152212000FEC3CF006C014
:102F300033F107C034F108C035F109C036F1120091
:102F4000A8C1B6F1A9C1B7F1A5EF14F0A6C1E9FF78
:102F5000A7C1EAFF120007016C6F12C16DF713C120
:102F60006EF7010125EF16F034C704F135C705F1FE
:102F700036C706F137C707F1010112009E6F63EFF4
:102F800009F040C1B2F12BC1B0F12CC1B1F135EF64
:102F900013F0882389C1F8FF89230800F5CF0EF7C5
:102FA00007011200ABDCD890153214321200F00B7E
:102FB000E842E842E842E84212002D510C5D146EEE
:102FC0000D512E5512009ADC166A176A12009DDC0C
:102FD0005DEF15F02551275D166E28512655176EA9
:102FE0001200196E1850165C146E19501758120002
:102FF00085DC14500C5F15500D5B120015C0EEFF00
:1030000016C0EEFF17C0EEFF1200D7DDEECF12F1B3
:10301000EDCF13F1120029C7B6F12AC7B7F1A5EF1A
:1030200014F00101082B000E09230A230B231200C0
:10303000F3CF14F0F4CF15F01200D5DDEE50ED1003
:103040001200040EE96E010EEA6E120001012F510A
:1030500007012F2512000101305107013021120014
:10306000EECF14F0EECF15F0F5DD66EF17F00501A9
:103070001D5190DC1B0E72EF17F00101100EBEEF18
:0230800017F047
:0E308200060E0001E11905E1E25103E1E35100
:1030900001E1E45143E0050EE11905E1E25103E1EC
:1030A000E35101E1E45136E0040EE11905E1E2519A
:1030B00003E1E35101E1E45128E0030EE11905E1E8
:1030C000E25103E1E35101E1E4511BE0020EE11999
:1030D00005E1E25103E1E35101E1E4510DE0010EAC
:1030E000E11921E1E2511FE1E3511DE1E4511BE14E
:1030F000010E0401F96F02D00401F96BFA6B03EFC2
:103100003AF0010E0401FB6F02D00401FB6BFC6B73
:1031100012EF3AF0010E0401FD6F02D00401FD6BC5
:10312000FE6B21EF3AF0040E0101676F686B01013D
:10313000B80E646F660E656F000E666F45EC20F08A
:10314000EFCF63F1CFEF02F001017E0E5D6F45EC32
:1031500020F0EFCF5CF107EF02F0000174697569B0
:10316000E06B010EE05D2DE288EC1EF0EF6A0101DC
:10317000080E496F500E0101476F486B0101466B05
:103180000101426B436B446B456B4CEC01F0E66E06
:1031900045EC20F0E552E750EF6EE051B8EC1EF040
:1031A00071EC1FF0F3CF00F7F4CF01F7FCEC1EF049
:1031B00000C765F401C766F40CEC23F00001E02BB6
:1031C000D0D712000701AF6B010EAF5D39E2C4EC3E
:1031D0001EF0EE52EF50FE0830E0C4EC1EF0EE524E
:1031E000EFCF4AF174EC01F0000914E0AFC7E5F04D
:1031F00028D896EC1FF0EF6AFF0E745D02E01DEC1C
:103200001FF0FF0E755D02E024EC1FF00101040EBB
:10321000EBEC1FF00701C4EC1EF0EF500AE1C4EC28
:103220001EF0EE52EFCF72F1C0EC03F0F0EC1EF0A6
:1032300004E0AFC7E5F005D83ED80701AF2BC4D7EF
:1032400012000001E0510001E55D01E11200000102
:10325000E051B8EC1EF071EC1FF0F3CF00F7F4CFA3
:1032600001F7FCEC1EF000C765F401C766F40CEC36
:1032700023F00001E551B8EC1EF014C067F415C04E
:1032800068F421EC23F0F3CF00F7F4CF01F77E0EC2
:103290000401776F786B0401600E756F000E766F16
:1032A000D1EC24F000C767F401C768F421EC23F0E7
:1032B000E5C0E0F012000701010E936F96EC1FF0DD
:1032C000EF500B0A01E122D3010A01E1FFD2030A08
:1032D00001E1E9D2010A01E1E4D20F0A01E15DD284
:1032E000010A01E141D2030A01E13BD2010A01E1F5
:1032F00030D2070A01E116D2010A01E182D1030AA4
:103300002BE0010A01E00CD388EC1EF0EE52EFCF67
:1033100072F1C0EC03F0F3CF8DF7F4CF8EF7F350DA
:10332000F41001E1FDD200017A0E706F000E716F92
:1033300088EC1EF0010EEF6E7769766B9CEC1EF048
:103340006C696D696E696F69606B616B626B636BF1
:103350000101050EEBEC1FF08AEC1EF00A0E926FD5
:1033600096EC1FF0BFEC1FF0A3EC1FF00001F31C64
:1033700011E1151C0FE196EC1FF0C4EC1FF002E107
:10338000A8EC1FF0D3EC1EF002E62BEC1FF001E3DB
:10339000C7D24BD19CEC1EF02EEC20F00701050E9D
:1033A000D880F354000EF45403E2050E8D6F8E6B3B
:1033B000010E35EC1FF0FAEC1FF0030EE66EE66A24
:1033C0003F0EE66E630EE66E000EE66E7A0EE66E59
:1033D000000EE66E2DEC37F0146E070EE15E145011
:1033E000000919E10001786B2EEC20F00101976BC8
:1033F000F3CF95F1F4CF96F1DAEC1FF03F0E926F18
:1034000096EC1FF03FEC1FF00701F3508D5DF45078
:103410008E5904E207D00001060EAAD18FC78DF79E
:1034200090C78EF7590ED8808D55000E8E5501E24B
:10343000C5D036EC20F0F3CF8FF7F4CF90F77A0EAB
:10344000F324E96E000EF420EA6E58EC1FF0F4EC61
:103450001EF002E045EC1FF0FF0E0001745D31E14B
:10346000F4EC1EF00EE007018FC7E9FF90C7EAFFFA
:103470008F2B000E90237A0EE926000EEA222F0EE3
:10348000EF6E77EC1FF07A0E07018F25146E000E99
:103490009021156E14C0E6FFE66EEAEC37F0166E6A
:1034A000050EE15E165077EC1FF011EC38F0E55296
:1034B000E552E552075007018F270850902345EC4D
:1034C0001FF07A0E07018F25946F000E9021956FE3
:1034D000010E945F000E955B7A0E941902E1000EC6
:1034E000951909E094C7E9FF95C7EAFFEF502E0848
:1034F00002E09407EFD7942B000E95230001796B1F
:103500000B0EE76E7919E8AE02D0E73402D0E7502F
:10351000795D1CE279C0E9FFEA6AE9BEEA68E6EC97
:103520001EF06C0EE926020EEA22EECFE1F4EECF99
:10353000E2F4EFCFE3F494C7DFF495C7E0F4F3ECE3
:103540002FF0000903E00001792BDAD7FF0E00010C
:10355000745D18E074C060F2F8EC2AF0F350020BCE
:1035600011E074C06BF2FEEC2BF0F3CF48F2F4CF15
:1035700049F2010E02014827000E4923D8EC28F039
:103580000001756F2EEC20F0F350F4102AE00001DA
:10359000010E766F0101910E746F070E756F45EC89
:1035A00020F0EFCF73F1E1EC03F007018D07000E7F
:1035B0008E5B620E8D5D000E8E5903E30001040EDA
:1035C000D7D036EC20F0F35000017027F45071236F
:1035D00070C0E9FF71C0EAFF702B000E7123260E48
:1035E000EF6E32EC20F0010EF3240101796F000E32
:1035F000F4207A6F01010AEC20F096EC1FF0020E25
:10360000EF6E32EC20F00701F31C13E18E1D11E187
:1036100096EC1FF0C4EC1FF002E1A8EC1FF0C3DB36
:1036200002E62BEC1FF001E37BD10EEC20F00B0E39
:10363000A2D082DB0701010E8D190DE18E510BE145
:10364000020E0101796F7A6B01010AEC20F096EC11
:103650001FF0030E90D00101976B8DC795F18EC7B7
:1036600096F1DAEC1FF03A0E926F96EC1FF03FECF9
:103670001FF0020E07018F27000E9023936B100E90
:10368000D8808F55000E905502E2010E47D08FC7AB
:1036900079F190C77AF10101960E776F070E786F76
:1036A00042EC20F0CBEC1FF0960EE926070EEA2242
:1036B000EF6A07018F518D5F90518E5B926B030E05
:1036C000925D26E29251030DF3CFE9FFF4CFEAFFBA
:1036D000CF0EE926020EEA22EECFE6FFEECFE6FF9E
:1036E000EFCFE6FF960EE66E070EE66ED4EC37F0EF
:1036F000146E050EE15E1450000907E192C7E6F072
:10370000CDD90701010E936F03D00701922BD7D7B4
:10371000935102E032EC20F0010E0701A6DB0AEC27
:1037200020F06FD770C0E9FF71C0EAFFC1DBF3CFB3
:1037300070F0F4CF71F096EC1FF0040EEF6E76513E
:1037400003E1E6DA050EEF6E0701936B0001766B7D
:10375000E7D066EC39F0020801E1E2D0E7DB050EC4
:10376000EF6ED6DA060EEF6EFF0E745D06E1030E05
:10377000786FCEDA070EEF6E91D0606B616B626B83
:10378000636BFF0E755D05E164696569666967696C
:1037900001D085DBCBDB070EEF6E0101020EEBECF7
:1037A0001FF078C0E9FFEA6AE9BEEA680FDBB40EF1
:1037B000E926020E00EC20F0070E0001785D0CE116
:1037C00016EC20F0220E6D6F630E6E6F000E2AEC69
:1037D00020F016EC20F0F8DB0001785105E07805C8
:1037E00003E096DA0B0E90D00B0E795D14E0010128
:1037F000130E6D6F630E6E6F000E2AEC20F079C011
:10380000E9FFEA6AE9BEEA68E1DA900EE926020E0B
:10381000F7DB0101D9DB74C060F2F8EC2AF0F35059
:10382000010B08E00101FA0E6D6F620E6E6F000E63
:103830002AEC20F00101EA0E6D6F620E6E6F000E31
:103840002AEC20F0000178050CE0E868641908E132
:10385000E868651905E1E868661902E1E868671932
:1038600007E00101E10E6D6F620E6E6F000E0CD06D
:103870000101D80E6D6F620E6E6F000EE8DBD40E84
:103880006D6F620E6E6F000EE2DB9EDB0001765103
:1038900003E03EDA080E01D0F0DBEF6E0701936B18
:1038A0003FD0EBDBEF6E0701936B3FD8000907E0D9
:1038B000C4DA2EDA0B0EEF6E0701010E936FC4DB34
:1038C0008FDA2EE10701010E936F2AD00701010E56
:1038D000936FBADB38DB100EF35C000EF45820E374
:1038E00068C0E1F069C0E2F06AC0E3F06BC0E4F0E8
:1038F00041EC18F000016C516D116E116F1110E167
:103900000701936B13DB090EEF6E0AD0FF0E745D97
:1039100001E093DAFF0E755D01E096DA7FDBEF6A76
:103920000701935101E1C7D412008EDBF3CF02F7F8
:10393000F4CF03F7F3CF18F0F4CF19F01A6A1B6A2B
:10394000C4DA0001645D1C6EEE5065591D6EEE50C8
:1039500066591E6EEE5067591F6E1C50F35C1D5069
:10396000F4581E501A581F501B5807E202C714F093
:1039700003C715F0166A176A0CD0A7DA645D146ED7
:10398000EE506559156EEE506659166EEE50675939
:10399000176E14C000F715C001F70701145000019D
:1039A00060270701155000016123000E6223632385
:1039B0000701000ED8800055000E01552FE2400E81
:1039C000005D000E015905E200C751F201C752F235
:1039D00004D00201400E516F526B0201050E4F6F71
:1039E000070E506F74C04EF276EC29F0F3CF02F759
:1039F000F4CF03F70701F350F41001E1010C02C703
:103A000061F103C762F10101050E5F6F070E16DB5E
:103A100007010251005F0351015BCAD756DA00016A
:103A200064193BE1EE50651938E1EE50661935E155
:103A3000EE50671932E131E16BD90A0EEF6E6C6B13
:103A40006D6B6E6B6F6B02014C6B4D6B74C04BF208
:103A500024EC29F00201040E4C6F070E4D6F74C068
:103A60004BF224EC29F0000905E04FDA7E0E070145
:103A7000045DF0E14ADA0201680E546F000E556FE2
:103A800075C053F2E5EC29F00ADA000906E10001FD
:103A90006469656966696769D7D9000C1200E7C077
:103AA000E6FFE8C0E6FF8BDAF3CF04F7F4CF05F7C3
:103AB000E7C002F7E8C003F7E7C000F7E8C001F786
:103AC0000701045105113FE006DA000E0123EFCF94
:103AD00006F70407055B3D0E065D03E0260E065D56
:103AE00003E154D9EF6AECD72B0E065D03E14ED902
:103AF000200E23D0250E065D22E1020E045D000E8D
:103B0000055903E2046B056BDBD7E5D9000E0123F1
:103B1000EFCF08F7E0D90123EFCF07F70407055BE4
:103B20000407055B07C7DBF408C7DCF4BBEC2FF028
:103B3000E66E07012BD9E552E750EF6EC1D726D9C3
:103B400006C7EFFFBDD722D9EF6A02C7E9FF03C757
:103B5000EAFFEF6A02C7F3FF03C7F4FF1200E9C0F0
:103B6000E9FFEAC0EAFFEF501CE0D6D9EBC0E6FF60
:103B7000ECC0E6FFB4EC37F0E552E552E552E55211
:103B800000090CE1EBC0E6FFECC0E6FF18DA00012B
:103B9000E951F324146EEA51F42045D1E2D9E1D978
:103BA000DED7F36AF46A1200EDC0E9FFEEC0EAFF67
:103BB000EF5024E02CD907C014F008C015F009C05C
:103BC00016F0142A000E1522162214C0E6FF15C0A6
:103BD000E6FFE9D9A6D92DEC37F0176E070EE15EA6
:103BE0001750000908E113D90001ED510724146EA4
:103BF000EE51082018D1BCD9BBD9D6D7F36AF46AE4
:103C0000120000016C516D116E116F1117E1F2C0BD
:103C100045F2F3C046F2F4C047F225EC28F0070164
:103C2000446FFF0E445D01E1120044C76BF2FEECED
:103C30002BF0F3CF6CF0F4CF6DF01AD06CC048F2DB
:103C40006DC049F2D8EC28F00701446FFF0E445DC7
:103C500001E112000201020E5B6F6EC057F26FC0ED
:103C600058F20201596B5A6B44C756F2F9EC29F02D
:103C7000EBD9F3CF00F7F4CF01F70701000ED8809E
:103C80000055000E015538E2400E005D000E01594E
:103C900005E200C751F201C752F204D00201400E02
:103CA000516F526B0201040E4F6F070E506F44C7E5
:103CB0004EF276EC29F0F3CF02F7F4CF03F70701C9
:103CC000F350F4100AE144C74AF219EC29F000015C
:103CD0006C6B6D6B6E6B6F6B120002C761F103C78B
:103CE00062F10101040E5F6F070EA8D907010251AE
:103CF000005F0351015BC1D744C76AF2CDEC2BF0E2
:103D000006C06EF007C06FF044C74AF219EF29F001
:103D1000E0510FD10101976B0101956B966BDAEFC2
:103D20001FF0EE52EFCF6CF168EF03F028D9F3CF1C
:103D30008DF7F4CF8EF712000FEC3CF006C068F060
:103D400007C069F008C06AF009C06BF0BF0E00013F
:103D500068272F0E6923200E6A23000E6B231200A2
:103D60002ED9F1D8010E1426000E1522145012007F
:103D70007E0DE9D8166A176A820E14261F0E1522C8
:103D8000000E162217221200AF51D3D002C7E9FF4E
:103D900003C7EAFF022B000E03231200EE52EFCFFF
:103DA00076F11DEF04F00FEC3CF000016851065C69
:103DB000146E69510758156E6A510858166E6B518A
:103DC0000958176EE834000E17181200030EEA02A5
:103DD000F3CFEAFFE902F3CFE9FFF450EA2612003D
:103DE000B2D8F350F4101200D6D87A0EE926000E9D
:103DF000EA22EF502F0812007E0E04017C6F7D6BCB
:103E00000401600E7A6F000E7B6F1BEF25F0CBD89C
:103E100011EC38F0E552E552E5521200EE52EFCFC8
:103E20005BF1D6EF01F0156E010E1426000E15227F
:103E300014C0F3FF15C0F4FF120074C04AF219EC6D
:103E400029F000017469120075C04AF219EC29F0DA
:103E5000000175691200D880000E1454000E15542C
:103E6000000E1654000E175412008D250101796FB3
:103E7000000E07018E2101017A6F010112007FD827
:103E8000F3CF8FF7F4CF90F7120002017B0E436F50
:103E9000000E446F6BEC27F00001746F12000201FA
:103EA000640E546F000E556F75C053F2E5EF29F0A4
:103EB000EF6A00017A0EE76F000EE86F4FEF1DF01A
:103EC000EE52EFCFAAF156EF12F0600EE96E000E3F
:103ED000EA6EEE50120000C7E9FF01C7EAFF002BAF
:103EE000120014C065F415C066F40CEF23F0350E13
:103EF000E66E630EE66E000EE66E1200EE52EFCF37
:103F000069F14DEC03F0010112000001602B000E7D
:103F10006123622363231200E9C0E6FFEAC0E6FFE3
:103F20001200EDC0E6FFEEC0E6FF1200000188EFD0
:103F30001EF0E96EEA6AD890E936EA36DE0EE92626
:103F4000000EEA221200F3CF14F0F4CF15F01200A5
:103F50000001040E786FDCDE070EEF6E0701936B35
:103F60001200DADFFDDE0001E9271550EA23120016
:103F7000D8DFF6DE0001ED271550EE231200EE52D9
:103F8000EFCF91F10DEF07F0EE52EFCF7BF19EEC0A
:103F900004F0F0EF1EF08FC7E9FF90C7EAFFE906D3
:103FA000000EEA5A1200EFC0E6FFF0C0E6FFF1C0D3
:103FB000E6FF12000101936B946B0101120003EC08
:103FC00038F0E552E5521200140E6D6F000E6E6F60
:103FD000000E2AEF20F0AF6F0101AD6BAE6B010E4A
:103FE0000101AB6FAC6BA2DF60EF1FF0926F9EDF41
:103FF00096EF1EF07A0E776F000E786F42EF20F08A
:10400000EA22EECF6DF1EECF6EF1EFCF6FF18EDFE2
:1040100091EF1EF0776B786B42EF20F079DEEE5275
:10402000EFCF4CF186EC01F096EF1FF001017A0E14
:104030006A6F000E6B6F7ADF7EEF1FF0606F25D81E
:10404000EFCF5EF154EF02F071DF0EEF1FF002D8F8
:10405000010112006F6F6ADF91EF1EF05BDE200E30
:10406000F6EF1FF057DE0A0EF6EF1FF08DC779F15D
:104070008EC77AF10101FAEF1FF00101A5DF56DFCB
:10408000090E120053DFCEEF1EF050DFEE52120089
:10409000898692969392949E9380210EC66E9E96E8
:1040A000C78CC79E53EC25F027EC27F0E8CF05F727
:1040B000080E07010515F6E1051D010BF3E10401EA
:1040C000010E586F546B556B0401876B0401080E89
:1040D0004AEC27F0876B0401090E1DEC27F00C0E4B
:1040E00064EC26F0BAEC26F00D0E1DEC27F00A0E5B
:1040F00064EC26F0BAEC26F00B0E4AEC27F0480EE2
:10410000876F2BEC27F0BAEC26F0050E4AEC27F06F
:10411000480E4DEC27F00401796B0CEC25F00401FE
:104120008F6B020E906F2CEC26F004010D0E876F42
:1041300086EC26F00401320E876F03EC27F00401B1
:10414000120E876F2BEC27F00401400E876F15ECE1
:1041500027F004013F0E876F0401090E4AEC27F097
:10416000120E876F0401060E4AEC27F00C0E876FC3
:104170000401070E4AEC27F0EE0E876F04010A0EC9
:104180004AEC27F0050E876F04010B0E64EC26F055
:104190000401040E9FEC26F0EDC187F42BEC27F010
:1041A000EEC187F40401050E64EC26F0EFC187F43C
:1041B00003EC27F0F0C187F415EC27F0F1C187F488
:1041C00086EC26F0F2C187F4FFEC26F00401876B41
:1041D0002FEC27F00401120E60EC26F0E8CF59F422
:1041E00004018D6B010E8E6F0401100E8C6F16ECA6
:1041F00026F00401720E8D6F340E8E6F0401140EC2
:104200008C6F16EC26F004018D6B8E6B04018C6BA9
:1042100016EC26F0A2EC26F00401040E8B6FB8EF2A
:1042200026F00401010E856FB4EC25F0F350040B69
:1042300001E0010E1200DDEC26F0080B080A01E097
:10424000010E12000401585101E01200010E586FD6
:1042500054C425F755C426F70701255F000E265BD9
:1042600025C714F026C715F067EC26F004E2470EC8
:10427000256F160E266F0401400EE3EC26F025C7CD
:1042800087F404010C0E64EC26F026C787F40401C1
:104290000D0E64EF26F0D8EC26F00401190E60EC48
:1042A00026F0E8CF6FF70E0EE9EC26F00E0E60EC6C
:1042B00026F0E8CF71F704010F0E60EC26F0E8CF8E
:1042C00072F7D8EC26F00401190E60EC26F0070115
:1042D0006F510001145CE1E10C0EE9EC26F00C0ECC
:1042E00060EC26F0E8CF6FF704010D0E60EC26F0CD
:1042F000E8CF70F7070171516F5D725170591BE281
:10430000470E186E160E196E1A6A1B6A6F51715D90
:104310001C6E725170551D6E1E6A1F6A1C50185C0F
:10432000146E1D501958156E1E501A58166E1F50D7
:104330001B58176E14D06F51711908E17051721922
:1043400005E1470EF36E160EF46E120071516F5DAB
:10435000146E70517255156E1406000E155A14C065
:10436000F3FF15C0F4FF12000401190E8F6F010E48
:10437000906F2CEC26F00401190E836FC9DB146ECC
:1043800014C014F704018F6B906B2CEC26F007011E
:10439000145102E1000E8ED00401585103E152DFA6
:1043A000000E88D054C456F455C457F456C487F44C
:1043B0000401866BDAEC25F057C487F40401010E82
:1043C000866FDAEC25F0140E0401776F786B040128
:1043D000000E756F070E766FE4DA12C7E4F413C7A8
:1043E000E5F432EC30F0F3CF12F7F4CF13F700C757
:1043F00014F001C715F0166A176AD880470E1454D6
:10440000160E1554000E1654000E17541BE3070128
:1044100007010051010B16E1070107010551800B4F
:1044200011E1070107010451100B0CE10701EE0E29
:10443000D8800255050E035505E307010701045115
:10444000800B01E1FF0000C754F401C755F4060ECC
:10445000E66EE66A0C0EE66E070EE66E5AC4E9FFDB
:104460005BC4EAFFE9CF14F0EACF15F014C0E6FF11
:1044700015C0E6FF4CEC37F0166E060EE15E1650E6
:104480005CC4E9FF5DC4EAFFEF68080E0701135D35
:104490000DE10701125104E0060E0701125D06E16D
:1044A0005CC4E9FF5DC4EAFF12C7EFFF0401586B6B
:1044B000010E00D012000401490E4DEC27F0560EFB
:1044C00004016127160E622361C487F40401060EFD
:1044D00064EC26F062C487F40401070E64EC26F055
:1044E000060E04017C6F7D6B5EC47AF45FC47BF4BE
:1044F000A2DA060E04017C6F7D6B0401ED0E7A6F6B
:10450000010E7B6F98DA0401080E796F85DA0401D9
:10451000605102E1000E01D0060E0401796F0CEF2C
:1045200025F073EC26F0050E0401595D03E0070E3B
:10453000595D58E107016F6B706B19EC27F00A0E9B
:104540000001141409E107016F2B000E7023E80E1F
:104550006F5D030E7059F1E319EC27F00001E8508C
:10456000020B06E10701E80E6F5D030E70593AE396
:10457000BFEC26F0CFDBE8CF71F707EC27F0E8CFF0
:1045800072F70401060E9CDBE8CF73F70401070EF7
:1045900097DBE8CF74F70701732B000E742342EC0E
:1045A00027F07C6B100E7C5D16E219EC27F0000101
:1045B000E850020B10E007017851200B0CE093DB70
:1045C00019EC27F00A0E00011414FAE0D8DB42ECD3
:1045D00027F07C2BE7D771C787F498DB72C787F485
:1045E00010EC27F01200CFDB632507013F6F155059
:1045F000040164210701406F3FC714F0156E67DBAB
:1046000004E2480E3F5F160E405B3FC787F47EDB37
:1046100040C787F4FFEF26F033EC27F0E8CF6FF7C1
:1046200037EC27F0E8CF70F765C487F403EC27F088
:1046300066C487F415EC27F06FC7F3FF70C7F4FF6B
:10464000120068DBE8CF6FF707EC27F0E8CF70F7D0
:1046500067C487F45BDB68C487F4D1DB6FC7F3FF03
:1046600070C7F4FF12008FDB69250701166F155024
:1046700004016A210701176F16C714F0156E27DBB6
:1046800004E2480E165F160E175B44DBE8CF18F7FE
:10469000BEDBE8CF19F716C787F438DB17C787F4F6
:1046A000AEDB6BC46DF46CC46EF40FD8F3CF16F7A9
:1046B000F4CF17F718C787F429DB19C787F49FDBF6
:1046C00016C7F3FF17C7F4FF12000701716B726B77
:1046D000736B746B1FDBE8CF6FF799DBE8CF70F774
:1046E00004016D516E1151E0140ED8806D55000E0D
:1046F0006E5505E20701140E756F766B04D06DC41C
:1047000075F76EC476F775C777F476C778F4040149
:10471000770E756F070E766F44D907017551040146
:104720006D5F0701765104016E5B070175A10AD028
:10473000770E7525E96E070E7621EA6EEF6A752B06
:10474000000E7623770E8B6F070E8C6F75517611E6
:10475000C7E08BC7E9FF8CC7EAFF020E8B27000E6C
:104760008C23EECF14F0EFCF15F0000114500701A9
:1047700071270001155007017223000E7323742363
:10478000020E755F000E765BE1D76FC787F4BEDA65
:1047900070C787F434DB71C714F072C715F0166A5E
:1047A000176A73C718F074C719F01A6A1B6A145095
:1047B00018240701716F15501920726F16501A20B6
:1047C000736F17501B20746F7351712774517223CC
:1047D00071C714F072C715F0141E151E14C0F3FF34
:1047E00015C0F4FF12000701736B746B040170AF06
:1047F00009D00701010E736F36DBE8CF6FF437DBAA
:10480000E8CF70F4040172AF09D00701010E746F94
:1048100081DAE8CF71F4FBDAE8CF72F40401010E1B
:10482000D8807355000E745540E30701745106E1BA
:1048300071DAE8CF6FF7EBDAE8CF70F70701735161
:1048400006E111DBE8CF71F712DBE8CF72F771C434
:1048500087F45CDA72C487F4D2DA6FC487F4D3DAEF
:1048600070C487F40401030E866FA4D9040173C4D5
:1048700014F074C415F07307000E745B1450151017
:1048800005E07CD80401796FC7D8F0D707017451CF
:1048900006E16FC787F43ADA70C787F4C1DA070117
:1048A000735165E100DB15EF27F0070173510FE04D
:1048B00004016F5173250701716F04017051742158
:1048C0000701726FF0DA0401030E866F73D987DA7D
:1048D0001406000E155A1450040173271550742342
:1048E00004011F0EEDD9000114BAFAD771C487F480
:1048F0000401100EE9D972C487F40401110EE4D941
:104900006FC487F4B8DA70C487F4A9DA68DADFD93B
:1049100007E305DA05E2480E0401735F160E745BC7
:1049200073C487F40401120ECFD974C487F4040150
:10493000130ECAD90401100E5CDA0401200E8B6F2D
:104940006ADA0701745113E00401732B000E74231B
:1049500046DABDD906E3E3D904E2480E735F160ECA
:10496000745B73C487F4D2D974C487F459DA120023
:1049700024DA200B200A01E0010E120089969E968F
:104980003A0EC96E9EA6FED7C9CF75F79E96C96A24
:104990009EA6FED79E96C9CF75F7898607017551E9
:1049A000120089969E963A0EC96E0701AC6BAD6BEC
:1049B00004017551761103E07507000E765B9EA623
:1049C000FED7C9CFAEF79E96040177510701AC5DC3
:1049D000040178510701AD5919E2C96AAC2B000EE8
:1049E000AD230401755176110CE0752B000E762372
:1049F0009EA6FED7C95075C4E9FF76C4EAFFEF6EE4
:104A0000E2D79EA6FED7C9CFAEF7DDD78986ACC761
:104A1000F3FFADC7F4FF1200E7D99EA6FED7C9CFBA
:104A200083F79E9679C4C9FF9EA6FED7C9CF83F7A8
:104A30009E9689861200D8D99EA6FED7C9CF83F745
:104A40009E9604017C517D110EE07AC4E9FF7BC47F
:104A5000EAFFEF50C96E7A2B000E7B237C077D5B4B
:104A60009EA6FED7EBD789861200BED99EA6FED79A
:104A7000C9CF00F79E9604018151821112E07EC4D5
:104A8000F6FF7FC4F7FF80C4F8FF0800F550C96E39
:104A90007E2B000E7F2380238107825B9EA6FED79C
:104AA000E7D78986120078D9010E0701016F026BE2
:104AB000070101C714F002C715F00107000E025BE1
:104AC0001450151006E00C0EE66EF3EC3CF0E552C7
:104AD000EFD789969E96C9689EA6FED7C9CF00F7E4
:104AE0009E968986010E0701036F046B070103C7B9
:104AF00014F004C715F00307000E045B14501510E2
:104B000006E00C0EE66EF3EC3CF0E552EFD7120037
:104B100089969E9683C4C9FF9EA6FED7C9CFACF7DF
:104B20009E96C96A9EA6FED7C9CFACF79E96898687
:104B30000701AC51120089969E9684C4C9FF9EA6B7
:104B4000FED7C9CF02F79E96C96A9EA6FED7C9CFE7
:104B500002F79E96C96A9EA6FED7C9CF02F79E9617
:104B60008986070102511200FED885C487F483D9D3
:104B70000401010E876F0401120E64D904010A0EAC
:104B800013D9000114B0FAD7EED80401876B0401E1
:104B9000120E9AD80401180E07D9E8CF00F70401C5
:104BA000190E02D9E8CF01F7CDD800C7F3FF01C72E
:104BB000F4FF120089969E96400E04018611C96E7C
:104BC0009EA6FED7C9CFACF79E9687C4C9FF9EA606
:104BD000FED7C9CFACF79E968986120089969E961D
:104BE000A00E04018811C96E9EA6FED7C9CF7DF71D
:104BF0009E9689C4C9FF9EA6FED7C9CF7DF79E9613
:104C00008986120089969E96800E04018A11C96ECB
:104C10009EA6FED7C9CF7DF79E968BC4C9FF9EA6E0
:104C2000FED7C9CF7DF79E96898612009CD88CC48A
:104C300087F421D98DC487F40401160E45D88EC49B
:104C400087F40401170EFED804010A0EADD8000146
:104C500014B0FAD7A2EF26F00401030ECAD890C40C
:104C60008BF486D00401040EC4D8F1D8000114B42A
:104C7000FCD704011F0E24D8000114B6FAD7040192
:104C8000200EE3EF26F088D8E2D8000114A0FCD76C
:104C90000401040E8B6F6CD00401150E50D891C422
:104CA00087F4DDD8A2EF26F00401150E48D80401E0
:104CB000150E06D8E8CF00F745D8070100511200BD
:104CC000836F26DF146E1200866FDAEF25F0166A06
:104CD000176AD880470E1454160E1554000E165439
:104CE000000E175412000401800E8B6F94D804013B
:104CF000800E7FD804010A0E896F04011C0E886F94
:104D00006DDF0401080E8B6F0BEF27F00401866B3B
:104D1000DAEF25F00401836BFBDE146E120073C41E
:104D200018F074C419F01A6A1B6AD880470E185418
:104D3000160E1954000E1A54000E1B5412008F6FD9
:104D4000030E9DD004018F6B906B2CEF26F0070EA5
:104D50000401776F786B0401750E756F070E766F1F
:104D600020DE070112000401140E8F6F020E87D09F
:104D70000BEF27F00401160E876F040112000401E7
:104D8000080EF9EF26F0140E0401156A5625146E6C
:104D900057511522145012000401200E896F04018E
:104DA0001E0E886FEEEF25F0846FC5DE146E1200C4
:104DB0000401190E8F6F010E62D004011F0E836F64
:104DC000A7DEE85012008B6F04011E0E8A6F02EFFF
:104DD00026F004018F6F906B3FDF0401120071C455
:104DE00014F072C415F0120089969E967A0EC96E60
:104DF0001200896F04011F0E886FEEEF25F0040189
:104E0000010E64EF26F00401020E64EF26F00401A7
:104E1000010E60EF26F004011F0E8A6F02EF26F0EC
:104E20000401010E866FDAEF25F00401030E64EF32
:104E300026F004011C0E60EF26F02CD8470E876F79
:104E40000401120041DF04010A0E9FEF26F0040165
:104E50001D0E60EF26F00401040E64EF26F004013D
:104E6000150E64EF26F00401020E60EF26F0040137
:104E7000030E60EF26F00401140E64EF26F0906F2D
:104E80002CEF26F073C787F441DF74C787F4B7DFD0
:104E9000A7EF26F019DF04011200876FB4DF6ADF85
:104EA000030E64EF26F071C787F4ADDF72C787F495
:024EB0001200EE
:0E4EB2000701010E006F00C714F03DEC2CF05C
:104EC00005E300512EEC2DF0002BF6D707EC2CF06B
:104ED0000201286B12000701176B43C2E9FF44C2AD
:104EE000EAFFEF5003E00201280501E1FF0C070192
:104EF000016B026B43C215F744C216F7A3EC2CF00A
:104F000012E0A3EC2CF0156AE8500127155002239B
:104F1000010ED89001370237E806FBE10701152B97
:104F2000000E1623EBD7010E006F00C714F03DEC06
:104F30002CF00FE300510FEC2DF009E1E868EE18BA
:104F400006E1E868EE1803E1E868EE1802E0002BDD
:104F5000ECD700C714F0F9EC2CF007E1155005E18F
:104F6000165003E1175001E1FF0C036B046B0201C3
:104F700041510701035D020142510701045964E2F6
:104F80000351070B0EE1020E086E096A03C70DF00C
:104F900004C70EF070EC2CF0050E4F6F070EA9EC55
:104FA0002CF0070E07010315E96EEA6A010ED8908E
:104FB000E936EA36E806FBE1050EE926070EFFECC6
:104FC0002CF00701015114183BE10251151838E18A
:104FD00003C75CF204C75DF29BDA0701005133ECB2
:104FE0002CF0CCEC2CF0005141EC2DF043C215F725
:104FF00044C216F7A3EC2CF00BE0BAEC2CF0A3ECB7
:105000002CF00701175D04E1152B000E1623F2D7D3
:10501000BAEC2CF00701175113E1A3EC2CF010E1CE
:10502000005139EC2DF0005147EC2DF0005123ECEC
:105030002DF0EA2203C7EEFF04C7EDFF0051120076
:10504000032B000E042393D7FF0C45C2F6FF46C284
:10505000F7FF47C2F8FF0800F55003E002012805FA
:1050600001E1FF0C0701466B476B05EC2DF059EC95
:105070002CF013E059EC2CF0156AE8504627155037
:105080004723010ED89046374737E806FBE1070172
:105090005A2B000E5B235C23EAD7010E456F45C7F0
:1050A00014F0EBDB0FE345510FEC2DF009E1E8685C
:1050B000EE1806E1E868EE1803E1E868EE1802E091
:1050C000452BEDD745C714F0F9EC2CF007E115504E
:1050D00005E1165003E1175001E1FF0C486B496BE5
:1050E000020141510701485D02014251070149593E
:1050F0005EE24851070B0DE1020E086E096A48C7CF
:105100000DF049C70EF0ECDB4A0E4F6F070EA9EC0D
:105110002CF0070E07014815E96EEA6A010ED890D7
:10512000E936EA36E806FBE14A0EE926070EFFEC0F
:105130002CF007014651141836E14751151833E198
:1051400048C75CF249C75DF2E3D9070145518BDBE3
:10515000CCEC2CF0455141EC2DF005EC2DF0A9DB09
:105160000BE0C3EC2CF0A5DB07015D5D05E15A2BDC
:10517000000E5B235C23F3D7C3EC2CF007015D51D9
:1051800012E197DB10E1455139EC2DF0455147EC28
:105190002DF0455123EC2DF0EA2248C7EEFF49C718
:1051A000EDFF45511200482B000E492399D7FF0C03
:1051B0000201280505E04851415D4951425901E28B
:1051C000FF0C0701010E456F45C714F056DB0FE3D6
:1051D00045510FEC2DF009E1E868EE1806E1E868AA
:1051E000EE1803E1E868EE1802E0452BEDD745C75D
:1051F00014F0F9EC2CF007E1155005E1165003E12D
:10520000175001E1FF0C48C25CF249C25DF280D93F
:105210000701455123EC2DF0EA2248C2EEFF49C2B6
:10522000EDFF455139EC2DF0455147EC2DF045513E
:10523000120002014A5107E04AC214F01EDB03E3E8
:105240004A512EEC2DF012004BC214F016DB01E295
:10525000000C02014B51E3DB08E1E868EE1805E1C0
:10526000E868EE1802E1E868EE1808E04B51D4DB7C
:105270009CDB145015101610171001E1000C4C5156
:105280004D1126E00701C40E5E6F660E5F6F000EC3
:10529000606F616B02014B51E6DAEE5007015E254B
:1052A000146EEE505F21156EEE506021166EEE50BA
:1052B0006121176E14C0F6FF15C0F7FF16C0F8FF86
:1052C0000800F5504CC2E9FF4DC2EAFFEF6E020143
:1052D0004B51C9DAEE2A000EEE22EE22EE224B519D
:1052E0009BDBEE06EE5AEE5AEE5A010C4EC214F05B
:1052F000C4DA1BE321DB02014E518EDB5FDB06E2E9
:105300004E518ADBEECF51F2EDCF52F24E5187DB98
:1053100008E1E868EE1805E1E868EE1802E1E868DF
:10532000EE1803E05151521103E1F36AF46A1200DE
:105330004F51501102E100DB2ED00701C40E5E6F09
:10534000660E5F6F000E606F616B51C2E6FF52C266
:10535000E6FF02014E5187DAEE5007015E25146E1A
:10536000EE505F21156EEE506021166EEE506121F9
:10537000176E14C0E6FF15C0E6FF16C0E6FF4FC269
:10538000E6FF50C2E6FF77EC37F0186E070EE15EDD
:105390001850D2DA02014E5166DA1450EE2615503A
:1053A000EE221650EE221750EE22C6DA4E5134DBB2
:1053B0001450EE5E1550EE5A1650EE5A1750EE5A33
:1053C00051C2F3FF52C2F4FF1200040E0201516FEA
:1053D000526B54C24FF255C250F253C24EF286DFA6
:1053E000F4CF15F0040EF31801E1155001E0000CA4
:1053F000010C56C214F041DA01E2000C02015651D0
:105400000EDB0AE1E868EE1807E1E868EE1804E14F
:10541000E868EE1801E1000C5B51010A5BE0020A4A
:105420003DE0010A2AE0020A72E14CDA01E2000CD6
:1054300056C263F22ED9065002015725146E07504A
:105440005821156E08505921166E09505A210CDB4F
:10545000570EE96E020EEA6EEE500701455D146EBE
:10546000EE504659156EEE504759166EEE5048599B
:10547000176E020114DB57DA010C11DB5751EE5C99
:105480005851EE585951EE585A51EE5801E2000C5D
:105490005651E9D99CDA03DBA3DA010C56C263F258
:1054A000F8D8C4DA0650EE24146E0750EE20156EBC
:1054B0000850EE20166E0950EE20176E020156516C
:1054C000D2D97CDA01E2000C5651CDD989DAE7DA7B
:1054D0007EDA010CF7D901E2000C56C264F2FBD867
:1054E00002015751065C146E58510758156E5951F8
:1054F0000858166E5A510958B7DAD1DA57C2EEFF7A
:1055000058C2EEFF59C2EEFF5AC2EEFF010C000C6A
:1055100002013F515C1902E140515D192EE04151F9
:105520005C5D42515D5901E31200160EA5DA41C2DD
:1055300014F042C215F0010ED89014361536E80664
:10554000FBE1080E1426000E1522160E086E096ADD
:105550005CC20DF05DC20EF08DEC3BF014500624E1
:105560000201006F15500720016F026B036B160ECE
:105570006FDA5CC23FF25DC240F212005EC214F00C
:105580007CD90DE302015E514ADA0AE1E868EE18BF
:1055900007E1E868EE1804E1E868EE1801E1DED101
:1055A0005E5141DA35C206F036C207F037C208F064
:1055B00038C209F012005FC214F05FD90DE3020196
:1055C0005F512DDA0AE1E868EE1807E1E868EE18A5
:1055D00004E1E868EE1801E1C1D15F5124DA39C273
:1055E00006F03AC207F03BC208F03CC209F01200D4
:1055F00060C214F042D90DE30201605110DA0CE1EF
:10560000E868EE1809E1E868EE1806E1E868EE18C7
:1056100003E1F36AF46A1200605105DA3DC2F3FF58
:105620003EC2F4FF120061C214F027D90DE302015B
:105630006151F5D90AE1E868EE1807E1E868EE186B
:1056400004E1E868EE1801E189D16151ECD931C279
:1056500006F032C207F033C208F034C209F012007B
:1056600062C214F00AD90DE302016251D8D90AE1ED
:10567000E868EE1807E1E868EE1804E1E868EE185B
:1056800001E16CD16251C8D990D96DD917C009F028
:10569000120063C214F0F1D801E260D1020163513B
:1056A000BED90EE1E868EE180BE1E868EE1808E1F3
:1056B000E868EE1805E106680768086809681200DE
:1056C0006351B1D92DC206F02EC207F02FC208F0E7
:1056D00030C209F0120064C214F0CFD80DE3020109
:1056E00064519DD90EE1E868EE180BE1E868EE1808
:1056F00008E1E868EE1805E10668076808680968C7
:105700001200645190D9310EE96E020EEA6E020168
:105710002D51EE24146E2E51EE20156E2F51EE20D9
:10572000166E3051EE20176E1ED9096E120065C23A
:1057300014F0A3D801E2000C0201655170D90AE10E
:10574000E868EE1807E1E868EE1804E1E868EE188A
:1057500001E1000C655167D929C216F72AC217F773
:105760002BC218F72CC219F729C200F22AC201F283
:105770002BC202F22CC203F202010469056B066B14
:10578000076B68C251F269C252F266C24FF267C239
:1057900050F202014E6BAADD010C02016A5163D87E
:1057A000EECF18F0EECF19F0EECF1AF0EFCF1BF0DE
:1057B00018C0E6FF19C0E6FF1AC0E6FF1BC0E6FFEF
:1057C0006AC263F266DFE552E7CF1BF0E552E7CF2E
:1057D0001AF0E552E7CF19F0E552E7CF18F006507E
:1057E000185C146E07501958156E08501A58166E2A
:1057F00009501B58176EB7D8096E120002016B5181
:1058000022D9FDD814C0F3FF15C0F4FF1200020125
:10581000006B016B026B036B080E2ED9060E18D9B4
:10582000060EE66EE66ABD0EE66E660EE66E000ECB
:10583000E66E290EE66E020EE66E2DEC37F0146E63
:10584000070EE15E1450000907E1020E23D9410E54
:105850004F6F020E7ED803D00201416B426B0201F2
:105860003F69406912000A0DF3CFE9FFF4CFEAFF68
:10587000000EE926020EEA221200156A166A176A5D
:10588000D880030E1454000E1554000E1654000E4A
:1058900017541200080EE926000EEA22EECF5CF241
:1058A000EDCF5DF288EF2AF0040EE926000EEA2221
:1058B00012005AC7F6FF5BC7F7FF5CC7F8FF080086
:1058C000F550120056C261F2AEDEB0D8EE500701BC
:1058D000065CEE500758EE500858EE50095812007A
:1058E0008DEC3BF006C000F207C001F2080E020189
:1058F0000027000E0123026B036B100EBDD84AEF88
:105900002DF02DC2EEFF2EC2EEFF2FC2EEFF30C2F1
:10591000EEFF120031C2EEFF32C2EEFF33C2EEFFE5
:1059200034C2EEFF120014C0EEFF15C0EEFF16C029
:10593000EEFF17C0EEFF120051C214F052C215F074
:10594000166A176A120015C7E9FF16C7EAFFEF507B
:105950001200506F02014E6B76EF29F0066A076A5B
:10596000086A096A120014C006F015C007F016C0D4
:1059700008F012000201170E4C6F070E4D6F00C7A2
:105980004BF224EF29F002015D0E4C6F070E4D6FB4
:1059900045C74BF224EF29F029C2EEFF2AC2EEFFE1
:1059A0002BC2EEFF2CC2EEFF1200EECF14F0EECFB2
:1059B00015F0EECF16F0EFCF17F012001450EE5C9A
:1059C0001550EE581650EE581750EE581200575119
:1059D000EE265851EE225951EE225A51EE22120073
:1059E0005751EE5E5851EE5A5951EE5A5A51EE5AED
:1059F0001200156A166A176A030E14181200EA22BA
:105A0000EECF14F0EFCF15F0120045C25AF746C2A0
:105A10005BF747C25CF7120026DF54EF2CF023DF60
:105A2000E868EE1812001FDF4AEF2CF006C045F7B9
:105A300007C046F708C047F709C048F7570EE96E98
:105A4000020EEA6E12000FDF080EE926000E1200A9
:105A500021D8290E4F6F020EA9EF2CF004DFEE685B
:105A6000EE68EE68EE681200176E5651FCDE93EF9A
:105A70002CF0F9DE81EF2CF0046F056B066B076BE1
:105A80001200CADFEE68EE6AEE6AEE6A1200C4DF48
:105A90008AEF2CF00201516F526B02011200565135
:045AA0000CEF2DF0EA
:0C5AA400C2CF0FF7C0CF10F7D5CF11F71D
