:020000040000FA
:06000000B0EF3DF012001C
:020006001200E6
:06000800B7EF35F0120015
:02000E000004EC
:04001000A300000049
:030014000D0A00D2
:0600180067EF35F0120055
:02001E000800D8
:10002000CD6A0000FF010000010000000F7C00000D
:10003000C003000002000000A37B0000800000005D
:100040006C000000A17B0000BE0300000200000065
:100050009C7B0000AD030000050000009A7B0000BF
:10006000BC03000002000000967B0000B603000005
:1000700004000000947B0000BA03000002000000AE
:10008000010141510301BC5D01E11200FE0EBC5DA6
:100090000CE01C0EE66EE66A250EE66E010EE66EBC
:1000A000BC51F6EC15F061EC16F041C1BCF3FE0E4C
:1000B0000101415D01E112001C0EE66EE66A41514C
:1000C000F6EC15F0250EE66E010EE66E61EF16F009
:1000D0000301BC51BD5D01E11200FE0EBD5D1EE0DD
:1000E000250E0101B66FB76B0101010EB56F01015D
:1000F000000EB36F010EB46F37EC18F0EFCFB2F112
:10010000BD51CAEC14F0EECFB0F1EFCFB1F1010167
:10011000250EB05F000EB15B35EC13F0BCC3BDF330
:10012000250E0101B66FB76B37EC18F0EFCFB5F1C4
:10013000BC51CAEC14F0EECFB3F1EFCFB4F1010132
:10014000250EB35F000EB45B28EC17F0000EB06F05
:10015000010EB16F35EF13F00D013A0E096F1C0E51
:100160000A6F3C0EE66EE66AE66A3E0EE66E030E27
:10017000E66E47EC38F0146E050EE15E14500D018A
:10018000016B006B00512EEC15F001E384D000CD23
:1001900041F12DEC17F0F1EC13F0F62A000EF722E6
:1001A000F8220800F5CF08FDF1EC13F0020EF62658
:1001B000000EF722F8220900F5CF02FD0A00F5CF64
:1001C00003FDF1EC13F0040EF626000EF722F822E0
:1001D0000900F5CF04FD0A00F5CF05FD0D0108511A
:1001E00028E109CD06FD0ACD07FD250E176A022577
:1001F000166E0351172231EC17F016500425146EB9
:10020000175005218FEC17F01450092715500A23B9
:1002100009CD14F00ACD15F0166A176AD880820E3F
:1002200014541F0E1554000E1654000E175402E2FB
:10023000EFD7FFD7F1EC13F00800F5CF24F108CD8C
:1002400040F1250E0D0106250101256F000E0D015F
:1002500007210101266F25510D0102250101276F9C
:1002600026510D0103210101286F010E2727000EE1
:10027000282327510D0104250101296F28510D0163
:10028000052101012A6F0D0E3B6F3C974AEC0DF0E2
:100290000D01002B77D712000D01026B02512EECDD
:1002A00015F021E202CD41F1EBDE0D0E01013B5DC7
:1002B00017E10EDF01014951245D12E146510CE1C5
:1002C00047C110F148C111F13C87040E3B6F47C193
:1002D0003EF148C13FF101D0FE0C0D010251120068
:1002E0000D01022BDBD7FE0C4AC141F1C9DE010131
:1002F0003DA902D03D99010C000C4BC141F1C0DE7B
:10030000070E01013B5D01E0000C010C4CC141F105
:10031000E9EC16F001013B51080A1CE0010A1AE061
:10032000050A18E0020A13E0050A0CE00D0A05E0D0
:10033000010A03E0020A0EE114D0D1EC15F001012C
:10034000080E06D0D1EC15F001010C0E01D00D0EF7
:100350003B6F120001019F6B0101140E9E6F63EC55
:1003600009F04AEF0DF0B4DE0A0EE66EE66A36ECEE
:1003700017F04E0EE66E010EE66E68EC16F00EC13A
:1003800058F10FC159F14E0E146E010ED4EF14F056
:100390005AC141F12DEC17F001010C512B1902E16A
:1003A0000D512C1902E089EC14F012005BC141F1EF
:1003B00067DE3BC145FD070E0D01455D06E00B0EF6
:1003C000455D03E0F36AF46A120001012D512B5DD3
:1003D0002E512C590EE3EAEC17F01606000E175AB0
:1003E0002D512B5D186E2C512E55F1EC17F0D4EFDA
:1003F00014F02B512D5D146E2E512C55156E1406D4
:10040000000E155A14C0F3FF15C0F4FF12005CC1B2
:1004100041F136DE5CC15BF1C9DFF3CF00FDF4CF03
:1004200001FD0D01F350F41001E1000C010E001963
:1004300004E1015102E13BEC17F001013D51010BD8
:100440000CE1D2EC17F00D010051145C015115586C
:1004500004E33BEC17F001013D81010E0101B66F91
:10046000B76B0101B56F01015D0EB36F010EB46F83
:10047000C1EC17F001012B2B000E2C2327512B5D13
:1004800028512C5902E380EC16F00D01010E0019E1
:1004900005E1015103E13BEC17F0010C01013CBB0C
:1004A00002D061EC14F0010C0D01AA6BAB6B5EC1C4
:1004B00041F1E6DD5EC15BF179DFF3CFA8FDF4CF5A
:1004C000A9FD0D01F350F41005E13FEC17F0F36ABC
:1004D000F46A1200A8CDA6FDA9CDA7FDCDEC16F0BB
:1004E00004E261C1A6FD62C1A7FD3D51010B0CE113
:1004F000D2EC17F00D01A851145CA951155804E372
:100500003FEC17F001013D8101012B510D01A625A2
:10051000146E01012C510D01A721F0EC16F01EE321
:100520002B51275D0D01AA6F01012C5128590D0196
:10053000AB6FAACDB6F1E8CFB7F162EC15F00D01C3
:10054000AA5101015F270D01AB51010160230D018B
:10055000AA51A65FAB51A75B80EC16F0A6CDB6F111
:10056000A7CDB7F162EC15F00D01A65101012B27C3
:100570000D01A75101012C230D01CDEC16F003E371
:100580003FEC17F004D03CBB02D061EC14F00D013D
:10059000A651AA25146EA751AB21D4EF14F00D017A
:1005A000166B176B63C141F16BDD63C15BF1FEDE5E
:1005B000F3CF14FDF4CF15FD0D01F350F41005E158
:1005C00043EC17F0F36AF46A120001013D51010B8C
:1005D0000CE1D2EC17F00D011451145C15511558B3
:1005E00004E343EC17F001013D8114CD12FD15CD5C
:1005F00013FD89EC16F004E267C112FD68C113FD1A
:100600002B510D011225146E01012C510D011321E6
:10061000F0EC16F022E32B51275D0D01166F01015E
:100620002C5128590D01176F16CDBEF1E8CFBFF13F
:10063000AAEC15F016CD14F017CD15F0166A14506B
:100640000101642715506523165066230D011651CC
:10065000125F1751135B80EC16F012CDBEF113CD73
:10066000BFF1AAEC15F00D01125101012B270D016C
:10067000135101012C2389EC16F003E343EC17F02E
:1006800004D03CBB02D061EC14F00D0112511625D0
:10069000146E13511721D4EF14F06AC1E6FF6BC139
:1006A000E6FFB0EC38F0E552E552F3CF61F1F4CF5C
:1006B00062F16AC15FF16BC160F169C15EF1F4DEA4
:1006C00001016A51F324146E6B51F420D4EF14F03D
:1006D0006DC1E6FF6EC1E6FF6FC1E6FFBEEC38F00C
:1006E000E552E552E55207C067F108C068F16DC1F7
:1006F00064F16EC165F16FC166F16CC163F14FDFEA
:10070000196A01016D51F324146E6E51F420156EB7
:100710006F511920166E14C007F015C008F0096E4D
:10072000120070C141F1ACDC01012551275D0D01C2
:10073000026F0101265128590D01036F010E025F5E
:10074000000E035B70C15BF131DEF3CF00FDF4CF2F
:1007500001FD0D01F350025D146E0351F454D4EF0A
:1007600014F071C172F10CD818EC18F0F350F410B9
:1007700006E071C141F1E9EC16F089EC14F01200C9
:1007800072C141F17DDC45EC16F006E331512F5D7D
:10079000146E3051325513D03151295D166E2A51E5
:1007A0003255176E31EC17F027512F5D186E30510E
:1007B0002855196E16501824146E17501920D4EFAE
:1007C00014F073C172F1DCDFF3CF00FDF4CF01FD53
:1007D0000D01F350F41001E1000C73C141F150DC44
:1007E0000101745175110FE0010EB6EC16F031C124
:1007F000B3F132C1B4F10101B26F74C1B0F175C18E
:10080000B1F135EC13F00101312B000E32233151DF
:10081000295D32512A5902E247EC17F00D01010E11
:10082000001905E1015103E101013D85010C0101C0
:100830003CBB02D061EC14F0010C0D01026B036BA8
:1008400076C172F19DDFF3CF00FDF4CF01FD0D0104
:10085000F350F41003E1F36AF46A120076C141F137
:100860000FDC010179510D01005D01017A510D018B
:10087000015904E200CD79F101CD7AF10101315144
:100880007925146E32517A21BCEC16F029E23151EF
:10089000295D0D01026F010132512A590D01036FCB
:1008A000010E0227000E03230101775178110EE09B
:1008B00002CDB6F103CDB7F16BEC15F00D0102518D
:1008C000010177270D010351010178230D01025128
:1008D0000101795F0D01035101017A5B47EC17F0CB
:1008E0007751781106E079C1B6F17AC1B7F16BECB6
:1008F00015F00101795131277A5132230D0102514E
:10090000010179270D01035101017A2379510D016C
:10091000005D146E015101017A55156E1450795D18
:1009200015507A5902E33D8504D03CBB02D061ECFE
:1009300014F079C1F3FF7AC1F4FF12007BC141F1D9
:1009400040EC00F001012751295D0D01026F01010A
:1009500028512A590D01036F7BC172F111DF0D017E
:10096000F350025D146E0351F454D4EF14F00101FE
:100970007F51801103E1F36AF46A12007CC141F1F6
:1009800040EC00F07CC172F1FBDE01018151F35CAF
:100990000D01026F01018251F4580D01036F92ECB9
:1009A00016F001E205D10101835184110DE00D0122
:1009B00002510101835D0D0103510101845904E2DB
:1009C00083C102FD84C103FD315181250D01066FF4
:1009D0000101325182210D01076F06510101295D8C
:1009E0000D01075101012A5906E2ADEC14F00D0189
:1009F000065F1550075B06CD00FD07CD01FD0D011B
:100A000006510101295D0D01046F075101012A59A9
:100A10000D01056F010E0427000E052381C106FD9F
:100A200082C107FD7FC108FD80C109FD7DC10AFDAE
:100A30007EC10BFD01017DC1E9FF7EC1EAFF7D2B77
:100A40007E23EFCF0DFD0D010F6B0101855109E0F4
:100A5000610E0D010D5D05E30D517A0802E3E00E14
:100A60000D270D01200E0E6FE850045D000E055994
:100A700002E204CD0EFD0E51025D000E035902E2AA
:100A800002CD0EFD0E51B6EC16F000CDB3F101CD46
:100A9000B4F128EC17F0100EB06F0D0EB16F35ECFD
:100AA00013F00D010E5185EC16F0002715500123AF
:100AB0000E5185EC16F0045F1550055B04510511CD
:100AC00006E127C100FD28C101FD04690569010196
:100AD00085513EE00D010C6B0E510C5D5FE235EC73
:100AE00015F0EFCF14F0610E145C0BE335EC15F04C
:100AF000EF507A0806E3E00E146E35EC15F0145052
:100B0000EF2635EC15F0EF500D5D0EE1F7EC16F029
:100B10002CE001EC16F0610E0D5D18E30D517A0822
:100B200015E3E00E0D2712D008CD7FF109CD80F13D
:100B30000F510CE0B8EC15F0610E0D010D5D05E3F1
:100B40000D517A0802E3E00E0D270F6B0C2BC4D772
:100B50000D010C6B0E510C5D21E235EC15F0EF50E0
:100B60000D5D10E1F7EC16F00AE10D010851065D8C
:100B7000166E07510955176E0C517AEF15F001ECFE
:100B800016F00AD008CD7FF109CD80F10F5104E0B5
:100B9000B8EC15F00D010F6B0C2BDCD70D010E51CD
:100BA00085EC16F0025F1550035B92EC16F003E241
:100BB000F368F46812000E5185EC16F00627155004
:100BC00007234FD701018A518B1103E1F36AF46ABD
:100BD000120086C141F140EC00F086C172F1D0DD17
:100BE00001018C51F35C0D01026F01018D51F4582C
:100BF0000D01036F9BEC16F001E205D101018E514E
:100C00008F110DE00D01025101018E5D0D010351A7
:100C100001018F5904E28EC102FD8FC103FD3151E4
:100C20008C250D01066F010132518D210D01076FD9
:100C300006510101295D0D01075101012A5906E202
:100C4000ADEC14F00D01065F1550075B06CD00FDFD
:100C500007CD01FD0D0106510101295D0D01046F54
:100C6000075101012A590D01056F010E0427000EDD
:100C700005238CC106FD8DC107FD8AC108FD8BC10E
:100C800009FD87C10AFD88C10BFD89C10CFD010169
:100C900087C1F6FF872B88C1F7FFC9EC17F0106BEF
:100CA0000101905109E0610E0D010E5D05E30E5149
:100CB0007A0802E3E00E0E270D01200E0F6FE850B8
:100CC000045D000E055902E204CD0FFD0F51025DD7
:100CD000000E035902E202CD0FFD0F51B6EC16F0E3
:100CE00000CDB3F101CDB4F128EC17F0110EB06FC7
:100CF0000D0EB16F35EC13F00D010F5185EC16F0B0
:100D00000027155001230F5185EC16F0045F155094
:100D1000055B0451051106E127C100FD28C101FD55
:100D200004690569010190513EE00D010D6B0F5101
:100D30000D5D5FE23CEC15F0EFCF14F0610E145C3A
:100D40000BE33CEC15F0EF507A0806E3E00E146E6E
:100D50003CEC15F01450EF263CEC15F0EF500E5D16
:100D60000EE1FEEC16F02CE04BEC15F0610E0E5D82
:100D700018E30E517A0815E3E00E0E2712D008CDC5
:100D80008AF109CD8BF110510CE0DEEC14F0610E0C
:100D90000D010E5D05E30E517A0802E3E00E0E2709
:100DA000106B0D2BC4D70D010D6B0F510D5D21E2A2
:100DB0003CEC15F0EF500E5D10E1FEEC16F00AE190
:100DC0000D010851065D166E07510955176E0D513C
:100DD0007AEF15F04BEC15F00AD008CD8AF109CD69
:100DE0008BF1105104E0DEEC14F00D01106B0D2BB3
:100DF000DCD70D010F5185EC16F0025F1550035B37
:100E00009BEC16F003E2F368F46812000F5185ECD6
:100E100016F00627155007234FD797C185F195C1C6
:100E200083F196C184F193C181F194C182F1010EE5
:100E300001017F6F806B0101920E7D6F010E7E6F4D
:100E400091C17CF1B7EF04F00D01006B00512EEC65
:100E500015F001E368D100CD41F140EC00F00D0147
:100E6000036B016B026B01013D51020B03E13D512C
:100E7000040B0EE01BEC21F000090AE00D01100E3E
:100E8000036F01013D51040B01E0010E0D01016FE3
:100E900001013CAB11D0C6EC3CF001010650375DBE
:100EA000146E07503859156EE83402E24CEC17F016
:100EB00003E30D01100E036F01013CAD09D04BECB3
:100EC00016F002E24CEC17F003E30D01100E036F75
:100ED0000B0E01013B5D0CE14BEC16F002E24CEC19
:100EE00017F006E30D01110E036F01010C0E3B6FAD
:100EF000040E3B5D63E10D01046B056B030E045DA5
:100F0000000E05595BE26CEC17F01DEC18F056E092
:100F10006CEC17F0F3EC15F05DEC15F001013E51AF
:100F2000141847E13F51151844E168EC00F00A0E2F
:100F3000E66EE66A6CEC17F0A4EC16F036EC17F0EF
:100F4000F9EC37F0060EE15E6CEC17F051EC17F09F
:100F5000EECF0EF1EDCF0FF16CEC17F00C0E72EC42
:100F600017F0EECF08F1EECF09F1EECF0AF1EFCF97
:100F70000BF10101082B09230A230B231851162515
:100F8000166E19511721176E16500E25146E175034
:100F90000F21156E145010193E6F155011193F6F27
:100FA0000D01120E036F0101060E3B6F1BEC14F0D6
:100FB00005D00D01042B000E0523A0D70D01035110
:100FC0000AE0015102E0000E01D0010E01019F6F05
:100FD00003CD9EF178D901013CB92DD0070E3B5DC0
:100FE00001E09ED01BEC15F001E09AD001013C51CC
:100FF000070B060816E13C51080B01E0010E0D013C
:10100000036F00CD4CF186EC01F000CD4CF186EC85
:1010100001F00D01035101E083D001010E0E3B6F81
:101020007FD068EC00F00101020E9F6F3DEC18F0DC
:10103000FCEC14F075D01BEC15F072E168EC00F0DC
:1010400001013B510C0A2FE0060A27E0030A34E0B5
:10105000010A1FE00F0A14E00C0A12E00D0A05E075
:10106000030A2FE10D01020E23D0020E235D03E2DD
:101070000D01120E1DD03CB71FD00D01020E07D07E
:10108000050E235D0DE3080E3B6F0D01110E036F7E
:1010900018D0050E235D10E209D0050E235D0CE289
:1010A0000D01100E05D0050E235D06E20D01110E97
:1010B000036F010E016F05D00D01140E036F010EB9
:1010C000026F0D01035127E001511FE00101232BA5
:1010D000D8900037013702370337D8EC15F015AE3A
:1010E00002D016681768F3EC14F025EC16F008E24D
:1010F000E3EC17F015AE02D016681768F3EC14F0A5
:1011000054EC17F001019F6B03D00101010E9F6F9A
:1011100003CD9EF1D8D80D01025102E04AEC0DF04A
:101120000D01002B93D6046B056B030E045D000EBE
:1011300005592FE26CEC17F01DEC18F001E11200DC
:101140006CEC17F059EC17F02AEC16F016C0E6FF1D
:1011500017C0E6FFC6EC3CF0E552E7CF17F0E552CA
:10116000E7CF16F01650065C146E17500758156E30
:10117000B70ED8801454000E155406E21BEC14F080
:101180000D010407000E055B0D01042B000E052365
:10119000CCD7120098C1E9FF99C1EAFFEECF14FD48
:1011A000EECF15FDEECF16FDEFCF17FD9AC1E9FF8B
:1011B0009BC1EAFFEECF18FDEECF19FDEECF1AFD71
:1011C000EFCF1BFD0D011C6B060E1D6F9CC11EFD9C
:1011D0009DC11FFD9CC16AFF9DC16BFF32EC30F0C9
:1011E000F3CF1EFDF4CF1FFD0C0E0F01726F736B5A
:1011F0000F01140E706F0D0E716F4DEC30F0F3CFC8
:1012000020FDF4CF21FD0D01201F211F9CC119F3EA
:101210009DC11AF365EC23F0F3CF22FDF4CF23FD3B
:101220000D01F35020194CE12351211949E102012C
:10123000FB6BFC6B9EEC37F0140E0301236F246BE9
:101240000301000E216F0D0E226FD1EC24F001017D
:10125000000EA46F0D0EA56FDCDB0D010C51D7EC59
:1012600017F0040DF350146E156A140E145E000E80
:10127000155A14C024FD1450146E156AE85001016B
:101280009C5D9C6F15509D599D6F140E9C5F000EC8
:101290009D5B98C1A2F199C1A3F10101000EA06F5D
:1012A0000D0EA16F76DA00090BE09CC1A8F19DC17B
:1012B000A9F10101000EA66F0D0EA76F89EC0DF0CC
:1012C00022EC21F0010C68EC00F001019EA102D09B
:1012D0003D879E913C9B3C9D3C9F3D933D953D9120
:1012E0001BEC21F00009FCE0060E01019E1504E054
:1012F0000D016B6B6C6BD7D00C512B190FE10D519D
:101300002C190CE10D016B6B6C6B01013DA7CBD06F
:101310001251131101E1C7D09E81C5D02B510C5D34
:101320002C510D5939E20C512B5D0D016B6F0101F0
:101330000D512C59ABEC17F003E3DDEC17F002D0A4
:1013400043EC15F056EC16F004E26DCD6BFD6ECD5E
:101350006CFD180ED8806B55020E6C5502E205EC40
:1013600017F001013DA70FD00D016D516B1902E17E
:101370006E516C1908E0180E6B1902E1020E6C191F
:1013800002E001019E816BCDB6F16CCDB7F185EC29
:1013900015F0ADEC16F087D00C51275D0D01696F8B
:1013A00001010D5128590D016A6F695101012B2569
:1013B000146E0D016A5101012C21156E2551145C2A
:1013C0000D016B6F010126511558ABEC17F003E3CB
:1013D000DDEC17F002D043EC15F056EC16F004E209
:1013E0006DCD6BFD6ECD6CFD180ED8806B55020E69
:1013F0006C5502E205EC17F001013DA70FD00D017D
:101400006D516B1902E16E516C1908E0180E6B19E1
:1014100002E1020E6C1902E001019E810D01695189
:101420006B5D6A516C5904E26BCD69FD6CCD6AFD50
:1014300069CDB6F16ACDB7F185EC15F00D016951B2
:101440006B5D696F6A516C596A6F69516A1122E06C
:1014500069CDB6F16ACDB7F140C1B5F125C1B3F19F
:1014600026C1B4F10101B26B01010C51275D146E6C
:1014700028510D55156E166A176A7F0E1426160E22
:101480001522000E1622172214C0B0F115C0B1F1BA
:1014900035EC13F0ADEC16F027510C5D28510D59C9
:1014A00002E3F8EC17F00D016B516C1104E1030E2F
:1014B00001019E1514E00D016B516C1102E0010158
:1014C0009E8701019FA107D0236B090E006F3D0E7F
:1014D000016F026B036B94EC15F03C8927D09FA33E
:1014E00019D03C0EE96E010EEA6EEF50070BE82AA8
:1014F000E850070BF36EF46EF80EEF14F310EF6E76
:101500000407000E055B065B075B010E0D016B6FA8
:101510006C6B0CD03CA90AD09FB106D02307D890A1
:10152000033302330133003394EC15F010C147FD4F
:1015300011C148FD0EC149FD0FC14AFD04C14BFD5B
:1015400005C14CFD06C14DFD07C14EFD08C14FFD53
:1015500009C150FD0AC151FD0BC152FD0D0153914E
:101560005393539553979EC154FD596B5A6B6B51CE
:10157000010104270D016C5101010523000E062312
:1015800007239EA30DD022A306D00D014B074C5B71
:101590004D5B4E5B05D0042B0523062307232283D6
:1015A00001019EA10DD022A106D00D014B074C5B7D
:1015B0004D5B4E5B05D0042B0523062307232281B8
:1015C00045EC16F00AE30EEC16F00D011650145C13
:1015D000556F17501558566F0DD02F51315D0D01B5
:1015E000556F0101305132590D01566F010E555F93
:1015F000000E565B4BEC21F0F3CF45FDF4CF46FDDA
:101600000D01400E455F000E465B800E461502E060
:10161000456B466B5551455D5651465904E245CDE3
:1016200055FD46CD56FD0101470EA46F0D0EA56F69
:10163000F0D9140E0D016B27000E6C235389539BB8
:10164000538D539F01019EA323D0040E0D016B27E0
:10165000000E6C23020E5B6F040E5C6F020E5D6F5A
:10166000140E5E6F010E146E530EE96E0D0EEA6ECF
:10167000EF50D7EC17F014240F0BF36EF46EF34613
:10168000F346F346F3460F0EEF14F310EF6EF450EB
:10169000C0C15FFDC1C160FDC2C161FDC3C162FDCA
:1016A00016C163FD17C164FD18C165FD19C166FD52
:1016B0000D01676B060E686F6BCD69FD6CCD6AFD21
:1016C0006BCD6AFF6CCD6BFF32EC30F0F3CF69FD70
:1016D000F4CF6AFD0C0E0F01726F736B0F015F0E7A
:1016E000706F0D0E716F4DEC30F0F3CF57FDF4CFEE
:1016F00058FD0D01571F581F0301570E116F160E8D
:10170000126F0CEC23F06BCDF9F26CCDFAF2020102
:10171000060EF86F0201160EF66F010EF76F2BEC36
:1017200037F0140E5CEC17F0470E266F0D0E276F86
:101730001BEC25F001019EA309D0040E5CEC17F010
:101740005B0E266F0D0E276F1BEC25F003016B0E51
:10175000136F160E146F21EC23F06BCD19F36CCDC3
:101760001AF365EC23F0F3CF45FDF4CF46FD0301FA
:101770007B0E116F160E126F0CEC23F0020E5CEC58
:1017800017F0450E266F0D0E276F1BEC25F091EF1D
:1017900022F085EC14F0EE50ED1001E1000C0D018B
:1017A000FE0E266FC8EC16F0020E72EC17F0EECFAC
:1017B00018F0EFCF19F0C8EC16F01850EE24166EA2
:1017C0001950EE20176E85EC17F01650EE24146EAB
:1017D0001750EE20156E85EC14F01450EE18276F9C
:1017E0001550EE18286F256B25512EEC15F048E2A8
:1017F00025CD41F140EC00F00D0E01013B5D3DE0D7
:10180000040E3B5D0BE1E7EC17F014503E1935E197
:1018100015503F1932E125CD26FD2FD00D0127515E
:1018200001013E192AE10D01285101013F1925E16D
:1018300068EC00F0E7EC17F00101105114181DE1FD
:10184000115115181AE185EC17F02AEC16F00E511B
:10185000161813E10F51171810E1C8EC16F0EE50EE
:1018600016190BE1EE50171908E1EE50181905E1B1
:10187000EE50191902E101E1010C0D01252BB4D73D
:10188000FE0E265D21E026CD41F12DEC17F0FE0E77
:101890000D01265D19E027CD3EF128CD3FF1D5ECB5
:1018A00016F036EC17F068EC16F085EC17F0EECF7A
:1018B0000EF1EDCF0FF185EC14F0EECF10F1EDCF7E
:1018C00011F161EC17F0010C85EC17F00D0E72ECC4
:1018D00017F0EF50020B01E1000C03017651771174
:1018E00001E0000C0D01296B2A6B030E295D000E2F
:1018F0002A593BE266EC17F01DEC18F036E066EC76
:1019000017F0F3EC15F05DEC15F085EC14F02AEC13
:1019100016F01650141824E11750151821E166EC42
:1019200017F051EC17F05DEC15F085EC17F02AEC90
:1019300016F01650141814E11750151811E1C8ECE0
:1019400016F030EC18F0EE500001141808E1EE50DB
:10195000151805E1EE50161802E1EE50171848E090
:101960000D01292B000E2A23C0D7256B25512EEC03
:1019700015F04EE225CD41F140EC00F001013CA70D
:1019800044D068EC00F0E7EC17F014500101101996
:101990003CE11550111939E1D5EC16F066EC17F061
:1019A000A4EC16F061EC16F085EC17F05DEC15F088
:1019B00066EC17F051EC17F014C0EEFF15C0EDFF08
:1019C00085EC17F0040E72EC17F030EC18F00C0EEA
:1019D00072EC17F014C0EEFFFEEC17F0E7EC17F016
:1019E00066EC17F0F3EC15F014C0EEFF15C0EDFF38
:1019F000C6EC3CF007C015F066EC17F059EC17F098
:101A000006C0EEFF15C0EDFF000C0D01252BAED773
:101A1000000C8AEC17F075EC14F0F3CFEEFF15C054
:101A2000EDFF8AEC17F0020E72EC17F075EC14F073
:101A3000020EF3CFEBFF030E6FEC16F0040EB5ECC5
:101A400014F0040EA4EC15F0080EB5EC14F0080E1A
:101A5000A4EC15F00E0E72EC17F075EC14F00E0EEF
:101A6000F3CFEBFF0F0E6FEC16F0F3EC15F075EC07
:101A700014F0100EF3CFEBFF110E6FEC16F059ECD3
:101A800017F075EC14F0120EF3CFEBFF130E15C028
:101A9000EBFF120068EC00F010C13EF111C13FF104
:101AA00080EC16F025C12DF126C12EF127C12FF1B2
:101AB00028C130F147EC17F001013C51080B02E05E
:101AC000040E01D00D0E3B6F3C913C933C953C992C
:101AD0003C9B3C9D3C9F3D913D933D953D973D8971
:101AE000229122932297229961EC17F073EC3DF03A
:101AF000F3CF04F1F4CF05F173EC3DF0F3CF06F131
:101B0000F4CF07F1010120692169010E126F136BF7
:101B10001200A6EC17F00D0E72EC17F0EFCF33FDAC
:101B2000A6EC17F0080E72EC17F0EECF34FDEECFF6
:101B300035FDEECF36FDEFCF37FDA6EC17F0040EE6
:101B400072EC17F0EECF38FDEECF39FDEECF3AFD57
:101B5000EFCF3BFD01013C913C933C953CB902D059
:101B6000FCEC14F03B51050A1DE0010A08E0A8C195
:101B70003CFDA9C13DFD0D0133A140D03CD00D017C
:101B800033B50ED033A906D02FEC16F0040EBEEC00
:101B900017F006D033A304D0C7EC15F01BEF16F0F6
:101BA0004AEF0DF00D0133B5120033A910D0C2EC8D
:101BB00016F00101041908E1EE50051905E1EE5097
:101BC000061902E1EE50071902E08EEF14F00D0144
:101BD00033A355EF12F0C7EC15F005EC18F00D012A
:101BE00033A907D089EC14F00101070E3B6F3C9933
:101BF00012001BEF16F03C2B000E3D2333A303D045
:101C00003C2B000E3D2345EC16F00AE30EEC16F0DB
:101C10000D011650145C316F17501558326F0DD0EE
:101C20002F51315D0D01316F0101305132590D01DC
:101C3000326F010E315F000E325B080EE96E010E4D
:101C4000EA6EEE50385D2B6FEE5039592C6FEE5026
:101C50003A592D6FEE503B592E6F2BCD2FFD2CCDC9
:101C600030FD3E6B3C513D1164E03151321101E1D8
:101C700073D0800E2E1509E1E1EC15F0E8AE02D02C
:101C8000173402D0EAEC15F03BE33CCD14F03DCD27
:101C900015F0166A176A2B0EE96E0D0EEA6EEE50FD
:101CA0001426EE501522EE501622EE50172217344D
:101CB000000E171809E6D880000E1454000E1554B3
:101CC000000E1654000E17541DE23C51315D186E83
:101CD00032513D55196E1A6A1B6A19AE02D01A6844
:101CE0001B681B502E19E8AE02D02E3508D02B51A0
:101CF000185C2C5119582D511A582E511B5802E3BB
:101D0000010E3E6FE1EC15F0E8AE02D0173402D0C0
:101D1000EAEC15F021E22F513C25186E30513D219F
:101D2000196EE83419E218500008000E195414E234
:101D300011D02B512C112D112E110CE0800E2E15CF
:101D40000BE1E1EC15F0E8AE02D0173402D0EAEC7A
:101D500015F002E2010E3E6F3E5104E133B5A5D30A
:101D600089EF14F0060E331502E04AEF0DF033A9A7
:101D7000120001013B510C0A01E192D10B0A1CE057
:101D80000F0A1AE0010A18E0020A16E0010A14E03C
:101D90000C0A01E095D1C2EC16F0041908E1EE50EE
:101DA000051905E1EE50061902E1EE50071902E0AF
:101DB0008EEF14F0070E3B6F0C512B5D0D01296F58
:101DC00001010D512C590D012A6F800E2A1508E0D2
:101DD00001017EEC14F014500D01292715502A231F
:101DE00029CD14F02ACD15F0166A176A21EC18F0E7
:101DF000EE501424256FEE501520266FEE5016205D
:101E0000276FEE501720286FC2EC16F0255D146E78
:101E1000EE502659156EEE502759166EEE50285981
:101E2000176E0001800E171402E0DDEF16F00101BD
:101E3000D8EC15F015AE02D01668176821EC18F032
:101E40001450EE5C0D01256F1550EE58266F16509C
:101E5000EE58276F1750EE58286F010125EC16F049
:101E60000BE2E3EC17F014500D01255F1550265BD3
:101E70001650275B1750285B250EE96E0D0EEA6E93
:101E8000EE500D01345D256FEE503559266FEE5042
:101E90003659276FEE503759286FE834000E28194D
:101EA00009E6D880000E2555000E2655000E275550
:101EB000000E28556CE20101E3EC17F00D012551ED
:101EC000145C2651155827511658285117585FE3AE
:101ED0000101229722993D912DC129FD2EC12AFD94
:101EE0000D01255101012D270D01265101012E2340
:101EF0000D01295101010C5D0D012A5101010D59FE
:101F000009E325EC16F02FE20C512D5D146E2E51D5
:101F10000D551BD07EEC14F00C5114240D01296FCB
:101F200001010D5115200D012A6F01012D510D01E7
:101F3000295D01012E510D012A5915E22951010196
:101F40002D5D146E2E510D012A55156E0001145091
:101F5000010104270001155001010523000E06238D
:101F6000072354EC17F0010127512D5D28512E59FC
:101F700006E37EEC14F014502D5F15502E5B2751B4
:101F80000C5D28510D5926E3F8EC17F023D0010120
:101F90000C512D1902E10D512E191CE022A719D068
:101FA00022A916D0D8EC15F015AE02D01668176825
:101FB000F3EC14F025EC16F008E2E3EC17F015AEA4
:101FC00002D016681768F3EC14F054EC17F03D8556
:101FD000228922872B512D1918E12C512E1915E138
:101FE0003DB702D03C9911D0D9EC14F00EE1EE507F
:101FF00035190BE1EE50361908E1EE50371905E1BD
:1020000004E101013C993D97229101011251131104
:1020100006E1DDEC15F0EE50ED1001E03D8305EC3E
:1020200018F0080E3B5D1CE1D9EC14F049E1EE50CC
:10203000351946E1EE50361943E1EE50371940E1CB
:102040003FE195EC17F02D0E01013327310E3423BB
:10205000010E3523000E36233C89090E3B6F30D02C
:10206000090E3B5D0AE10D0133B12AD02FEC16F0C9
:10207000140EBEEC17F04AEF0DF00A0E3B5D20E1A6
:10208000D9EC14F00CE1EE50351909E1EE50361997
:1020900006E1EE50371903E101E007D2FBDC120044
:1020A000D9EC14F00CE1EE50351909E1EE50361977
:1020B00006E1EE50371903E101E0F7D1EBDC120045
:1020C0000D0133BB12000B0E01013B5D01E112005B
:1020D0000A0E3B5D01E112000C0E3B5D01E11200B6
:1020E000A851A91101E167D10D01303504E22F514A
:1020F0000008000E305501E2A2D055EC15F0146E28
:10210000156A2F51F35C0201FB6F0D013051155818
:102110000201FC6F9EEC37F00D012F510101A82741
:102120000D0130510101A923A8510D01315D0101BB
:10213000A9510D01325904E231CDA8F132CDA9F1F6
:102140000101A8510827A9510923000E0A230B23D6
:102150002F51A825146E3051A921BCEC16F024E2B1
:102160002F51295D0D01296F010130512A590D01AF
:102170002A6F010E2927000E2A230BEC18F02FC11D
:10218000B0F130C1B1F176EC17F073EC16F0146ECB
:10219000A9510D012A55156E0101275114242F6FE5
:1021A00028511520306F0CD0A0EC17F02FC1B0F1E2
:1021B00030C1B1F15ADA0101A8512F27A9513023BA
:1021C000201D01E1211D01E1F6D0A851205FA95198
:1021D000215B145120250D01296F01011551212189
:1021E0000D012A6F800E2A1502E0010125D00101A0
:1021F000213504E220510008000E215501E2DBD018
:102200000D012951010108270D012A51010109235E
:10221000000E0A230B230D01295101012F270D0167
:102220002A51010130232F51295D30512A5904E2EE
:1022300094DB2F5F1550305B20692169BCD03035AD
:1022400001E3B9D02F510008000E305501E3B3D09F
:102250000101A8510D012F25146E0101A9510D0195
:102260003021156E1450315D1550325909E22F514D
:10227000315D0101A86F0D01305132590101A96F83
:1022800055EC15F00201FB6FFC6B9EEC37F026EC71
:1022900018F0166E2BEC18F0176E16500101A825D9
:1022A000146E1750A921BCEC16F031E22F51295DB4
:1022B000146E2A5130558FEC17F00D012F51145C1C
:1022C000296F305115582A6F800E2A1508E10BEC42
:1022D00018F033EC16F0B16F76EC17F01DD0A0ECCF
:1022E00017F026EC18F0146E2BEC18F0156E0101A7
:1022F0002751295D166E2A512855176E31EC17F0BB
:1023000001011650145CB06F1750155804D0A0ECA2
:1023100017F033EC16F0B16FA8D90101201D0BE1C5
:10232000211D09E12FCD20F130CD21F1A8C114F1FB
:10233000A9C115F140D020510D012F5D010121519E
:102340000D0130591EE263DB06E30D0139EC16F096
:102350002151195805E2A8C114F1A9C115F10CD0F9
:1023600079EC16F00D012F51145C0101146F0D0171
:10237000305115580101156F2FCD20F130CD21F1CD
:102380001AD045DB18E279EC16F00D012F51145CE0
:102390003051155810E339EC16F0166E21511958CA
:1023A000176E1451165C146E15511758156E145093
:1023B0001427155015230D013C513D1119E0070E4E
:1023C00001013B5D04E02FC131F130C132F13CAF7E
:1023D00004D09FDA68EC00F00BD03C8F3CBD08D0F5
:1023E0003C8D0CEC17F0060E01013927000E3A2344
:1023F0000D0133A15AD008C114F009C115F00AC16A
:1024000016F00BC117F0142A000E152216221722FF
:102410003CCD18F03DCD19F01A6A1B6A380EE96EF2
:102420000D0EEA6EEE501826EE501922EE501A22CA
:10243000EE501B221450181838E11550191835E1C8
:1024400016501A1832E117501B182FE12EE111EC2B
:1024500018F03B51090A24E0010A12E00F0A06E0D5
:10246000010A22E10C0E3B6FD1EF15F00B0E3B6F12
:102470000CEC17F00C0E01013927000E3A2314D092
:1024800098DA0AE1EE50351907E1EE50361904E109
:10249000EE50371901E104E001010A0E3B6F04D050
:1024A000DDEC16F04AEF0DF034DA1200AAC141F16A
:1024B00040EC00F00101AB51AC1103E1010EAB6F38
:1024C000AC6B2551295D0D01006F010126512A5980
:1024D0000D01016F010E005F000E015B010113ECA5
:1024E00017F00D011450005D1550015901E2000C68
:1024F00068EC00F0030E0101AF1502E1030EAF130B
:10250000ADC104FDAEC105FD13EC17F014500D0173
:10251000005F1550015B0101AFA313D0AFA10CD038
:1025200000CD14F001CD15F0D890153214321450AE
:102530000D010427155004D00D010051042701514D
:102540000523010125510D010425006F01012651CC
:102550000D010521016F010E0027000E01232FC17F
:1025600002FD30C103FD0101201D01E1211D13E029
:10257000C0DB14500D010227155003230251010145
:10258000295D0D01035101012A5905E2E6D90D012A
:10259000025F1550035B0D0102510101315D0D0118
:1025A0000351010132590CE20D0100510101315D6D
:1025B0000D0101510101325918E2AFA50ED0000CF6
:1025C000E1EC16F00AE200510101275D0D01015115
:1025D000010128590AE2AFB5000C00CD31F101CD5F
:1025E00032F100CD2FF101CD30F10101EADB2CE217
:1025F000040E0101AF1528E027510D01025D010114
:10260000B66F010128510D0103590101B76F40C197
:10261000B5F127C1B3F128C1B4F140C1B2F100CD89
:10262000B0F101CDB1F121D830DB0EE20D01005146
:102630000101275D146E28510D010155156E1450CE
:1026400001012F5F1550305B00CD27F101CD28F13E
:1026500061EC17F025C12DF126C12EF151DB070EDB
:1026600001013B5D01E155D9010C0101B55128E0A3
:10267000010A01E01200B25111E0010A01E012006A
:10268000B6C1E6FFB7C1E6FFB3C1E6FFB4C1E6FFDE
:10269000B0C1E6FFB1C1E6FF68EF16F0B1BF06D0EA
:1026A000B0C111F3B1C112F30CEC23F0B6C128F3A1
:1026B000B7C129F3B3C126F3B4C127F31BEF25F04B
:1026C000B25115E0010A01E01200B4BF06D0B3C157
:1026D00013F3B4C114F321EC23F0B6C123F3B7C153
:1026E00024F3B0C121F3B1C122F3D1EF24F0B6C17C
:1026F0001FF3B7C120F3B3C11DF3B4C11EF3B0C1C2
:102700001BF3B1C11CF3F3EC23F0B8EC24F0000987
:10271000FCE012000101BA510EE0010A01E01200D2
:10272000BEC1E6FFBFC1E6FF85DBB8C1E6FFB9C1A8
:10273000E6FF21EF17F0B9BF06D0B8C111F3B9C158
:1027400012F30CEC23F0100E0D01106F116B010150
:10275000BE51BF1137E00D0110510101BE5D0D01E9
:1027600011510101BF5904E2BEC110FDBFC111FDED
:1027700010CDE6FF11CDE6FF5DDB000EE66E0D0E1F
:10278000E66E5FDB10CD28F311CD29F30301000EB7
:10279000266F0D0E276F1BEC25F010CD14F011CD18
:1027A00015F0166A14500101BB271550BC231650B2
:1027B000BD230D0110510101BE5F0D011151010139
:1027C000BF5BC5D71200140EEA02F3CFEAFFE9029D
:1027D000F3CFE9FFF450EA263E0EE926030EEA2283
:1027E00012007C0E146E7B0E156E000E166E00CD60
:1027F00017F0186A196A060E0C6E0D6A0E6A00CD83
:1028000007F018C008F019C009F058EC3CF004C0FB
:1028100017F005C018F006C019F014500424F36E28
:1028200015500520F46E16500620F86EF4CFF7FF11
:10283000F3CFF6FF120004CDB6F105CDB7F10101DB
:10284000020ED880B657000EB757140EB703F3CF59
:10285000B7F1B603F3CFB6F1F450B7270101010E7B
:10286000B56F0D0104250101B36F000E0D010521A7
:102870000101B46F140EB403F3CFB4F1B303F3CF7B
:10288000B3F1F450B4273E0EB327030EB423010175
:10289000010EB26F140E086E096A04CD0DF005CD5D
:1028A0000EF03AEC3CF006C0B0F107C0B1F13E0EBC
:1028B0000101B027030EB123D8DE0301766B776BDD
:1028C00012003C8BC6EC3CF006C014F007C015F0BB
:1028D000166A176A020E1426000E152216221722F7
:1028E00014C037F115C038F11200EECF6AFFEDCFFA
:1028F0006BFF32EC30F09CDB8AEF17F02551275D3F
:10290000146E28512655156E1200FFDA020E72EF72
:1029100017F00101010E9F6F3DEF18F004C138FD63
:1029200005C139FD06C13AFD07C13BFD1DDB010EA6
:102930009F6F0101040E22DB38CD04F139CD05F182
:102940003ACD06F13BCD07F112000101B56B010153
:10295000B369B46940C1B2F112002751295D146E08
:102960002A512855DCDA14501200BCDAEECF6CFF85
:10297000EECF6DFFEECF6EFFEFCF6FFF37EC30F095
:1029800006C014F007C015F008C016F009C017F013
:102990008AEF17F01C0DF3CFE9FFF4CFEAFF000E2A
:1029A000E9260F0EEA221200156E14C0F3FFF46E32
:1029B000120047DBEE500D01341912000ACD87F1E9
:1029C0000BCD88F10CCD89F101010ACDF6FF872BE3
:1029D0000BCDF7FF000E88230CCDF8FF89230800EC
:1029E000F5CF0EFD12001450045F1550055B165014
:1029F000065B1750075B120098DA5A0E0101332765
:102A0000620E3423020E3523000E362312002F519E
:102A10000101A825146E0D0130510101A921156E87
:102A200020511425166E21511521176E1450165C75
:102A3000155017581200BCEC3CF001013351065CF4
:102A4000146E34510758156E35510858166E3651AC
:102A50000958176E0001800E17141200146E156AC3
:102A6000030E145C000E155812000C51EA6A100F88
:102A7000E96E0D0EEA2212000D51EA6A110FE96E9D
:102A80000D0EEA221200A6DA0C512D5D186E2E51A1
:102A90000D55F1EF17F087C1F6FF872B88C1F7FFBF
:102AA000000E77DA010E106F120050DA0C0E1ADAEF
:102AB000EF507DDA040DF3501200EECF14F0EFCF9B
:102AC00015F012000101010EB56F5FC1B3F160C1D5
:102AD000B4F1C1EF17F040C1B5F131C1B3F132C16A
:102AE000B4F10101010EB26F77C1B0F178C1B1F15B
:102AF00035EF13F000011624146E000E17200FDAC4
:102B000014C0F3FF15C0F4FF120040C1B5F10CC1B1
:102B1000B3F10DC1B4F10101B26B01017F0EB06FD1
:102B2000160EB16F35EF13F0BCEC3CF0065001010E
:102B30000025336F07500121346F08500221356F93
:102B400009500321366F1200CDD906C0EEFF56DAC8
:102B50008AEF17F064C1BBF165C1BCF166C1BDF17C
:102B600040C1BAF12BC1B8F12CC1B9F18AEF13F011
:102B70000ACD7DF10BCD7EF101010ACDE9FF0BCD30
:102B8000EAFF7D2B000E7E23EFCF0DFD120038CD26
:102B900008F139CD09F13ACD0AF13BCD0BF111EF36
:102BA00018F00101010E9F6F0101110EBEEF17F029
:102BB00004DA156E166A176A1200C8D90E0E72EF83
:102BC00017F031CD14F032CD15F0166A176A2E5178
:102BD0001718120014502B5D15502C5916502D59F2
:102BE00017502E591200100E72EF17F01C0D20DA3C
:102BF000000E14260F0E152214C0E6FF15C0E6FFC6
:102C000012007DC1E9FF7EC1EAFF7D2B000E7E230D
:102C1000EFCF0DFD0D01010E0F6F12002751295D41
:102C2000146E2A512855156E31512F5D166E305194
:102C30003255176E12000101010E9F6F0101120E35
:102C40009DD90101060E3B6F12002D510C5D2E51D6
:102C50000D591200EECF16F0EFCF17F0120084D905
:102C60009F6B01011200F2D90101B06FF4D901018B
:102C700012002F510101A825186E0D0130510101DC
:102C8000A921196E2051185C1200010131512F5DEC
:102C9000325130591200C6EC3CF001010650395D4A
:102CA000146E07503A59156EE8341200156E145020
:102CB0000D016D5F15506E5B6B516D5D6C516E5902
:102CC0001200F9EC37F0166E060EE15E1650120097
:102CD000F9EC37F0146E060EE15E1450120015C0C8
:102CE000EBFF8AEF17F0C1DC0D0129510101A85D4E
:102CF000120020511425146E21511521156E120059
:102D000025C12BF126C12CF11200146E156A145046
:102D100012000D0114510101675D0D0115510101F2
:102D20006859120001017F510D01025D01018051BE
:102D30000D010359120001018A510D01025D0101CB
:102D40008B510D0103591200E9CF14F0EACF15F0B1
:102D5000E9CFE6FFEACFE6FF12000D016B5101015A
:102D60000C270D016C5101010D2312000101B66FFA
:102D7000B76B40C1B5F11200156E1450295D1550A6
:102D80002A591200340EE96E0D0EEA6EEE50120052
:102D9000A2C1E9FFA3C1EAFF1200A8510101615DD0
:102DA0000D01A9510101625912000A0EE66EE66A90
:102DB000A2C1E6FFA3C1E6FF120001019F6B3DEF38
:102DC00018F031510D01025D010132510D0103591D
:102DD000120040EC00F02FC131F130C132F112008D
:102DE000156E01012751145C28511558120001017C
:102DF0007F07000E805B7F518011120001018A075E
:102E0000000E8B5B8A518B111200180E6B6F020E35
:102E10006C6F01013D851200C6EC3CF006C039F133
:102E200007C03AF11200AB51AD25146EAC51AE2182
:102E3000156E1200BBC1E6FFBCC1E6FFBDC1E6FFD7
:102E4000120024EC38F0146E070EE15E14501200EC
:102E50000101010EB26F0101120040EC00F068EFB9
:102E600000F0010E1626000E17221200160EE66E56
:102E7000010EE66E12005CC15AF1C8EF01F05EC1AE
:102E80005AF1C8EF01F063C15AF1C8EF01F027C150
:102E900031F128C132F1120014500008000E15540F
:102EA00012000A0E72EF17F02DC10CF12EC10DF1B8
:102EB0001200120E72EF17F00301286F296B030145
:102EC000120025C10CF126C10DF1120029CDE9FF38
:102ED0002ACDEAFFE3EF13F004CDE9FF05CDEAFFC9
:102EE000E3EF13F0E926000EEA221200FCDE0101F6
:102EF000B66F0D012A510101A9590101B76F25DDF6
:102F000027C1B0F128C1B1F11200A0C1E9FFA1C1F0
:102F1000EAFF1200A4C1E9FFA5C1EAFF1200156E85
:102F2000010E1426000E15221200BCEC3CF006C067
:102F300033F107C034F108C035F109C036F1120091
:102F4000A8C1B6F1A9C1B7F1A5EF14F0A6C1E9FF78
:102F5000A7C1EAFF12000D016C6F12C16DFD13C114
:102F60006EFD010125EF16F034CD04F135CD05F1EC
:102F700036CD06F137CD07F1010112009E6F63EFE8
:102F800009F040C1B2F12BC1B0F12CC1B1F135EF64
:102F900013F0882389C1F8FF89230800F5CF0EFDBF
:102FA0000D011200ABDCD890153214321200F00B78
:102FB000E842E842E842E84212002D510C5D146EEE
:102FC0000D512E5512009ADC166A176A12009DDC0C
:102FD0005DEF15F02551275D166E28512655176EA9
:102FE0001200196E1850165C146E19501758120002
:102FF00085DC14500C5F15500D5B120015C0EEFF00
:1030000016C0EEFF17C0EEFF1200D7DDEECF12F1B3
:10301000EDCF13F1120029CDB6F12ACDB7F1A5EF0E
:1030200014F00101082B000E09230A230B231200C0
:10303000F3CF14F0F4CF15F01200D5DDEE50ED1003
:103040001200040EE96E010EEA6E120001012F510A
:103050000D012F251200010130510D013021120008
:10306000EECF14F0EECF15F0F5DD66EF17F00301AB
:10307000BD5190DC1B0E72EF17F00101100EBEEF78
:0230800017F047
:0E308200060E0001EC1905E1ED5103E1EE51DF
:1030900001E1EF5143E0050EEC1905E1ED5103E1CB
:1030A000EE5101E1EF5136E0040EEC1905E1ED516E
:1030B00003E1EE5101E1EF5128E0030EEC1905E1C7
:1030C000ED5103E1EE5101E1EF511BE0020EEC196D
:1030D00005E1ED5103E1EE5101E1EF510DE0010E8B
:1030E000EC1921E1ED511FE1EE511DE1EF511BE122
:1030F000010E0301A76F02D00301A76BA86BB0EF0D
:103100003AF0010E0301A96F02D00301A96BAA6B6B
:10311000BFEF3AF0010E0301AB6F02D00301AB6BBE
:10312000AC6BCEEF3AF0040E0101676F686B0101E2
:10313000B80E646F660E656F000E666F45EC20F08A
:10314000EFCF63F1CFEF02F001017E0E5D6F45EC32
:1031500020F0EFCF5CF107EF02F00201146915696E
:10316000806B010E805D2DE288EC1EF0EF6A01019C
:10317000080E496F500E0101476F486B0101466B05
:103180000101426B436B446B456B4CEC01F0E66E06
:1031900045EC20F0E552E750EF6E8051B8EC1EF0A0
:1031A00071EC1FF0F3CF00FDF4CF01FDFCEC1EF03D
:1031B00000CD11F301CD12F30CEC23F00201802BB2
:1031C000D0D712000D01AF6B010EAF5D39E2C4EC38
:1031D0001EF0EE52EF50FE0830E0C4EC1EF0EE524E
:1031E000EFCF4AF174EC01F0000914E0AFCDF0F03C
:1031F00028D896EC1FF0EF6AFF0E145D02E01DEC7C
:103200001FF0FF0E155D02E024EC1FF00101040E1B
:10321000EBEC1FF00D01C4EC1EF0EF500AE1C4EC22
:103220001EF0EE52EFCF72F1C0EC03F0F0EC1EF0A6
:1032300004E0AFCDF0F005D83ED80D01AF2BC4D7D8
:103240001200020180510001F05D01E11200020153
:103250008051B8EC1EF071EC1FF0F3CF00FDF4CFFD
:1032600001FDFCEC1EF000CD11F301CD12F30CECCE
:1032700023F00001F051B8EC1EF014C013F315C098
:1032800014F321EC23F0F3CF00FDF4CF01FD7E0E0B
:103290000301236F246B0301000E216F020E226FC6
:1032A000D1EC24F000CD13F301CD14F321EC23F085
:1032B000F0C080F212000D01010E936F96EC1FF02A
:1032C000EF500B0A01E122D3010A01E1FFD2030A08
:1032D00001E1E9D2010A01E1E4D20F0A01E15DD284
:1032E000010A01E141D2030A01E13BD2010A01E1F5
:1032F00030D2070A01E116D2010A01E182D1030AA4
:103300002BE0010A01E00CD388EC1EF0EE52EFCF67
:1033100072F1C0EC03F0F3CF8DFDF4CF8EFDF350CE
:10332000F41001E1FDD202011A0E106F020E116FAE
:1033300088EC1EF0010EEF6E1769166B9CEC1EF008
:103340000C690D690E690F69006B016B026B036BF1
:103350000101050EEBEC1FF08AEC1EF00A0E926FD5
:1033600096EC1FF0BFEC1FF0A3EC1FF00001F31C64
:1033700011E1151C0FE196EC1FF0C4EC1FF002E107
:10338000A8EC1FF0D3EC1EF002E62BEC1FF001E3DB
:10339000C7D24BD19CEC1EF02EEC20F00D01050E97
:1033A000D880F354000EF45403E2050E8D6F8E6B3B
:1033B000010E35EC1FF0FAEC1FF0030EE66EE66A24
:1033C0003F0EE66E630EE66E000EE66E1A0EE66EB9
:1033D000020EE66EDAEC37F0146E070EE15E145062
:1033E000000919E10201186B2EEC20F00101976B26
:1033F000F3CF95F1F4CF96F1DAEC1FF03F0E926F18
:1034000096EC1FF03FEC1FF00D01F3508D5DF45072
:103410008E5904E207D00201060EAAD18FCD8DFD90
:1034200090CD8EFD590ED8808D55000E8E5501E23F
:10343000C5D036EC20F0F3CF8FFDF4CF90FD1A0EFF
:10344000F324E96E020EF420EA6E58EC1FF0F4EC5F
:103450001EF002E045EC1FF0FF0E0201145D31E1A9
:10346000F4EC1EF00EE00D018FCDE9FF90CDEAFFE8
:103470008F2B000E90231A0EE926020EEA222F0E41
:10348000EF6E77EC1FF01A0E0D018F25146E020EF1
:103490009021156E14C0E6FFE66E97EC38F0166EBC
:1034A000050EE15E165077EC1FF0BEEC38F0E552E9
:1034B000E552E55207500D018F270850902345EC47
:1034C0001FF01A0E0D018F25946F020E9021956F3B
:1034D000010E945F000E955B1A0E941902E1020E24
:1034E000951909E094CDE9FF95CDEAFFEF502E083C
:1034F00002E09407EFD7942B000E95230201196B7D
:103500000B0EE76E1919E8AE02D0E73402D0E7508F
:10351000195D1CE219C2E9FFEA6AE9BEEA68E6EC55
:103520001EF0800EE926000EEA22EECF67FFEECFF6
:1035300068FFEFCF69FF94CD65FF95CD66FFF3EC93
:103540002FF0000903E00201192BDAD7FF0E020168
:10355000145D18E014C2E1F2F8EC2AF0F350020B0B
:1035600011E014C2ECF2FEEC2BF0F3CFC9F2F4CF71
:10357000CAF2010E0201C927000ECA23D8EC28F0B6
:103580000201156F2EEC20F0F350F4102AE0020136
:10359000010E166F0101910E746F0D0E756F45ECE3
:1035A00020F0EFCF73F1E1EC03F00D018D07000E79
:1035B0008E5B620E8D5D000E8E5903E30201040ED8
:1035C000D7D036EC20F0F35002011027F45011232D
:1035D00010C2E9FF11C2EAFF102B000E1123260EC4
:1035E000EF6E32EC20F0010EF3240101796F000E32
:1035F000F4207A6F01010AEC20F096EC1FF0020E25
:10360000EF6E32EC20F00D01F31C13E18E1D11E181
:1036100096EC1FF0C4EC1FF002E1A8EC1FF0C3DB36
:1036200002E62BEC1FF001E37BD10EEC20F00B0E39
:10363000A2D082DB0D01010E8D190DE18E510BE13F
:10364000020E0101796F7A6B01010AEC20F096EC11
:103650001FF0030E90D00101976B8DCD95F18ECDAB
:1036600096F1DAEC1FF03A0E926F96EC1FF03FECF9
:103670001FF0020E0D018F27000E9023936B100E8A
:10368000D8808F55000E905502E2010E47D08FCDA5
:1036900079F190CD7AF10101960E776F0D0E786F6A
:1036A00042EC20F0CBEC1FF0960EE9260D0EEA223C
:1036B000EF6A0D018F518D5F90518E5B926B030EFF
:1036C000925D26E29251030DF3CFE9FFF4CFEAFFBA
:1036D000E30EE926000EEA22EECFE6FFEECFE6FF8C
:1036E000EFCFE6FF960EE66E0D0EE66E81EC38F03B
:1036F000146E050EE15E1450000907E192CDF1F061
:10370000CDD90D01010E936F03D00D01922BD7D7A8
:10371000935102E032EC20F0010E0D01A6DB0AEC21
:1037200020F06FD710C2E9FF11C2EAFFC1DBF3CF6F
:1037300010F2F4CF11F296EC1FF0040EEF6E16515A
:1037400003E1E6DA050EEF6E0D01936B0201166BD5
:10375000E7D013EC3AF0020801E1E2D0E7DB050E16
:10376000EF6ED6DA060EEF6EFF0E145D06E1030E65
:10377000186FCEDA070EEF6E91D0006B016B026B03
:10378000036BFF0E155D05E10469056906690769AC
:1037900001D085DBCBDB070EEF6E0101020EEBECF7
:1037A0001FF018C2E9FFEA6AE9BEEA680FDBC80E3B
:1037B000E926000E00EC20F0070E0201185D0CE176
:1037C00016EC20F0220E6D6F630E6E6F000E2AEC69
:1037D00020F016EC20F0F8DB0201185105E0180586
:1037E00003E096DA0B0E90D00B0E195D14E0010188
:1037F000130E6D6F630E6E6F000E2AEC20F019C26F
:10380000E9FFEA6AE9BEEA68E1DAA40EE926000EF9
:10381000F7DB0101D9DB14C2E1F2F8EC2AF0F35036
:10382000010B08E00101FA0E6D6F620E6E6F000E63
:103830002AEC20F00101EA0E6D6F620E6E6F000E31
:103840002AEC20F0020118050CE0E868041908E1F0
:10385000E868051905E1E868061902E1E868071952
:1038600007E00101E10E6D6F620E6E6F000E0CD06D
:103870000101D80E6D6F620E6E6F000EE8DBD40E84
:103880006D6F620E6E6F000EE2DB9EDB0201165161
:1038900003E03EDA080E01D0F0DBEF6E0D01936B12
:1038A0003FD0EBDBEF6E0D01936B3FD8000907E0D3
:1038B000C4DA2EDA0B0EEF6E0D01010E936FC4DB2E
:1038C0008FDA2EE10D01010E936F2AD00D01010E4A
:1038D000936FBADB38DB100EF35C000EF45820E374
:1038E00008C2ECF009C2EDF00AC2EEF00BC2EFF034
:1038F00041EC18F002010C510D110E110F1110E1E5
:103900000D01936B13DB090EEF6E0AD0FF0E145DF1
:1039100001E093DAFF0E155D01E096DA7FDBEF6AD6
:103920000D01935101E1C7D412008EDBF3CF02FDEC
:10393000F4CF03FDF3CF18F0F4CF19F01A6A1B6A25
:10394000C4DA0201045D1C6EEE5005591D6EEE5086
:1039500006591E6EEE5007591F6E1C50F35C1D5029
:10396000F4581E501A581F501B5807E202CD14F08D
:1039700003CD15F0166A176A0CD0A7DA045D146E31
:10398000EE500559156EEE500659166EEE50075959
:10399000176E14C000FD15C001FD0D011450020189
:1039A00000270D01155002010123000E02230323FD
:1039B0000D01000ED8800055000E01552FE2400E7B
:1039C000005D000E015905E200CDD2F201CDD3F227
:1039D00004D00201400ED26FD36B0201050ED06FEE
:1039E0000D0ED16F14C2CFF276EC29F0F3CF02FDA9
:1039F000F4CF03FD0D01F350F41001E1010C02CDF1
:103A000061F103CD62F10101050E5F6F0D0E16DB52
:103A10000D010251005F0351015BCAD756DA020162
:103A200004193BE1EE50051938E1EE50061935E175
:103A3000EE50071932E131E16BD90A0EEF6E0C6BD3
:103A40000D6B0E6B0F6B0201CD6BCE6B14C2CCF203
:103A500024EC29F00201040ECD6F0D0ECE6F14C2BE
:103A6000CCF224EC29F0000905E04FDA7E0E0D01BE
:103A7000045DF0E14ADA0201080ED56F020ED66F3E
:103A800015C2D4F2E5EC29F00ADA000906E10201D8
:103A90000469056906690769D7D9000C1200F2C0EC
:103AA000E6FFF3C0E6FF8BDAF3CF04FDF4CF05FDAC
:103AB000F2C002FDF3C003FDF2C000FDF3C001FD42
:103AC0000D01045105113FE006DA000E0123EFCF8E
:103AD00006FD0407055B3D0E065D03E0260E065D50
:103AE00003E154D9EF6AECD72B0E065D03E14ED902
:103AF000200E23D0250E065D22E1020E045D000E8D
:103B0000055903E2046B056BDBD7E5D9000E0123F1
:103B1000EFCF08FDE0D90123EFCF07FD0407055BD8
:103B20000407055B07CD61FF08CD62FFBBEC2FF0FA
:103B3000E66E0D012BD9E552E750EF6EC1D726D9BD
:103B400006CDEFFFBDD722D9EF6A02CDE9FF03CD45
:103B5000EAFFEF6A02CDF3FF03CDF4FF1200F4C0D9
:103B6000E9FFF5C0EAFFEF501CE0D6D9F6C0E6FF4A
:103B7000F7C0E6FF61EC38F0E552E552E552E55258
:103B800000090CE1F6C0E6FFF7C0E6FF18DA000115
:103B9000F451F324146EF551F42045D1E2D9E1D962
:103BA000DED7F36AF46A1200F8C0E9FFF9C0EAFF51
:103BB000EF5024E02CD907C014F008C015F009C05C
:103BC00016F0142A000E1522162214C0E6FF15C0A6
:103BD000E6FFE9D9A6D9DAEC37F0176E070EE15EF9
:103BE0001750000908E113D90001F8510724146E99
:103BF000F951082018D1BCD9BBD9D6D7F36AF46AD9
:103C0000120002010C510D110E110F1117E1FDC030
:103C1000C6F2FEC0C7F2FFC0C8F225EC28F00D01C5
:103C2000446FFF0E445D01E1120044CDECF2FEEC66
:103C30002BF0F3CF0CF2F4CF0DF21AD00CC2C9F274
:103C40000DC2CAF2D8EC28F00D01446FFF0E445D9E
:103C500001E112000201020EDC6F0EC2D8F20FC2A7
:103C6000D9F20201DA6BDB6B44CDD7F2F9EC29F023
:103C7000EBD9F3CF00FDF4CF01FD0D01000ED8808C
:103C80000055000E015538E2400E005D000E01594E
:103C900005E200CDD2F201CDD3F204D00201400EF4
:103CA000D26FD36B0201040ED06F0D0ED16F44CDD5
:103CB000CFF276EC29F0F3CF02FDF4CF03FD0D0136
:103CC000F350F4100AE144CDCBF219EC29F00201D3
:103CD0000C6B0D6B0E6B0F6B120002CD61F103CDFF
:103CE00062F10101040E5F6F0D0EA8D90D010251A2
:103CF000005F0351015BC1D744CDEBF2CDEC2BF05B
:103D000006C00EF207C00FF244CDCBF219EF29F036
:103D100080510FD10101976B0101956B966BDAEF22
:103D20001FF0EE52EFCF6CF168EF03F028D9F3CF1C
:103D30008DFDF4CF8EFD1200BCEC3CF006C008F205
:103D400007C009F208C00AF209C00BF2950E020181
:103D50000827BA0E09230A0E0A23000E0B231200AD
:103D60002ED9F1D8010E1426000E1522145012007F
:103D70007E0DE9D8166A176A820E14261F0E1522C8
:103D8000000E162217221200AF51D3D002CDE9FF48
:103D900003CDEAFF022B000E03231200EE52EFCFF9
:103DA00076F11DEF04F0BCEC3CF002010851065C1A
:103DB000146E09510758156E0A510858166E0B51AA
:103DC0000958176EE834000E17181200030EEA02A5
:103DD000F3CFEAFFE902F3CFE9FFF450EA2612003D
:103DE000B2D8F350F4101200D6D81A0EE926020EFB
:103DF000EA22EF502F0812007E0E0301286F296B74
:103E00000301000E266F020E276F1BEF25F0CBD8A3
:103E1000BEEC38F0E552E552E5521200EE52EFCF1B
:103E20005BF1D6EF01F0156E010E1426000E15227F
:103E300014C0F3FF15C0F4FF120014C2CBF219EC4A
:103E400029F002011469120015C2CBF219EC29F015
:103E5000020115691200D880000E1454000E15548A
:103E6000000E1654000E175412008D250101796FB3
:103E7000000E0D018E2101017A6F010112007FD821
:103E8000F3CF8FFDF4CF90FD120002011B0EC46F23
:103E9000020EC56F6BEC27F00201146F12000201D5
:103EA000040ED56F020ED66F15C2D4F2E5EF29F0DD
:103EB000EF6A00011A0EF26F020EF36F4FEF1DF062
:103EC000EE52EFCFAAF156EF12F0000EE96E020E9D
:103ED000EA6EEE50120000CDE9FF01CDEAFF002BA3
:103EE000120014C011F315C012F30CEF23F0350EBD
:103EF000E66E630EE66E000EE66E1200EE52EFCF37
:103F000069F14DEC03F0010112000201002B000EDB
:103F10000123022303231200F4C0E6FFF5C0E6FFED
:103F20001200F8C0E6FFF9C0E6FF1200020188EFB8
:103F30001EF0E96EEA6AD890E936EA367E0EE92686
:103F4000020EEA221200F3CF14F0F4CF15F01200A3
:103F50000201040E186FDCDE070EEF6E0D01936B8D
:103F60001200DADFFDDE0001F4271550F523120000
:103F7000D8DFF6DE0001F8271550F9231200EE52C3
:103F8000EFCF91F10DEF07F0EE52EFCF7BF19EEC0A
:103F900004F0F0EF1EF08FCDE9FF90CDEAFFE906C7
:103FA000000EEA5A1200FAC0E6FFFBC0E6FFFCC0B2
:103FB000E6FF12000101936B946B01011200B0EC5B
:103FC00038F0E552E5521200140E6D6F000E6E6F60
:103FD000000E2AEF20F0AF6F0101AD6BAE6B010E4A
:103FE0000101AB6FAC6BA2DF60EF1FF0926F9EDF41
:103FF00096EF1EF01A0E776F020E786F42EF20F0E8
:10400000EA22EECF6DF1EECF6EF1EFCF6FF18EDFE2
:1040100091EF1EF0776B786B42EF20F079DEEE5275
:10402000EFCF4CF186EC01F096EF1FF001011A0E74
:104030006A6F020E6B6F7ADF7EEF1FF0606F25D81C
:10404000EFCF5EF154EF02F071DF0EEF1FF002D8F8
:10405000010112006F6F6ADF91EF1EF05BDE200E30
:10406000F6EF1FF057DE0A0EF6EF1FF08DCD79F157
:104070008ECD7AF10101FAEF1FF00101A5DF56DFC5
:10408000090E120053DFCEEF1EF050DFEE52120089
:10409000898692969496949A9488200EC66E9E96DF
:1040A000C78CC79E53EC25F027EC27F0E8CF05FD21
:1040B000080E0D010515F6E1051D010BF3E10301E5
:1040C000010E046F006B016B0301336B0301080EDB
:1040D0004AEC27F0336B0301090E1DEC27F00C0EA0
:1040E00064EC26F0BAEC26F00D0E1DEC27F00A0E5B
:1040F00064EC26F0BAEC26F00B0E4AEC27F0480EE2
:10410000336F2BEC27F0BAEC26F0050E4AEC27F0C3
:10411000480E4DEC27F00301256B0CEC25F0030154
:104120003B6B020E3C6F2CEC26F003010D0E336F3F
:1041300086EC26F00301320E336F03EC27F0030107
:10414000120E336F2BEC27F00301400E336F15EC8A
:1041500027F003013F0E336F0301090E4AEC27F0ED
:10416000120E336F0301060E4AEC27F00C0E336F6C
:104170000301070E4AEC27F0EE0E336F03010A0E1F
:104180004AEC27F0050E336F03010B0E64EC26F0AA
:104190000301040E9FEC26F0EDC133F32BEC27F066
:1041A000EEC133F30301050E64EC26F0EFC133F3E7
:1041B00003EC27F0F0C133F315EC27F0F1C133F332
:1041C00086EC26F0F2C133F3FFEC26F00301336BEB
:1041D0002FEC27F00301120E60EC26F0E8CF05F378
:1041E0000301396B010E3A6F0301100E386F16ECA4
:1041F00026F00301720E396F340E3A6F0301140E6C
:10420000386F16EC26F00301396B3A6B0301386BFB
:1042100016EC26F0A2EC26F00301040E376FB8EF7F
:1042200026F00301010E316FB4EC25F0F350040BBE
:1042300001E0010E1200DDEC26F0080B080A01E097
:10424000010E12000301045101E01200010E046F7F
:1042500000C325FD01C326FD0D01255F000E265B71
:1042600025CD14F026CD15F067EC26F004E2470EBC
:10427000256F160E266F0301400EE3EC26F025CDC8
:1042800033F303010C0E64EC26F026CD33F3030167
:104290000D0E64EF26F0D8EC26F00301190E60EC49
:1042A00026F0E8CF6FFD0E0EE9EC26F00E0E60EC66
:1042B00026F0E8CF71FD03010F0E60EC26F0E8CF89
:1042C00072FDD8EC26F00301190E60EC26F00D010A
:1042D0006F510001145CE1E10C0EE9EC26F00C0ECC
:1042E00060EC26F0E8CF6FFD03010D0E60EC26F0C8
:1042F000E8CF70FD0D0171516F5D725170591BE275
:10430000470E186E160E196E1A6A1B6A6F51715D90
:104310001C6E725170551D6E1E6A1F6A1C50185C0F
:10432000146E1D501958156E1E501A58166E1F50D7
:104330001B58176E14D06F51711908E17051721922
:1043400005E1470EF36E160EF46E120071516F5DAB
:10435000146E70517255156E1406000E155A14C065
:10436000F3FF15C0F4FF12000301190E3B6F010E9D
:104370003C6F2CEC26F00301190E2F6FC9DB146E75
:1043800014C014FD03013B6B3C6B2CEC26F00D01BB
:10439000145102E1000E8ED00301045103E152DFFB
:1043A000000E88D000C302F301C303F302C333F34A
:1043B0000301326BDAEC25F003C333F30301010E82
:1043C000326FDAEC25F0140E0301236F246B030126
:1043D000000E216F0D0E226FE4DA12CD6AFF13CDAD
:1043E0006BFF32EC30F0F3CF12FDF4CF13FD00CDB4
:1043F00014F001CD15F0166A176AD880470E1454D0
:10440000160E1554000E1654000E17541BE30D0122
:104410000D010051010B16E10D010D010551800B3D
:1044200011E10D010D010451100B0CE10D01EE0E17
:10443000D8800255050E035505E30D010D01045109
:10444000800B01E1FF0000CD00F301CD01F3060E6A
:10445000E66EE66A0C0EE66E0D0EE66E06C3E9FF2A
:1044600007C3EAFFE9CF14F0EACF15F014C0E6FF66
:1044700015C0E6FFF9EC37F0166E060EE15E165039
:1044800008C3E9FF09C3EAFFEF68080E0D01135DD9
:104490000DE10D01125104E0060E0D01125D06E161
:1044A00008C3E9FF09C3EAFF12CDEFFF0301046B64
:1044B000010E00D012000301490E4DEC27F0560EFC
:1044C00003010D27160E0E230DC333F30301060E51
:1044D00064EC26F00EC333F30301070E64EC26F000
:1044E000060E0301286F296B0AC326F30BC327F3BB
:1044F000A2DA060E0301286F296B0301ED0E266F69
:10450000010E276F98DA0301080E256F85DA030183
:104510000C5102E1000E01D0060E0301256F0CEFD5
:1045200025F073EC26F0050E0301055D03E0070E90
:10453000055D58E10D016F6B706B19EC27F00A0EE9
:104540000001141409E10D016F2B000E7023E80E19
:104550006F5D030E7059F1E319EC27F00001E8508C
:10456000020B06E10D01E80E6F5D030E70593AE390
:10457000BFEC26F0CFDBE8CF71FD07EC27F0E8CFEA
:1045800072FD0301060E9CDBE8CF73FD0301070EED
:1045900097DBE8CF74FD0D01732B000E742342EC02
:1045A00027F07C6B100E7C5D16E219EC27F0000101
:1045B000E850020B10E00D017851200B0CE093DB6A
:1045C00019EC27F00A0E00011414FAE0D8DB42ECD3
:1045D00027F07C2BE7D771CD33F398DB72CD33F323
:1045E00010EC27F01200CFDB0F250D013F6F1550A7
:1045F000030110210D01406F3FCD14F0156E67DBF4
:1046000004E2480E3F5F160E405B3FCD33F37EDB86
:1046100040CD33F3FFEF26F033EC27F0E8CF6FFD0A
:1046200037EC27F0E8CF70FD11C333F303EC27F02C
:1046300012C333F315EC27F06FCDF3FF70CDF4FF09
:10464000120068DBE8CF6FFD07EC27F0E8CF70FDC4
:1046500013C333F35BDB14C333F3D1DB6FCDF3FF51
:1046600070CDF4FF12008FDB15250D01166F15506C
:10467000030116210D01176F16CD14F0156E27DBFF
:1046800004E2480E165F160E175B44DBE8CF18FDF8
:10469000BEDBE8CF19FD16CD33F338DB17CD33F38E
:1046A000AEDB17C319F318C31AF30FD8F3CF16FDF7
:1046B000F4CF17FD18CD33F329DB19CD33F39FDB8E
:1046C00016CDF3FF17CDF4FF12000D01716B726B65
:1046D000736B746B1FDBE8CF6FFD99DBE8CF70FD68
:1046E000030119511A1151E0140ED8801955000E0A
:1046F0001A5505E20D01140E756F766B04D019C3BF
:1047000075FD1AC376FD75CD23F376CD24F3030131
:10471000770E216F0D0E226F44D90D0175510301E3
:10472000195F0D01765103011A5B0D0175A10AD0C5
:10473000770E7525E96E0D0E7621EA6EEF6A752B00
:10474000000E7623770E8B6F0D0E8C6F75517611E0
:10475000C7E08BCDE9FF8CCDEAFF020E8B27000E60
:104760008C23EECF14F0EFCF15F0000114500D01A3
:104770007127000115500D017223000E732374235D
:10478000020E755F000E765BE1D76FCD33F3BEDAB4
:1047900070CD33F334DB71CD14F072CD15F0166AA1
:1047A000176A73CD18F074CD19F01A6A1B6A145089
:1047B00018240D01716F15501920726F16501A20B0
:1047C000736F17501B20746F7351712774517223CC
:1047D00071CD14F072CD15F0141E151E14C0F3FF28
:1047E00015C0F4FF12000D01736B746B03011CAF55
:1047F00009D00D01010E736F36DBE8CF1BF337DBF9
:10480000E8CF1CF303011EAF09D00D01010E746F38
:1048100081DAE8CF1DF3FBDAE8CF1EF30301010EC6
:10482000D8801F55000E205540E30D01745106E15C
:1048300071DAE8CF6FFDEBDAE8CF70FD0D0173514F
:1048400006E111DBE8CF71FD12DBE8CF72FD1DC37D
:1048500033F35CDA1EC333F3D2DA1BC333F3D3DA98
:104860001CC333F30301030E326FA4D903011FC32A
:1048700014F020C315F01F07000E205B1450151014
:1048800005E07CD80301256FC7D8F0D70D0174511E
:1048900006E16FCD33F33ADA70CD33F3C1DA0D01AF
:1048A000735165E100DB15EF27F00D0173510FE047
:1048B00003011B511F250D01716F03011C512021A4
:1048C0000D01726FF0DA0301030E326F73D987DACC
:1048D0001406000E155A145003011F2715502023EB
:1048E00003011F0EEDD9000114BAFAD71DC333F32B
:1048F0000301100EE9D91EC333F30301110EE4D9ED
:104900001BC333F3B8DA1CC333F3A9DA68DADFD98F
:1049100007E305DA05E2480E03011F5F160E205B70
:104920001FC333F30301120ECFD920C333F30301A6
:10493000130ECAD90301100E5CDA0301200E376F83
:104940006ADA0D01745113E003011F2B000E2023BE
:1049500046DABDD906E3E3D904E2480E1F5F160E1E
:10496000205B1FC333F3D2D920C333F359DA1200CB
:1049700024DA200B200A01E0010E120089969E968F
:104980003A0EC96E9EA6FED7C9CF75FD9E96C96A1E
:104990009EA6FED79E96C9CF75FD89860D017551DD
:1049A000120089969E963A0EC96E0D01AC6BAD6BE6
:1049B00003012151221103E02107000E225B9EA674
:1049C000FED7C9CFAEFD9E96030123510D01AC5D0C
:1049D000030124510D01AD5919E2C96AAC2B000E37
:1049E000AD230301215122110CE0212B000E2223C3
:1049F0009EA6FED7C95021C3E9FF22C3EAFFEF6E8E
:104A0000E2D79EA6FED7C9CFAEFDDDD78986ACCD55
:104A1000F3FFADCDF4FF1200E7D99EA6FED7C9CFB4
:104A200083FD9E9625C3C9FF9EA6FED7C9CF83FDF1
:104A30009E9689861200D8D99EA6FED7C9CF83FD3F
:104A40009E960301285129110EE026C3E9FF27C3D2
:104A5000EAFFEF50C96E262B000E27232807295B9B
:104A60009EA6FED7EBD789861200BED99EA6FED79A
:104A7000C9CF00FD9E9603012D512E1112E02AC3CD
:104A8000F6FF2BC3F7FF2CC3F8FF0800F550C96EE3
:104A90002A2B000E2B232C232D072E5B9EA6FED740
:104AA000E7D78986120078D9010E0D01016F026BDC
:104AB0000D0101CD14F002CD15F00107000E025BCF
:104AC0001450151006E0040EE66EA0EC3DF0E55221
:104AD000EFD789969E96C9689EA6FED7C9CF00FDDE
:104AE0009E968986010E0D01036F046B0D0103CDA7
:104AF00014F004CD15F00307000E045B14501510DC
:104B000006E0040EE66EA0EC3DF0E552EFD7120091
:104B100089969E962FC3C9FF9EA6FED7C9CFACFD2E
:104B20009E96C96A9EA6FED7C9CFACFD9E96898681
:104B30000D01AC51120089969E9630C3C9FF9EA606
:104B4000FED7C9CF02FD9E96C96A9EA6FED7C9CFE1
:104B500002FD9E96C96A9EA6FED7C9CF02FD9E960B
:104B600089860D0102511200FED831C333F383D977
:104B70000301010E336F0301120E64D903010A0E03
:104B800013D9000114B0FAD7EED80301336B030137
:104B9000120E9AD80301180E07D9E8CF00FD0301C1
:104BA000190E02D9E8CF01FDCDD800CDF3FF01CD1C
:104BB000F4FF120089969E96400E03013211C96ED1
:104BC0009EA6FED7C9CFACFD9E9633C3C9FF9EA655
:104BD000FED7C9CFACFD9E968986120089969E9617
:104BE000A00E03013411C96E9EA6FED7C9CF7DFD6C
:104BF0009E9635C3C9FF9EA6FED7C9CF7DFD9E9662
:104C00008986120089969E96800E03013611C96E20
:104C10009EA6FED7C9CF7DFD9E9637C3C9FF9EA62F
:104C2000FED7C9CF7DFD9E96898612009CD838C3D9
:104C300033F321D939C333F30301160E45D83AC3F0
:104C400033F30301170EFED803010A0EADD800019D
:104C500014B0FAD7A2EF26F00301030ECAD83CC362
:104C600037F386D00301040EC4D8F1D8000114B480
:104C7000FCD703011F0E24D8000114B6FAD7030194
:104C8000200EE3EF26F088D8E2D8000114A0FCD76C
:104C90000301040E376F6CD00301150E50D83DC3CD
:104CA00033F3DDD8A2EF26F00301150E48D8030137
:104CB000150E06D8E8CF00FD45D80D0100511200B1
:104CC0002F6F26DF146E1200326FDAEF25F0166AAE
:104CD000176AD880470E1454160E1554000E165439
:104CE000000E175412000301800E376F94D8030191
:104CF000800E7FD803010A0E356F03011C0E346F3E
:104D00006DDF0301080E376F0BEF27F00301326BE5
:104D1000DAEF25F003012F6BFBDE146E12001FC3C8
:104D200018F020C319F01A6A1B6AD880470E18546D
:104D3000160E1954000E1A54000E1B5412003B6F2D
:104D4000030E9DD003013B6B3C6B2CEF26F0070E4E
:104D50000301236F246B0301750E216F0D0E226F6B
:104D600020DE0D0112000301140E3B6F020E87D0EE
:104D70000BEF27F00301160E336F0301120003013E
:104D8000080EF9EF26F0140E0301156A0225146EC1
:104D900003511522145012000301200E356F030138
:104DA0001E0E346FEEEF25F0306FC5DE146E12006C
:104DB0000301190E3B6F010E62D003011F0E2F6F0E
:104DC000A7DEE8501200376F03011E0E366F02EFA8
:104DD00026F003013B6F3C6B3FDF030112001DC354
:104DE00014F01EC315F0120089969E967A0EC96EB5
:104DF0001200356F03011F0E346FEEEF25F0030133
:104E0000010E64EF26F00301020E64EF26F00301A9
:104E1000010E60EF26F003011F0E366F02EF26F041
:104E20000301010E326FDAEF25F00301030E64EF88
:104E300026F003011C0E60EF26F02CD8470E336FCE
:104E40000301120041DF03010A0E9FEF26F0030168
:104E50001D0E60EF26F00301040E64EF26F003013F
:104E6000150E64EF26F00301020E60EF26F0030139
:104E7000030E60EF26F00301140E64EF26F03C6F82
:104E80002CEF26F073CD33F341DF74CD33F3B7DF6E
:104E9000A7EF26F019DF03011200336FB4DF6ADFDA
:104EA000030E64EF26F071CD33F3ADDF72CD33F333
:024EB0001200EE
:0E4EB2000D01010E006F00CD14F03DEC2CF050
:104EC00005E300512EEC2DF0002BF6D707EC2CF06B
:104ED0000201A96B12000D01176BC4C2E9FFC5C224
:104EE000EAFFEF5003E00201A90501E1FF0C0D010B
:104EF000016B026BC4C215FDC5C216FDA3EC2CF0FC
:104F000012E0A3EC2CF0156AE8500127155002239B
:104F1000010ED89001370237E806FBE10D01152B91
:104F2000000E1623EBD7010E006F00CD14F03DEC00
:104F30002CF00FE300510FEC2DF009E1E868EE18BA
:104F400006E1E868EE1803E1E868EE1802E0002BDD
:104F5000ECD700CD14F0F9EC2CF007E1155005E189
:104F6000165003E1175001E1FF0C036B046B0201C3
:104F7000C2510D01035D0201C3510D01045964E2E8
:104F80000351070B0EE1020E086E096A03CD0DF006
:104F900004CD0EF070EC2CF0050ED06F0D0EA9ECC8
:104FA0002CF0070E0D010315E96EEA6A010ED89088
:104FB000E936EA36E806FBE1050EE9260D0EFFECC0
:104FC0002CF00D01015114183BE10251151838E184
:104FD00003CDDDF204CDDEF29BDA0D01005133EC9E
:104FE0002CF0CCEC2CF0005141EC2DF0C4C215FD9E
:104FF000C5C216FDA3EC2CF00BE0BAEC2CF0A3EC30
:105000002CF00D01175D04E1152B000E1623F2D7CD
:10501000BAEC2CF00D01175113E1A3EC2CF010E1C8
:10502000005139EC2DF0005147EC2DF0005123ECEC
:105030002DF0EA2203CDEEFF04CDEDFF005112006A
:10504000032B000E042393D7FF0CC6C2F6FFC7C282
:10505000F7FFC8C2F8FF0800F55003E00201A905F8
:1050600001E1FF0C0D01466B476B05EC2DF059EC8F
:105070002CF013E059EC2CF0156AE8504627155037
:105080004723010ED89046374737E806FBE10D016C
:105090005A2B000E5B235C23EAD7010E456F45CDEA
:1050A00014F0EBDB0FE345510FEC2DF009E1E8685C
:1050B000EE1806E1E868EE1803E1E868EE1802E091
:1050C000452BEDD745CD14F0F9EC2CF007E1155048
:1050D00005E1165003E1175001E1FF0C486B496BE5
:1050E0000201C2510D01485D0201C3510D01495930
:1050F0005EE24851070B0DE1020E086E096A48CDC9
:105100000DF049CD0EF0ECDB4A0ED06F0D0EA9EC80
:105110002CF0070E0D014815E96EEA6A010ED890D1
:10512000E936EA36E806FBE14A0EE9260D0EFFEC09
:105130002CF00D014651141836E14751151833E192
:1051400048CDDDF249CDDEF2E3D90D0145518BDBCF
:10515000CCEC2CF0455141EC2DF005EC2DF0A9DB09
:105160000BE0C3EC2CF0A5DB0D015D5D05E15A2BD6
:10517000000E5B235C23F3D7C3EC2CF00D015D51D3
:1051800012E197DB10E1455139EC2DF0455147EC28
:105190002DF0455123EC2DF0EA2248CDEEFF49CD0C
:1051A000EDFF45511200482B000E492399D7FF0C03
:1051B0000201A90505E0C951C25DCA51C35901E206
:1051C000FF0C0D01010E456F45CD14F056DB0FE3CA
:1051D00045510FEC2DF009E1E868EE1806E1E868AA
:1051E000EE1803E1E868EE1802E0452BEDD745CD57
:1051F00014F0F9EC2CF007E1155005E1165003E12D
:10520000175001E1FF0CC9C2DDF2CAC2DEF280D93B
:105210000D01455123EC2DF0EA22C9C2EEFFCAC2AE
:10522000EDFF455139EC2DF0455147EC2DF045513E
:1052300012000201CB5107E0CBC214F01EDB03E3E6
:10524000CB512EEC2DF01200CCC214F016DB01E293
:10525000000C0201CC51E3DB08E1E868EE1805E13F
:10526000E868EE1802E1E868EE1808E0CC51D4DBFB
:105270009CDB145015101610171001E1000CCD51D5
:10528000CE1126E00D01C40E5E6F660E5F6F000E3C
:10529000606F616B0201CC51E6DAEE500D015E25C4
:1052A000146EEE505F21156EEE506021166EEE50BA
:1052B0006121176E14C0F6FF15C0F7FF16C0F8FF86
:1052C0000800F550CDC2E9FFCEC2EAFFEF6E020141
:1052D000CC51C9DAEE2A000EEE22EE22EE22CC519B
:1052E0009BDBEE06EE5AEE5AEE5A010CCFC214F0DA
:1052F000C4DA1BE321DB0201CF518EDB5FDB06E268
:10530000CF518ADBEECFD2F2EDCFD3F2CF5187DB94
:1053100008E1E868EE1805E1E868EE1802E1E868DF
:10532000EE1803E0D251D31103E1F36AF46A1200DC
:10533000D051D11102E100DB2ED00D01C40E5E6F01
:10534000660E5F6F000E606F616BD2C2E6FFD3C264
:10535000E6FF0201CF5187DAEE500D015E25146E93
:10536000EE505F21156EEE506021166EEE506121F9
:10537000176E14C0E6FF15C0E6FF16C0E6FFD0C2E8
:10538000E6FFD1C2E6FF24EC38F0186E070EE15EAE
:105390001850D2DA0201CF5166DA1450EE261550B9
:1053A000EE221650EE221750EE22C6DACF5134DB31
:1053B0001450EE5E1550EE5A1650EE5A1750EE5A33
:1053C000D2C2F3FFD3C2F4FF1200040E0201D26F67
:1053D000D36BD5C2D0F2D6C2D1F2D4C2CFF286DF1F
:1053E000F4CF15F0040EF31801E1155001E0000CA4
:1053F000010CD7C214F041DA01E2000C0201D751CE
:105400000EDB0AE1E868EE1807E1E868EE1804E14F
:10541000E868EE1801E1000CDC51010A5BE0020AC9
:105420003DE0010A2AE0020A72E14CDA01E2000CD6
:10543000D7C2E4F22ED906500201D825146E0750C7
:10544000D921156E0850DA21166E0950DB210CDBCC
:10545000D80EE96E020EEA6EEE500D01455D146E37
:10546000EE504659156EEE504759166EEE5048599B
:10547000176E020114DB57DA010C11DBD851EE5C18
:10548000D951EE58DA51EE58DB51EE5801E2000CDA
:10549000D751E9D99CDA03DBA3DA010CD7C2E4F2D5
:1054A000F8D8C4DA0650EE24146E0750EE20156EBC
:1054B0000850EE20166E0950EE20176E0201D751EB
:1054C000D2D97CDA01E2000CD751CDD989DAE7DAFA
:1054D0007EDA010CF7D901E2000CD7C2E5F2FBD865
:1054E0000201D851065C146ED9510758156EDA5175
:1054F0000858166EDB510958B7DAD1DAD8C2EEFF78
:10550000D9C2EEFFDAC2EEFFDBC2EEFF010C000CE7
:105510000201C051DD1902E1C151DE192EE0C25174
:10552000DD5DC351DE5901E31200160EA5DAC2C2D9
:1055300014F0C3C215F0010ED89014361536E806E3
:10554000FBE1080E1426000E1522160E086E096ADD
:10555000DDC20DF0DEC20EF03AEC3CF01450062431
:105560000201816F15500720826F836B846B160ECA
:105570006FDADDC2C0F2DEC2C1F21200DFC214F087
:105580007CD90DE30201DF514ADA0AE1E868EE183E
:1055900007E1E868EE1804E1E868EE1801E1DED101
:1055A000DF5141DAB6C206F0B7C207F0B8C208F060
:1055B000B9C209F01200E0C214F05FD90DE3020194
:1055C000E0512DDA0AE1E868EE1807E1E868EE1824
:1055D00004E1E868EE1801E1C1D1E05124DABAC271
:1055E00006F0BBC207F0BCC208F0BDC209F0120051
:1055F000E1C214F042D90DE30201E15110DA0CE1ED
:10560000E868EE1809E1E868EE1806E1E868EE18C7
:1056100003E1F36AF46A1200E15105DABEC2F3FF56
:10562000BFC2F4FF1200E2C214F027D90DE3020159
:10563000E251F5D90AE1E868EE1807E1E868EE18EA
:1056400004E1E868EE1801E189D1E251ECD9B2C277
:1056500006F0B3C207F0B4C208F0B5C209F01200F8
:10566000E3C214F00AD90DE30201E351D8D90AE1EB
:10567000E868EE1807E1E868EE1804E1E868EE185B
:1056800001E16CD1E351C8D990D96DD917C009F0A7
:105690001200E4C214F0F1D801E260D10201E45139
:1056A000BED90EE1E868EE180BE1E868EE1808E1F3
:1056B000E868EE1805E106680768086809681200DE
:1056C000E451B1D9AEC206F0AFC207F0B0C208F0E3
:1056D000B1C209F01200E5C214F0CFD80DE3020107
:1056E000E5519DD90EE1E868EE180BE1E868EE1887
:1056F00008E1E868EE1805E10668076808680968C7
:105700001200E55190D9B20EE96E020EEA6E020166
:10571000AE51EE24146EAF51EE20156EB051EE2056
:10572000166EB151EE20176E1ED9096E1200E6C238
:1057300014F0A3D801E2000C0201E65170D90AE18D
:10574000E868EE1807E1E868EE1804E1E868EE188A
:1057500001E1000CE65167D9AAC216FDABC217FDE4
:10576000ACC218FDADC219FDAAC281F2ABC282F271
:10577000ACC283F2ADC284F202018569866B876B8D
:10578000886BE9C2D2F2EAC2D3F2E7C2D0F2E8C231
:10579000D1F20201CF6BAADD010C0201EB5163D8FB
:1057A000EECF18F0EECF19F0EECF1AF0EFCF1BF0DE
:1057B00018C0E6FF19C0E6FF1AC0E6FF1BC0E6FFEF
:1057C000EBC2E4F266DFE552E7CF1BF0E552E7CF2C
:1057D0001AF0E552E7CF19F0E552E7CF18F006507E
:1057E000185C146E07501958156E08501A58166E2A
:1057F00009501B58176EB7D8096E12000201EC5100
:1058000022D9FDD814C0F3FF15C0F4FF1200020125
:10581000816B826B836B846B080E2ED9060E18D9B0
:10582000060EE66EE66ABD0EE66E660EE66E000ECB
:10583000E66EAA0EE66E020EE66EDAEC37F0146E35
:10584000070EE15E1450000907E1020E23D9C20ED3
:10585000D06F020E7ED803D00201C26BC36B02016F
:10586000C069C16912000A0DF3CFE9FFF4CFEAFF66
:10587000810EE926020EEA221200156A166A176ADC
:10588000D880030E1454000E1554000E1654000E4A
:1058900017541200080EE926000EEA22EECFDDF2C0
:1058A000EDCFDEF288EF2AF0040EE926000EEA22A0
:1058B00012005ACDF6FF5BCDF7FF5CCDF8FF080074
:1058C000F5501200D7C2E2F2AEDEB0D8EE500D01B4
:1058D000065CEE500758EE500858EE50095812007A
:1058E0003AEC3CF006C081F207C082F2080E0201D9
:1058F0008127000E8223836B846B100EBDD84AEF84
:105900002DF0AEC2EEFFAFC2EEFFB0C2EEFFB1C2ED
:10591000EEFF1200B2C2EEFFB3C2EEFFB4C2EEFF62
:10592000B5C2EEFF120014C0EEFF15C0EEFF16C0A8
:10593000EEFF17C0EEFF1200D2C214F0D3C215F072
:10594000166A176A120015CDE9FF16CDEAFFEF506F
:105950001200D16F0201CF6B76EF29F0066A076A59
:10596000086A096A120014C006F015C007F016C0D4
:1059700008F012000201170ECD6F0D0ECE6F00CD94
:10598000CCF224EF29F002015D0ECD6F0D0ECE6F2B
:1059900045CDCCF224EF29F0AAC2EEFFABC2EEFF58
:1059A000ACC2EEFFADC2EEFF1200EECF14F0EECFB0
:1059B00015F0EECF16F0EFCF17F012001450EE5C9A
:1059C0001550EE581650EE581750EE581200D85198
:1059D000EE26D951EE22DA51EE22DB51EE221200F0
:1059E000D851EE5ED951EE5ADA51EE5ADB51EE5AE9
:1059F0001200156A166A176A030E14181200EA22BA
:105A0000EECF14F0EFCF15F01200C6C25AFDC7C298
:105A10005BFDC8C25CFD120026DF54EF2CF023DFD3
:105A2000E868EE1812001FDF4AEF2CF006C045FDB3
:105A300007C046FD08C047FD09C048FDD80EE96E05
:105A4000020EEA6E12000FDF080EE926000E1200A9
:105A500021D8AA0ED06F020EA9EF2CF004DFEE6859
:105A6000EE68EE68EE681200176ED751FCDE93EF19
:105A70002CF0F9DE81EF2CF0856F866B876B886BDD
:105A80001200CADFEE68EE6AEE6AEE6A1200C4DF48
:105A90008AEF2CF00201D26FD36B02011200D751B2
:045AA0000CEF2DF0EA
:0C5AA400C2CF0FFDC0CF10FDD5CF11FD0B
