:020000040000FA
:100000000128850186018701880189018316DF3077
:1000100085000F308600F9308700003088000030FE
:1000200089008730810000308B0007309C008312EC
:100030000F3097009D0095019B018316FF309200C1
:100040008312121541309F008316C0009F30831227
:100050000A290430A200FF30A300A303031D2D28AA
:10006000A203031D2B2808000430AA00F530AB00C2
:10007000FE30AC00AC03031D3A28AB03031D382847
:10008000AA03031D3628080009100000880000009C
:1000900000008914000000008910292008000914BC
:1000A0000000880000000000891400000000891092
:1000B00029200800383044203420383044200C30C7
:1000C00044200630442001304420342008004130D0
:1000D0009F00831680009F3083122920080049303A
:1000E0009F00831680009F308312292008001F156F
:1000F0001F1978281E08B10083161E088312B2004B
:100100000800B1183130B11C30304F203118313077
:10011000311C30304F20B21B3130B21F30304F20F5
:10012000321B3130321F30304F20B21A3130B21E04
:1001300030304F20321A3130321E30304F20B21959
:100140003130B21D30304F2032193130321D303055
:100150004F20B2183130B21C30304F2032183130BD
:10016000321C30304F200800B118B317B11CB31344
:1001700031183317311C3313B21BB316B21FB3122D
:10018000321B3316321F3312B21AB315B21EB3111B
:10019000321A3315321E3311B219B314B21DB31013
:1001A00032193314321D33100800820730343134D1
:1001B00032343334343435343634373438343934F3
:1001C0000030AD00AE00AF00B42000303302031D9C
:1001D000F5202D08D5204F202C304F202E08D5207B
:1001E0004F202F08D5204F200800AD0AAD0A0A3055
:1001F0002D02031DF5280030AD00AE0A0A302E0294
:10020000031DF5280030AE00AF0A01302F02031D98
:10021000F52808000030A400A700A80029205A20D3
:100220008030442054304F2045304F204D304F20F7
:1002300050304F203A304F2006181F2929298618A0
:100240002229302906192529372986191C296529CB
:100250001C291508A50019302507950029201C29FF
:100260001508A50019302502950029201C290A30FF
:10027000A7070318A80A27181716271C1712A7186C
:100280009716A71C971227191514271D1510A719C3
:100290009514A71D9510271A1515271E1511A71AB5
:1002A0009515A71E9511271B1516271F1512A71B9D
:1002B0009516A71F951228181517281C1513A8188E
:1002C0009517A81C951329201C290A30A702031989
:1002D000A80327181716271C1712A7189716A71C6C
:1002E000971227191514271D1510A7199514A71D66
:1002F0009510271A1515271E1511A71A9515A71E53
:100300009511271B1516271F1512A71B9516A71F3A
:10031000951228181517281C1513A8189517A81C2E
:06032000951329201C29A1
:02400E007A3FF7
:00000001FF
