:020000040000FA
:100000000128850186018701880189018316DF3077
:1000100085000F308600F9308700003088000030FE
:1000200089008730810000308B0007309F00073047
:100030009C0083120F3097009D0095019B01831651
:10004000FF3092008312121541309F0083169F30BB
:10005000831286280130A200FF30A300A303031DF2
:100060002E28A203031D2C280800FF30A900FF3012
:10007000AA00AA03031D3928A903031D3728080075
:100080000910000088000000000089140000000032
:1000900089102A20080009140000880000000000D0
:1000A00089140000000089102A2008003830402000
:1000B0003520383040200C304020063040200130C0
:1000C0004020352008008207303431343234333454
:1000D000343435343634373438343934AB0A0A30B2
:1000E0002B02031D08000030AB00AC0A0A302C02C2
:1000F000031D08000030AC00AD0A01302D02031DC5
:1001000008000030AB00AC00AD0008000030A400D7
:100110000030A7000030A8002A2056208030402060
:1001200054304B2045304B204D304B2050304B202D
:100130003A304B201F151F199B289E1831309E1CEA
:1001400030304B201E1831301E1C30304B209E1B8F
:1001500031309E1F30304B201E1B31301E1F30307F
:100160004B209E1A31309E1E30304B201E1A3130EB
:100170001E1E30304B209E1931309E1D30304B20DA
:100180001E1931301E1D30304B209E1831309E1C00
:1001900030304B201E1831301E1C30304B200618DA
:1001A000D228DB288618D528FB280619D8281B2931
:1001B00086198E286629013040202A20C030402030
:1001C00049304B204E304B2043304B2052304B2097
:1001D00045304B204D304B2045304B204E304B208E
:1001E00054304B2041304B201508A500193025070D
:1001F00095002A20CF28013040202A20C0304020FE
:1002000044304B2045304B2043304B2052304B2064
:1002100045304B204D304B2045304B204E304B204D
:1002200054304B2041304B201B08A50019302502CB
:100230009B002A20CF28013040202A20C0304020B7
:1002400049304B204E304B2043304B2052304B2016
:1002500045304B204D304B2045304B204E304B200D
:1002600054304B2041304B2031304B2030304B202C
:100270000A30A7070318A80A27181716271C1712F1
:10028000A7189716A71C971227191514271D1510C4
:10029000A7199514A71D9510271A1515271E1511B6
:1002A000A71A9515A71E9511271B1516271F15129E
:1002B000A71B9516A71F951228181517281C15138C
:1002C000A8189517A81C95132A20CF280130402084
:1002D0002A20C030402044304B2045304B20433052
:1002E0004B2052304B2045304B204D304B20453079
:1002F0004B204E304B2054304B2041304B2031307E
:100300004B2030304B200A30A7020319A8032718CE
:100310001716271C1712A7189716A71C971227192C
:100320001514271D1510A7199514A71D9510271A28
:100330001515271E1511A71A9515A71E9511271B10
:100340001516271F1512A71B9516A71F95122818FB
:100350001517281C1513A8189517A81C95132A20E3
:02036000CF28A4
:02400E00713F00
:00000001FF
