:020000040000FA
:06000000C3EF12F0120034
:0A0006000100B825000060000000B2
:0400100019000000D3
:0C001400060EF66E000EF76E000EF86E81
:1000200000010900F550946F0900F550956F03E148
:10003000946701D03DD00900F5508F6F0900F5504D
:10004000906F0900F550916F09000900F550E96EB5
:100050000900F550EA6E090009000900F550926F99
:100060000900F550936F09000900F6CF96F0F7CF1D
:1000700097F0F8CF98F08FC0F6FF90C0F7FF91C0CF
:10008000F8FF0001925302E1935307E00900F55095
:10009000EE6E9207F8E29307F9D796C0F6FF97C085
:1000A000F7FF98C0F8FF00019407000E955BBFD7DB
:0200B00012003C
:0E00B200FB0EE3CFF6FFFC0EE3CFF7FFFD0ED3
:1000C000E3CFF8FFFE0EE3CFE9FFFF0EE3CFEAFF39
:1000D000E9CFF3FFEACFF4FFF90EE35003E1FA0EA4
:1000E000E35009E0F90EE30602E2FA0EE306090026
:0800F000F5CFEEFFF1D712007D
:0200F8001200F4
:10010000000000000000005F000000030003001476
:100110003E143E14242A7F2A12433308666136496E
:100120005522500005030000001C2241000041221E
:100130001C0014083E081408083E0808005030004F
:100140000008080808080060600000201008040289
:100150003E5149453E04027F00004261514946221A
:10016000414949361814127F1027454545393E4903
:100170004949320101710907364949493626494939
:10018000493E003636000000563600000814224171
:100190000014141414140041221408020151090619
:1001A0003E4159555E7E0909097E7F494949363EDF
:1001B000414141227F4141413E7F494949417F09B7
:1001C0000909013E4141493A7F0808087F00417F03
:1001D0004100304040403F7F081422417F40404072
:1001E000407F020C027F7F0204087F3E4141413E76
:1001F0007F090909061E2121215E7F09090976264A
:100200004949493201017F01013F4040403F1F20E1
:1002100040201F7F2010207F41221C2241070870B0
:1002200008076151494543007F410000020408105E
:10023000200000417F000402010204404040404091
:10024000000102040020545454787F444444383858
:1002500044444444384444447F38545454180404B7
:100260007E0505085454543C7F0804047800447DFE
:1002700040002040443D007F1028440000417F4062
:10028000007C047804787C080404783844444438BA
:100290007C14141408081414147C007C080404480A
:1002A0005454542004043F44443C4040207C1C20CF
:1002B00040201C3C4030403C44281028440C505006
:1002C000503C4464544C44000836414100007F00D7
:1002D0000041413608000201020402000000000053
:1002E0007F0ED06E806A816A826A836A846A896AB4
:1002F0008A6A8B6A8C6A8D6AFB0E926E3C0E936ED4
:100300007F0E946E956A0C0E966E0F0EC16E070EE0
:10031000B46EC80EE66EA3EC12F0E552010EE66E66
:10032000E6D8E552010EE66EE66E610EE66E000E50
:10033000E66E0A0EE66E140EE66E64EC0EF0006ECB
:10034000060EE15E0050010EE66EE66E6F0EE66E82
:10035000000EE66E280EE66EE66A64EC0EF0006EA5
:10036000060EE15E0050010EE66EE66E730EE66E5E
:10037000000EE66E280EE66E550EE66E64EC0EF08C
:10038000006E060EE15E005000018A6B010EE66E03
:100390001FEC10F0E55200018E6F010EE66E81EC4D
:1003A00010F0E552E66A1FEC10F0E55200018D6F87
:1003B000E66A81EC10F0E55200018A5101E195D026
:1003C0008D51006E016A7C51001802E17D510118C7
:1003D00040E0800EE66E000EE66E7C51E66EE66A48
:1003E0009EEC11F0E552E552E552E552E66A010E47
:1003F000E66E800EE66E000EE66E280EE66E640E69
:10040000E66E64EC0EF0006E060EE15E0050000138
:100410008D517C6F7D6B800EE66E000EE66E8D5109
:10042000E66EE66A9EEC11F0E552E552E552E552C1
:10043000010EE66EE66E800EE66E000EE66E280E8B
:10044000E66E640EE66E64EC0EF0006E060EE15E83
:10045000005000018E51006E016A7A51001802E1CD
:100460007B51011840E0800EE66E000EE66E7A5178
:10047000E66EE66A9EEC11F0E552E552E552E55271
:10048000E66A010EE66E800EE66E000EE66E280E3F
:10049000E66E0F0EE66E64EC0EF0006E060EE15E88
:1004A000005000018E517A6F7B6B800EE66E000E5D
:1004B000E66E8E51E66EE66A9EEC11F0E552E5526C
:1004C000E552E552010EE66EE66E800EE66E000E17
:1004D000E66E280EE66E0F0EE66E64EC0EF0006E11
:1004E000060EE15E005000018A6B50D71200D9CF92
:1004F000E6FFE1CFD9FF9390000000008A8C8D9237
:100500008A908A928D90C00EE66EE66AD5EC0FF066
:10051000E552E552C00EE66E010EE66ED5EC0FF028
:10052000E552E552400EE66EE66AD5EC0FF0E55274
:10053000E552400EE66E010EE66ED5EC0FF0E55288
:10054000E552B80EE66EE66AD5EC0FF0E552E552DC
:10055000B80EE66E010EE66ED5EC0FF0E552E552F0
:10056000FE0EDB0410E13F0EE66EE66AD5EC0FF0FE
:10057000E552E5523F0EE66E010EE66ED5EC0FF049
:10058000E552E5520FD03E0EE66EE66AD5EC0FF06E
:10059000E552E5523E0EE66E010EE66ED5EC0FF02A
:1005A000E552E552E66A81EC0FF0E5529380E552A0
:1005B000E7CFD9FF1200D9CFE6FFE1CFD9FF030E75
:1005C000E126020EDB6AFE0EDB503F080FE2400E12
:1005D000006EFE0EDBCFE7FF0050E75EFE0EE7CFBA
:1005E000DBFF010EF36E020EF3CFDBFF8D90FE0EEC
:1005F000DB507F0BE76EFE0EE7CFDBFFDB504009E1
:10060000E76EFE0EE7CFDBFFFE0EDBCFE6FF020E4E
:10061000DBCFE6FFD5EC0FF0E552E552FD0EDB50E7
:10062000F80BE842E842E842BF0BB809E66E020E5A
:10063000DBCFE6FFD5EC0FF0E552E5528D80020EE0
:10064000DBCFE6FFF5EC0FF0E552DF6EFC0EDB04CE
:1006500017E1DE52010EDD6EFD0EDB50070B006E62
:10066000010EDB50005204E0E846FE0B0006FCE100
:10067000E76E010EE7CFDBFFDB50DF10DF6E17D038
:10068000DE52010EDD6EFD0EDB50070B006E010E1B
:10069000DB50005204E0E846FE0B0006FCE1E81CDB
:1006A000E76E010EE7CFDBFFDB50DF14DF6E8D90CE
:1006B000FE0EDBCFE6FF020EDBCFE6FFD5EC0FF040
:1006C000E552E5528D80DFCFE6FF020EDBCFE6FF7D
:1006D000D5EC0FF0E552E552030EE15C02E2E16A6F
:1006E000E552E16EE552E7CFD9FF1200D9CFE6FF20
:1006F000E1CFD9FF0B0EE126FC0EDBCF00F0FE0EA2
:10070000DB50D88000540CE2FC0EDBCFE6FFFE0E7F
:10071000DB50E552E75CE76E040EE7CFDBFF0BD062
:10072000FE0EDBCFE6FFFC0EDB50E552E75CE76E2A
:10073000040EE7CFDBFFFB0EDBCF00F0FD0EDB503E
:10074000D88000540CE2FB0EDBCFE6FFFD0EDB5041
:10075000E552E75CE76E050EE7CFDBFF0BD0FD0E41
:10076000DBCFE6FFFB0EDB50E552E75CE76E050EE4
:10077000E7CFDBFFFE0EDB50DF6EFD0EDB50E76EDA
:10078000010EE7CFDBFFFE0EDBCF00F0FC0EDB50EF
:10079000D880005403E2020EDB6805D0010EF36E30
:1007A000020EF3CFDBFFFD0EDBCF00F0FB0EDB50C4
:1007B000D880005403E2030EDB6805D0010EF36E0F
:1007C000030EF3CFDBFF040EDBCF00F0050EDB5092
:1007D000E76E0018E8AE02D0E73402D0E750005CC4
:1007E00001E291D0040EDBCFE6FF050EDB50E824DA
:1007F000E552D880E754006E016A026A036A00AECF
:1008000003D0016802680368060E00C0DBFF070E14
:1008100001C0DBFF080E02C0DBFF090E03C0DBFFD7
:100820000A0EDB6ADBCF00F0040EDB50D8800054E8
:1008300069E3FA0EDBCFE6FF010EDBCFE6FFDFCF89
:10084000E6FFB9DEE552E552E552D950060FE96EF2
:10085000DACFEAFFD890030EEB50000A08E6000E4C
:10086000EE5C000EEE58000EEE58000EEE581DE243
:10087000050EDB50E824006E016A026A036A00AECE
:1008800003D0016802680368D950060FE96EDACF19
:10089000EAFF0050EE260150EE220250EE220350F5
:1008A000EE22020EDB50DF262AD0050EDB50E824B4
:1008B000046E040EDB50E824045C006E016A026AD8
:1008C000036A00AE03D0016802680368D950060FBE
:1008D000E96EDACFEAFF0050EE260150EE22025018
:1008E000EE220350EE22020EDB50DF26010EDBCF9C
:1008F000E7FF030EDB50E726010EE7CFDBFF0A0E12
:10090000DB2A90D796D0050EDBCFE6FF040EDB5036
:10091000E824E552D880E754006E016A026A036A4F
:1009200000AE03D0016802680368060E00C0DBFF5A
:10093000070E01C0DBFF080E02C0DBFF090E03C07B
:10094000DBFF0A0EDB6ADBCF00F0050EDB50D88040
:1009500000546FE3FA0EDBCFE6FF010EDBCFE6FFBC
:10096000DFCFE6FF28DEE552E552E552D950060F0B
:10097000E96EDACFEAFFD890030EEB50000A08E6E2
:10098000000EEE5C000EEE58000EEE58000EEE5813
:1009900023E2040EDB50E824006E016A026A036A57
:1009A00000AE03D0016802680368D950060FE96EF3
:1009B000DACFEAFF0050EE260150EE220250EE227E
:1009C0000350EE22010EDBCFE7FF030EDB50E726DC
:1009D000010EE7CFDBFF2AD0040EDB50E824046EC3
:1009E000050EDB50E824045C006E016A026A036AAB
:1009F00000AE03D0016802680368D950060FE96EA3
:100A0000DACFEAFF0050EE260150EE220250EE222D
:100A10000350EE22020EDB50DF26010EDBCFE7FF94
:100A2000030EDB50E726010EE7CFDBFF0A0EDB2AC1
:100A30008AD70B0EE15C02E2E16AE552E16EE55213
:100A4000E7CFD9FF1200D9CFE6FFE1CFD9FF020EE1
:100A5000E126FA0EDB5036E0FB0EDB50F36EFD0EA6
:100A6000DBCFF4FFF350F45C0AE2FD0EDB50DF6EE7
:100A7000FB0EDB50E76E010EE7CFDBFF09D0FB0E6C
:100A8000DB50DF6EFD0EDB50E76E010EE7CFDBFFC4
:100A9000010EDB50D880DF5414E3F90EDBCFE6FF04
:100AA000DFCFE6FFFC0EDBCFE6FFDFCFE6FFFE0E7B
:100AB000DBCFE6FF1BDE006E050EE15E0050DF2A95
:100AC000E7D750D0F90EDBCFE6FFFD0EDBCFE6FF18
:100AD000FC0EDBCFE6FFFD0EDBCFE6FFFE0EDBCF2D
:100AE000E6FF04DE006E050EE15E0050F90EDBCF7E
:100AF000E6FFFB0EDBCFE6FFFC0EDBCFE6FFFB0ED7
:100B0000DBCFE6FFFE0EDBCFE6FFF0DD006E050E6D
:100B1000E15E0050F90EDBCFE6FFFB0EDBCFE6FF18
:100B2000FE0EDBCFE6FFFD0EDBCFE6FFFE0EDBCFDA
:100B3000E6FFDCDD006E050EE15E0050F90EDBCF56
:100B4000E6FFFB0EDBCFE6FFFC0EDBCFE6FFFD0E84
:100B5000DBCFE6FFFC0EDBCFE6FFC8DD006E050E47
:100B6000E15E0050020EE15C02E2E16AE552E16EF4
:100B7000E552E7CFD9FF1200D9CFE6FFE1CFD9FF89
:100B80001A0EE126FC0EDBCFE6FFFE0EDB50E5522F
:100B9000E75C086E08C02FF0D2EC10F02DC004F016
:100BA0002EC005F02FC006F030C007F004C0E6FFED
:100BB00005C0E6FF06C0E6FF07C0E6FF70EC12F0D6
:100BC000E552E552E552E5522CC000F02DC001F08F
:100BD0002EC002F02FC003F000C02DF001C02EF097
:100BE00002C02FF003C030F0E1EC10F0090E2CC071
:100BF000DBFF0A0E2DC0DBFF0B0E2EC0DBFF0C0E41
:100C00002FC0DBFFFB0EDBCFE6FFFD0EDB50E55216
:100C1000E75C086E08C02FF0D2EC10F02DC004F095
:100C20002EC005F02FC006F030C007F004C0E6FF6C
:100C300005C0E6FF06C0E6FF07C0E6FF70EC12F055
:100C4000E552E552E552E5522CC000F02DC001F00E
:100C50002EC002F02FC003F000C02DF001C02EF016
:100C600002C02FF003C030F0E1EC10F00D0E2CC0EC
:100C7000DBFF0E0E2DC0DBFF0F0E2EC0DBFF100EB4
:100C80002FC0DBFFFE0EDB50DF6EFD0EDB50E76E8C
:100C9000010EE7CFDBFFFE0EDBCF0CF00D6A0E6A14
:100CA0000F6A090EDBCF08F00A0EDBCF09F00B0E3E
:100CB000DBCF0AF00C0EDBCF0BF0000E086C091E28
:100CC00009220A1E0A220B1E0B2208C02CF009C0A2
:100CD0002DF00AC02EF00BC02FF00CC031F00DC06B
:100CE00032F00EC033F00FC034F038EC12F028C0F0
:100CF00004F029C005F02AC006F02BC007F0FD0E55
:100D0000DBCF10F0116A126A136A10C02CF011C008
:100D10002DF012C02EF013C02FF00D0EDBCF31F0EE
:100D20000E0EDBCF32F00F0EDBCF33F0100EDBCF29
:100D300034F038EC12F02850045C006E295005584D
:100D4000016E2A500658026E2B500758036E110E82
:100D500000C0DBFF120E01C0DBFF130E02C0DBFF81
:100D6000140E03C0DBFFFC0EDBCF0CF00D6A0E6A25
:100D70000F6A090EDBCF08F00A0EDBCF09F00B0E6D
:100D8000DBCF0AF00C0EDBCF0BF0000E086C091E57
:100D900009220A1E0A220B1E0B2208C02CF009C0D1
:100DA0002DF00AC02EF00BC02FF00CC031F00DC09A
:100DB00032F00EC033F00FC034F038EC12F028C01F
:100DC00004F029C005F02AC006F02BC007F0FB0E86
:100DD000DBCF10F0116A126A136A10C02CF011C038
:100DE0002DF012C02EF013C02FF00D0EDBCF31F01E
:100DF0000E0EDBCF32F00F0EDBCF33F0100EDBCF59
:100E000034F038EC12F02850045C006E295005587C
:100E1000016E2A500658026E2B500758036E150EAD
:100E200000C0DBFF160E01C0DBFF170E02C0DBFFA8
:100E3000180E03C0DBFFFE0EDBCF00F0FC0EDB5014
:100E4000D880005401E3D3D0020EDB68FC0EDBCF68
:100E50000CF00D6A0E6A0F6A090EDBCF08F00A0E5D
:100E6000DBCF09F00B0EDBCF0AF00C0EDBCF0BF063
:100E7000000E086C091E09220A1E0A220B1E0B22F4
:100E800008C02CF009C02DF00AC02EF00BC02FF0C6
:100E90000CC031F00DC032F00EC033F00FC034F092
:100EA00038EC12F028C004F029C005F02AC006F082
:100EB0002BC007F0FB0EDBCF10F0116A126A136A29
:100EC00010C02CF011C02DF012C02EF013C02FF066
:100ED0000D0EDBCF31F00E0EDBCF32F00F0EDBCF7D
:100EE00033F0100EDBCF34F038EC12F02850045CF5
:100EF000006E29500558016E2A500658026E2B507C
:100F00000758036E110E00C0DBFF120E01C0DBFF9D
:100F1000130E02C0DBFF140E03C0DBFFFE0EDBCF9F
:100F20000CF00D6A0E6A0F6A090EDBCF08F00A0E8C
:100F3000DBCF09F00B0EDBCF0AF00C0EDBCF0BF092
:100F4000000E086C091E09220A1E0A220B1E0B2223
:100F500008C02CF009C02DF00AC02EF00BC02FF0F5
:100F60000CC031F00DC032F00EC033F00FC034F0C1
:100F700038EC12F028C004F029C005F02AC006F0B1
:100F80002BC007F0FD0EDBCF10F0116A126A136A56
:100F900010C02CF011C02DF012C02EF013C02FF095
:100FA0000D0EDBCF31F00E0EDBCF32F00F0EDBCFAC
:100FB00033F0100EDBCF34F038EC12F02850045C24
:100FC000006E29500558016E2A500658026E2B50AB
:100FD0000758036E150E00C0DBFF160E01C0DBFFC5
:100FE000170E02C0DBFF180E03C0DBFF05D0010E99
:100FF000F36E020EF3CFDBFFFD0EDBCF00F0FB0E36
:10100000DB50D880005401E3D3D0030EDB68FC0E24
:10101000DBCF0CF00D6A0E6A0F6A090EDBCF08F009
:101020000A0EDBCF09F00B0EDBCF0AF00C0EDBCF84
:101030000BF0000E086C091E09220A1E0A220B1E64
:101040000B2208C02CF009C02DF00AC02EF00BC0F6
:101050002FF00CC031F00DC032F00EC033F00FC0D5
:1010600034F038EC12F028C004F029C005F02AC092
:1010700006F02BC007F0FB0EDBCF10F0116A126AEE
:10108000136A10C02CF011C02DF012C02EF013C046
:101090002FF00D0EDBCF31F00E0EDBCF32F00F0E46
:1010A000DBCF33F0100EDBCF34F038EC12F02850E9
:1010B000045C006E29500558016E2A500658026ED5
:1010C0002B500758036E110E00C0DBFF120E01C03B
:1010D000DBFF130E02C0DBFF140E03C0DBFFFE0EAE
:1010E000DBCF0CF00D6A0E6A0F6A090EDBCF08F039
:1010F0000A0EDBCF09F00B0EDBCF0AF00C0EDBCFB4
:101100000BF0000E086C091E09220A1E0A220B1E93
:101110000B2208C02CF009C02DF00AC02EF00BC025
:101120002FF00CC031F00DC032F00EC033F00FC004
:1011300034F038EC12F028C004F029C005F02AC0C1
:1011400006F02BC007F0FD0EDBCF10F0116A126A1B
:10115000136A10C02CF011C02DF012C02EF013C075
:101160002FF00D0EDBCF31F00E0EDBCF32F00F0E75
:10117000DBCF33F0100EDBCF34F038EC12F0285018
:10118000045C006E29500558016E2A500658026E04
:101190002B500758036E150E00C0DBFF160E01C062
:1011A000DBFF170E02C0DBFF180E03C0DBFF05D00C
:1011B000010EF36E030EF3CFDBFF0D0EDBCF00F05D
:1011C0000E0EDBCF01F00F0EDBCF02F0100EDBCFE7
:1011D00003F0D950090FE96EDACFEAFF030EEB50A6
:1011E0000318E8AE02D0033408D00050EE5C015082
:1011F000EE580250EE580350EE5801E2E8D10D0EC1
:10120000DBCF04F00E0EDBCF05F00F0EDBCF06F0C8
:10121000100EDBCF07F0D8900436053606360736B9
:10122000D950090FE96EDACFEAFFEE50045C006E88
:10123000EE500558016EEE500658026EEE500758FB
:10124000036E050E00C0DBFF060E01C0DBFF070EBC
:1012500002C0DBFF080E03C0DBFF190EDB6ADBCF29
:1012600000F0016A026A036A090EDBCF2DF00A0E54
:10127000DBCF2EF00B0EDBCF2FF00C0EDBCF30F0E0
:1012800030500318E8AE02D0033408D000502D5C73
:1012900001502E5802502F580350305801E296D179
:1012A000FA0EDB50FE0BE842FF0D040EF3CFDBFF1E
:1012B000FA0EDB50010B006EFA0EDB50FE0BE8421B
:1012C0000024F36E040EDBCFF4FFF350F45C01E373
:1012D000FED0DFCF0CF00D6A0E6A0F6A0CAE03D0A1
:1012E0000D680E680F680CC02CF00DC02DF00EC0FC
:1012F0002EF00FC02FF0090EDBCF31F00A0EDBCF3E
:1013000032F00B0EDBCF33F00C0EDBCF34F038ECC9
:1013100012F028C008F029C009F02AC00AF02BC03A
:101320000BF0040EDBCFE6FF010EDB50E552E724A5
:10133000106E116A126A136A10AE03D01168126837
:10134000136810C02CF011C02DF012C02EF013C085
:101350002FF00D0EDBCF31F00E0EDBCF32F00F0E83
:10136000DBCF33F0100EDBCF34F038EC12F0085046
:101370002824046E09502920056E0A502A20066E82
:101380000B502B20076ED950110FE96EDACFEAFF10
:101390000450EE24006E0550EE20016E0650EE2043
:1013A000026E0750EE20036E0001800E031401E070
:1013B0008BD0DFCF20F0216A226A236A20AE03D0CF
:1013C00021682268236820C02CF021C02DF022C0A3
:1013D0002EF023C02FF0090EDBCF31F00A0EDBCF49
:1013E00032F00B0EDBCF33F00C0EDBCF34F038ECE9
:1013F00012F028C01CF029C01DF02AC01EF02BC01E
:101400001FF0040EDBCFE6FF010EDB50E552E724B0
:10141000246E256A266A276A24AE03D025682668CA
:10142000276824C02CF025C02DF026C02EF027C040
:101430002FF00D0EDBCF31F00E0EDBCF32F00F0EA2
:10144000DBCF33F0100EDBCF34F038EC12F01C5051
:101450002824186E1D502920196E1E502A201A6E3D
:101460001F502B201B6ED950150FE96EDACFEAFF03
:101470001850EE24146E1950EE20156E1A50EE20FE
:10148000166E1B50EE20176E1734000E171809E663
:10149000D880000E1454000E1554000E1654000E81
:1014A000175412E3F90EDBCFE6FF040EDBCFE6FFA5
:1014B000010EDB50E552E724E66EDFCFE6FFDBEC02
:1014C00002F0E552E552E552040EDB2AF1D6D9507E
:1014D000050FE96EDACFEAFFD890030EEB50000A51
:1014E00008E6000EEE5C000EEE58000EEE58000E00
:1014F000EE5822E20D0EDBCF00F00E0EDBCF01F036
:101500000F0EDBCF02F0100EDBCF03F0D8900036C9
:10151000013602360336D950050FE96EDACFEAFFFD
:101520000050EE260150EE220250EE220350EE2231
:10153000020EDB50DF2647D00D0EDBCF04F00E0E7F
:10154000DBCF05F00F0EDBCF06F0100EDBCF07F080
:10155000D8900436053606360736090EDBCF08F07C
:101560000A0EDBCF09F00B0EDBCF0AF00C0EDBCF3F
:101570000BF0D890083609360A360B360850045C52
:10158000006E09500558016E0A500658026E0B5045
:101590000758036ED950050FE96EDACFEAFF005005
:1015A000EE260150EE220250EE220350EE22020EF1
:1015B000DB50DF26010EDBCFE7FF030EDB50E72613
:1015C000010EE7CFDBFF190EDB2A49D6EAD1090E5F
:1015D000DBCF04F00A0EDBCF05F00B0EDBCF06F0FD
:1015E0000C0EDBCF07F0D8900436053606360736EA
:1015F000D9500D0FE96EDACFEAFFEE50045C006EB1
:10160000EE500558016EEE500658026EEE50075827
:10161000036E050E00C0DBFF060E01C0DBFF070EE8
:1016200002C0DBFF080E03C0DBFF190EDB6ADBCF55
:1016300000F0016A026A036A0D0EDBCF2DF00E0E78
:10164000DBCF2EF00F0EDBCF2FF0100EDBCF30F004
:1016500030500318E8AE02D0033408D000502D5C9F
:1016600001502E5802502F580350305801E299D1A2
:10167000D950050FE96EDACFEAFFD890030EEB5090
:10168000000A08E6000EEE5C000EEE58000EEE5862
:10169000000EEE5828E2090EDBCF00F00A0EDBCF79
:1016A00001F00B0EDBCF02F00C0EDBCF03F0D89075
:1016B0000036013602360336D950050FE96EDACF0F
:1016C000EAFF0050EE260150EE220250EE220350B7
:1016D000EE22010EDBCFE7FF030EDB50E726010E03
:1016E000E7CFDBFF47D0090EDBCF04F00A0EDBCFDC
:1016F00005F00B0EDBCF06F00C0EDBCF07F0D89019
:1017000004360536063607360D0EDBCF08F00E0E12
:10171000DBCF09F00F0EDBCF0AF0100EDBCF0BF0A2
:10172000D890083609360A360B360850045C006E2D
:1017300009500558016E0A500658026E0B500758A2
:10174000036ED950050FE96EDACFEAFF0050EE269E
:101750000150EE220250EE220350EE22020EDB5028
:10176000DF26010EDBCFE7FF030EDB50E726010E7D
:10177000E7CFDBFFFA0EDB50FE0BE842FF0D040E55
:10178000F3CFDBFFFA0EDB50010B006EFA0EDB50DD
:10179000FE0BE8420024F36E040EDBCFF4FFF3509F
:1017A000F45C01E3FBD0DFCF0CF00D6A0E6A0F6A28
:1017B0000CAE03D00D680E680F680CC02CF00DC085
:1017C0002DF00EC02EF00FC02FF0090EDBCF31F040
:1017D0000A0EDBCF32F00B0EDBCF33F00C0EDBCF7B
:1017E00034F038EC12F028C008F029C009F02AC003
:1017F0000AF02BC00BF0040EDBCFE6FF010EDB502E
:10180000E552E724106E116A126A136A10AE03D013
:1018100011681268136810C02CF011C02DF012C0AE
:101820002EF013C02FF00D0EDBCF31F00E0EDBCFFC
:1018300032F00F0EDBCF33F0100EDBCF34F038EC8C
:1018400012F008502824046E09502920056E0A5011
:101850002A20066E0B502B20076ED950110FE96E0F
:10186000DACFEAFF0450EE24006E0550EE20016E40
:101870000650EE20026E0750EE20036E0001800E2F
:10188000031401E088D0DFCF20F0216A226A236AA6
:1018900020AE03D021682268236820C02CF021C02C
:1018A0002DF022C02EF023C02FF0090EDBCF31F037
:1018B0000A0EDBCF32F00B0EDBCF33F00C0EDBCF9A
:1018C00034F038EC12F028C01CF029C01DF02AC0FA
:1018D0001EF02BC01FF0040EDBCFE6FF010EDB5025
:1018E000E552E724246E256A266A276A24AE03D0CF
:1018F00025682668276824C02CF025C02DF026C056
:101900002EF027C02FF00D0EDBCF31F00E0EDBCF07
:1019100032F00F0EDBCF33F0100EDBCF34F038ECAB
:1019200012F01C502824186E1D502920196E1E50CC
:101930002A201A6E1F502B201B6ED950150FE96EEE
:10194000DACFEAFF1850EE24146E1950EE20156E0F
:101950001A50EE20166E1B50EE20176E1734000E34
:10196000171809E6D880000E1454000E1554000E06
:101970001654000E17540FE3F90EDBCFE6FF010EED
:10198000DBCFE6FF040EDB50DF24E66EDBEC02F07B
:10199000E552E552E552040EDB2AF4D6190EDB2A95
:1019A00046D61A0EE15C02E2E16AE552E16EE552CA
:1019B000E7CFD9FF1200D9CFE6FFE1CFD9FF030E61
:1019C000E126DF6AFC0EDB50E76E010EE7CFDBFF9E
:1019D000FC0EDBCFE6FF010EE552D880E754E76E40
:1019E000020EE7CFDBFFFB0EDB5001E189D0FA0EE0
:1019F000DBCFE6FF010EDBCFE6FFFD0EDB50E5524D
:101A0000E724E66EFE0EDB50DF24E66E010EDBCF30
:101A1000E6FFFD0EDB50E552E724E66EFE0EDB50DE
:101A2000D880DF54E66E76EC03F0006E050EE15EC2
:101A30000050FA0EDBCFE6FFFD0EDBCFE6FF010E16
:101A4000DB50E552E75CE66EFE0EDB50DF24E66E0F
:101A5000FD0EDBCFE6FF010EDB50E552E75CE66EE4
:101A6000FE0EDB50D880DF54E66E76EC03F0006E9D
:101A7000050EE15E0050FA0EDBCFE6FFFD0EDB50F7
:101A8000DF24E66E010EDBCFE6FFFE0EDB50E552F3
:101A9000E724E66EFD0EDB50DF24E66EFE0EDBCFA4
:101AA000E6FF010EDB50E552E75CE66E76EC03F0F4
:101AB000006E050EE15E0050FA0EDBCFE6FFFD0E74
:101AC000DB50D880DF54E66E010EDBCFE6FFFE0E62
:101AD000DB50E552E724E66EFD0EDB50D880DF5484
:101AE000E66EFE0EDBCFE6FF010EDB50E552E75C53
:101AF000E66E76EC03F0006E050EE15E0050A4D0B9
:101B0000FA0EDBCFE6FFFD0EDBCFE6FF010EDB506A
:101B1000E552E724E66EFE0EDB50DF24E66EDBECDA
:101B200002F0E552E552E552FA0EDBCFE6FFFD0E7C
:101B3000DB50DF24E66EFE0EDBCFE6FF010EDB504E
:101B4000E552E724E66EDBEC02F0E552E552E552A1
:101B5000FA0EDBCFE6FFFD0EDBCFE6FF010EDB501A
:101B6000E552E724E66EFE0EDB50D880DF54E66EC9
:101B7000DBEC02F0E552E552E552FA0EDBCFE6FF70
:101B8000FD0EDB50DF24E66EFE0EDBCFE6FF010E1E
:101B9000DB50E552E75CE66EDBEC02F0E552E55225
:101BA000E552FA0EDBCFE6FFFD0EDB50D880DF54A6
:101BB000E66EFE0EDBCFE6FF010EDB50E552E724BA
:101BC000E66EDBEC02F0E552E552E552FA0EDBCFB1
:101BD000E6FFFD0EDBCFE6FF010EDB50E552E75CD2
:101BE000E66EFE0EDB50DF24E66EDBEC02F0E55223
:101BF000E552E552FA0EDBCFE6FFFD0EDBCFE6FF46
:101C0000010EDB50E552E75CE66EFE0EDB50D8803D
:101C1000DF54E66EDBEC02F0E552E552E552FA0ED7
:101C2000DBCFE6FFFD0EDB50D880DF54E66EFE0E04
:101C3000DBCFE6FF010EDB50E552E75CE66EDBEC46
:101C400002F0E552E552E552020EDBCF00F000341F
:101C50000EE3DF50DF2AE824030F006E020EDBCF15
:101C6000E7FF0050E726020EE7CFDBFF14D0DF507E
:101C7000DF2A016E010EDBCFF3FFDB06F350015CC0
:101C8000E824050F006E020EDBCFE7FF0050E726C9
:101C9000020EE7CFDBFFDFCF00F0010EDB50E76E77
:101CA0000018E8AE02D0003403D0E750D8800054CA
:101CB00001E399D6030EE15C02E2E16AE552E16ECE
:101CC000E552E7CFD9FF1200D9CFE6FFE1CFD9FF28
:101CD0000B0EE126DF6ADF50E76EFB0EDBCFE9FF7C
:101CE000FC0EDBCFEAFFE750E926000EEA22EF50B8
:101CF00001E1FDD0DF50E76EFB0EDBCFE9FFFC0E0C
:101D0000DBCFEAFFE750E926000EEA22EF507E081B
:101D10002EE3050EE66EE66ADF50E76EFB0EDBCFC4
:101D2000E9FFFC0EDBCFEAFFE750E926000EEA22CE
:101D3000EF50E00F050DF3CF00F0F4CF01F0000EEF
:101D40000026010E0122026A00C0E6FF01C0E6FF84
:101D500002C0E6FFD950050FE66E000EDA20E66EEF
:101D600059EC00F0036E070EE15E03501AD0050E29
:101D7000E66EE66A000E006E010E016E026A00C099
:101D8000E6FF01C0E6FF02C0E6FFD950050FE66E90
:101D9000000EDA20E66E59EC00F0036E070EE15EED
:101DA0000350FE0EDBCFE6FFFA0EDB50050DF350BD
:101DB000E552E724006E016AD890015004E6800ED7
:101DC000005C000E01580FE3FE0EDB6AFA0EDB50DA
:101DD000070DF328006EFD0EDBCFE7FF0050E7266E
:101DE000FD0EE7CFDBFF010EDB6A050EF36E010E81
:101DF000DBCFF4FFF350F45C76E2020EDB6AFA0EFE
:101E0000DB50070DF350F36E020EDBCFF4FFF350FF
:101E1000F45C5DE2020EDBCF02F0D950050F006EDC
:101E2000DACF01F0010EDB500F010024E96E000E45
:101E30000120EA6EEF5002C0E7FFE75204E0E842FB
:101E40007F0BE706FCE1010B3FE0030EDB6AFA0EB5
:101E5000DB50F36E030EDBCFF4FFF350F45C34E29F
:101E6000040EDB6AFA0EDB50F36E040EDBCFF4FFD8
:101E7000F350F45C26E2F90EDBCFE6FF030EDBCF76
:101E8000E6FFFD0EDBCFE6FFFA0EDBCFE6FF020E2C
:101E9000DB50E552E702F350E552E724E552E72430
:101EA000E66E040EDBCFE6FFFE0EDB50E552E724C4
:101EB000E66EDBEC02F0E552E552E552040EDB2A59
:101EC000D1D7030EDB2AC3D7020EDB2A98D7010E27
:101ED000DB2AFE0EDBCFE7FFFA0EDB50E726FE0E15
:101EE000E7CFDBFF82D7DF2AFE0EDB2AF4D60B0E0C
:101EF000E15C02E2E16AE552E16EE552E7CFD9FF2B
:101F00001200D9CFE6FFE1CFD9FF020EE126DF6A4A
:101F1000080EDF5C40E28D90400EE66E010EE66E2C
:101F200044D8E552E552400EE66EE66A3ED8E552E8
:101F3000E552B80EDF10E66E010EE66E36D8E552B9
:101F4000E552B80EDF10E66EE66A2FD8E552E5528C
:101F50008D80010EDB6A400EF36E010EDBCFF4FFC5
:101F6000F350F45C16E2FE0EDB50FF0DF350E66E0C
:101F7000E66A1BD8E552E552FE0EDB50FF0DF3502A
:101F8000E66E010EE66E11D8E552E552010EDB2A2F
:101F9000E2D7DF2ABDD7020EE15C02E2E16AE55238
:101FA000E16EE552E7CFD9FF1200D9CFE6FFE1CFCE
:101FB000D9FF939000000000FE0EDB5002E18A8002
:101FC00001D08A828A9EFD0EDB50836E00000000E5
:101FD0008D82000000008D92000000008A908A929D
:101FE0009380E552E7CFD9FF1200D9CFE6FFE1CFCA
:101FF000D9FFE652DF6A939000000000FE0EDB502E
:1020000002E18A8001D08A8295688A8E00000000F1
:102010008D82000000008D92000000008D82000083
:1020200000008350DF6E000000008D928A908A923B
:10203000956A9380E552E552E7CFD9FF1200D9CFD8
:10204000E6FFE1CFD9FF020EE12680840000000008
:102050008094FE0EDB5003E0D10EDF6E02D0910EB5
:10206000DF6E010EDB6A080EF36E010EDBCFF4FFAC
:10207000F350F45C13E2DFAE02D0828E01D0829E78
:10208000000000008182000000008192000000003A
:10209000DF50E824DF6E010EDB2AE5D7829E020EB8
:1020A000E66ED1EC12F0E552DF6A010EDB6A080E33
:1020B000F36E010EDBCFF4FFF350F45C13E2DF505C
:1020C000E824DF6E000000008182000000008192A1
:1020D0000000000081A003D0010EDF10DF6E010EB2
:1020E000DB2AE5D78084DF5000D0006E020EE15C71
:1020F00002E2E16AE552E16E0050E552E7CFD9FF16
:102100001200D9CFE6FFE1CFD9FFFE0EDB501CE174
:1021100000018B518D5D08E178C086F08407845101
:1021200002E1010E886F0DD077C084F086078651DA
:1021300008E1886B8B6B8A6B00010A0E776F020EC9
:10214000786F8DC08BF01BD000018C518E5D08E143
:1021500078C087F08507855102E1010E896F0DD0A7
:1021600077C085F08707875108E1896B8C6B8A6B94
:1021700000010A0E776F020E786F8EC08CF000019E
:1021800088510AE0895108E0010E8A6F886B896BDB
:102190000001776F020E786FE552E7CFD9FF12008A
:1021A000379E05D0379E2FAE02D02F6C378E2FC0B2
:1021B00029F0286A3B6A3A6A860E2A6E2B6A34EF47
:1021C00011F0376A70EC11F037B6EBEF10F037A270
:1021D0000FD037B407D07F0E2F6EFF0E2E6E2D6EF0
:1021E0002C6E25D0800E2F6E01D02F6A000EF6D7F0
:1021F00037B0FBD72C6A9F0E3060EBD77E0E306471
:10220000F4D79E0E305C07E0D8902F322E322D325C
:102210002C32302AF6D737A40AD02C6C2D1E2E1E55
:102220002F1EE86A2D222E222F222FAEDED712007B
:102230007F0E306EFF0E2F6E2E6E2D6E12007F0EF3
:1022400037BEFF0E306E02D07F0E306E800E2F6EC6
:102250002E6A2D6AF3D737AE04D0800E306E2F6A07
:10226000F7D7306A2F6AF4D7295028103B103A105C
:10227000F8E02BBEF0D729BE0CD02A502B10EBE093
:10228000D8903A363B36283629362A06D8A02B066F
:10229000F2D72B50D4E12A28D2E03AAE11D07F0EEB
:1022A0003A1402E13BA00CD03B2AE86A28222922FA
:1022B00007E3D880293228323B322A2A2A28BFE075
:1022C0002A50C9E03BC02DF028C02EF029342F6ED3
:1022D0002A30306E2F32309E37BE308E1EEF11F016
:1022E0002F36303602E33784377E06E13780306A96
:1022F0002F6A2E6A2D6A1200302803E0D8802F3210
:102300001200D8902F3202E1378212003786120075
:102310003436353602E3378C377E06E13788356A46
:10232000346A336A326A1200352803E0D8803432C6
:0C2330001200D8903432EAE1378A120023
:04233C00D9CFE6FF10
:10234000DACFE6FFFA0EE3CFD9FFFB0EE3CFDAFFD9
:10235000FD0EE35209E72D0EDE6EFC0EE31EE32AAE
:10236000FD0ED8B4E306E31EE652E652E652FD0E39
:10237000E124E76EFF0EE220E46EE652F70EE3CFB3
:10238000E6FFF70EE3CFE6FF0EEC12F0F90EE124C4
:10239000E96EFF0EE220EA6EFEEC11F00AE1FBECC2
:1023A00011F009E1FEEC11F008E1FBEC11F007E19E
:1023B00008D009EC12F004EC12F009EC12F004EC75
:1023C00012F009EC12F0DE6AF90EE126FF0EE222AD
:1023D000FF0EE3CFDAFFE552FF0EE3CFD9FFE55260
:1023E000FC0EE124E96EFF0EE220EA6EEECFF3FF71
:1023F000EFCFF4FF1200EF380F0B1200EF500F0B6E
:1024000002E1EE52D8841200EF380F0B300FDE6E6F
:102410001200EE500F0B300FDE6E1200FC0EE3CFF9
:10242000E9FFFD0EE3CFEAFF100EE66EEE6AEE6AFC
:10243000EF6AD890FD0EE336FE0EE336ED36ED364C
:10244000EF36FF0EE30609E02FEC12F0EE522FEC10
:1024500012F0EE522FEC12F0EDD7E56E1200030EE3
:10246000EF24E8B6EF6E300EEF24E8BEEF6E000CFE
:102470002C503102F3CF28F0F4CF29F03202F35080
:102480002926000EF4202A6E2C503302F3502A26FF
:10249000000EF4202B6E2C503402F3502B262D50BE
:1024A0003102F3502926F4502A22000E2B222D50FF
:1024B0003202F3502A26F4502B222D503302F350CF
:1024C0002B262E503102F3502A26F4502B222E5068
:1024D0003202F3502B262F503102F3502B261200DC
:1024E000D9CFE6FFDACFE6FFE1CFD9FFE2CFDAFFBF
:1024F000E652E652D950FD0F006EFF0EDA2000C002
:10250000DEFFDD6EDECFE9FFDDCFEAFFEF9EFA0EE4
:10251000DBCF00F0FB0EDBCF01F0FC0EDBCF02F0D7
:10252000FD0EDBCF03F000C02CF001C02DF002C087
:102530002EF003C02FF0E552E552E552E5CFDAFF69
:06254000E7CFD9FF1200F5
:0A254600FF0EE3503C6E480E01D07A
:102550004C0EE76EE72EFED7E76AE72EFED73C2E3D
:06256000F7D70000120095
:0A256600000EF36E00EE00F0080E08
:1025700001D81200EA6002D0EE6AFCD7F350E9609D
:062580001200EE6AFCD718
:0A25860013EE00F023EE00F0F86AF7
:10259000379C0AEC00F07CEC00F070EC01F0FBD70B
:0225A000120027
:0E25A200FF0EE350E84E1200000000D000D003
:0825B00000D0E82EFAD712005A
:0825B80000544F515545204E1F
:1025C000412054454C4100583A2000593A20000A15
:0125D0000208
:020000040030CA
:0100000018E7
:010001000CF2
:0100020016E7
:010003000EEE
:01000500807A
:010006008079
:010008000FE8
:01000900C036
:01000A000FE6
:01000B00E014
:01000C000FE4
:01000D0040B2
:00000001FF
