:020000040000FA
:02000000A32833
:040002000034003492
:0200080080284E
:04000C000F3982071F
:100010003F3406345B344F3466346D347D340734FA
:100020007F346F3400340034003400340034003442
:10003000073982078F3481348234843488348F3492
:100040008F348F34063081000B1108000130AD0071
:100050000800403088009B280008182086009B2854
:10006000803086009B28AB0803193828AB0B30285A
:1000700000308800AA0B2C28A0302E070406031994
:100080004728840A2808AA002908AB009B28CE200C
:10009000A03084000230A70085161930AF00193057
:1000A000B0009B28AF0803195828AF0B58288512B9
:1000B000B00803199B28B00B9B280030880019302A
:1000C000B0009B28003088008D28B40803196A28E6
:1000D000B40B6228B50B70286430B4003230B50020
:1000E000B10A861306130030880031188617311CB8
:1000F000061732083118320E0F39062088008D2875
:10010000A600030E8301A500AD0A05302D060319D4
:1001100026200330270603196528AC0B9D280030E4
:10012000270603192928013027060319332802302E
:100130002706031952280A30AC002220250E83001E
:10014000A60E260E090003138312831607309C00A7
:10015000CE2083160030880000308500831288018D
:1001600085018F30860083168230810083120A3029
:10017000AC000030A70083130130AD0022208B16A5
:100180008B17FF30B300C428B30BC428FF30B30073
:100190004229831600308600831208008F308600C3
:1001A00083160F3086008312FF30A000A100A2004A
:1001B000A300FF30A40008006430A8003230A9007A
:1001C000C92081308600F4283230A8001930A900F7
:1001D000C92082308600F4282830A8000A30A900FF
:1001E000C92084308600F4282808AA002908AB001A
:1001F000A03084002D0880000030AE00B200222024
:100200000A30AC000130A700C42801300620880065
:1002100001301929023006208800023019290330E4
:100220000620880003301929043006208800043095
:100230001929000603192429CE206430B400323075
:10024000B5000330A700C428A0302E070406031908
:100250002B29840AC428C920AE0AB20A32080F30FA
:1002600032050A3A031D36290630B207840A2D08E2
:100270008000A03084000130A7002808AA002908C7
:10028000AB00C428013027060319C42806185A29D0
:1002900024185D29A00B5D292414003027060319BA
:1002A000DC28023027060319052903302706031925
:1002B000A3285D29FF30A000241001302706031970
:1002C000C42886187529A4187829A10B7829A414A4
:1002D000003027060319E4280230270603190A29EB
:1002E000033027060319A3287829FF30A100A410A2
:1002F000013027060319C4280619902924199329C7
:10030000A20B93292415003027060319EC2802308C
:10031000270603190F29033027060319A328932959
:10032000FF30A2002411013027060319C4288619C2
:10033000A729A419C428A30BC428A4150230270692
:1003400003191429033027060319A328C428FA30F7
:06035000A300A411C42863
:02400E00713F00
:00000001FF
