:020000040000FA
:06000000D1EF02F0120036
:0A0006000100D60500006F000000A5
:0400100003000000E9
:0C001400936AF90E946EF00E956E966AD9
:100020000F0EC16E846A826A816A010E836E190E98
:10003000E66EE66A3E0EE66E4EEC02F0E552E552E2
:10004000E5520001706B84849DD8800EE66E48D81E
:10005000E552650EE66E6DD8E552730EE66E69D810
:10006000E552630EE66E65D8E552C00EE66E38D8EE
:10007000E552620EE66E5DD8E552790EE66E59D80D
:10008000E552740EE66E55D8E552650EE66E51D80F
:10009000E552CFD8FED7120000017151026E036AFB
:1000A000000E0216010E031603C002F0036A02508E
:1000B00000017293E8B0728371C0E6FFAAEC02F00F
:1000C000E552ACA2FED7AC9070C06AF06AC0E6FF01
:1000D000AAEC02F0E552ACA2FED700016A6B120056
:1000E000D9CFE6FFE1CFD9FF849083CF6BF0956A3B
:1000F000010EE66EDFEC02F0E552FE0EDB50836E81
:100100008482030EE66EDFEC02F0E5528492F00E7C
:10011000956E010EE66EDFEC02F0E5526BC083FFD8
:10012000020EE66E93EC02F0E552E552E7CFD9FFFE
:100130001200D9CFE6FFE1CFD9FF848083CF6BF0E7
:10014000956A010EE66EDFEC02F0E552FE0EDB5022
:10015000836E8482030EE66EDFEC02F0E552849239
:10016000F00E956E010EE66EDFEC02F0E5526BC00C
:1001700083FF020EE66E93EC02F0E552E552E7CF04
:10018000D9FF1200380EE66EABDFE552060EE66EC2
:1001900093EC02F0E552380EE66EA2DFE5520C0E4B
:1001A000E66E9EDFE552060EE66E9ADFE552010E20
:1001B000E66E96DFE552020EE66E93EC02F0E55233
:1001C000800EE66E8DDFE5521200D9CFE6FFE1CF5B
:1001D000D9FFFE0EDB50090A26E0010A22E00F0AD1
:1001E0001EE0010A1AE0030A16E0010A12E0070AFB
:1001F0000EE0010A0AE0030A06E0010A02E0450EE9
:1002000014D0300E12D0310E10D0320E0ED0330E6C
:100210000CD0340E0AD0350E08D0360E06D0370E6C
:1002200004D0380E02D0390E00D0E552E7CFD9FF06
:10023000120083A003D0020E836E0ED083A203D0DF
:10024000040E836E09D083A403D0080E836E04D0FD
:1002500083A602D0010E836E010EE66E93EC02F0CF
:10026000E5528350100B01E0010E026E8350010B2A
:10027000021429E00A0EE66E93EC02F0E55200014A
:10028000010E716F702B70C081FF71C0E6FF9DDFA2
:10029000E55200016C6F830EE66E22DFE5526CC002
:1002A000E6FF47DFE55270C0E6FF8FDFE552000151
:1002B0006C6FC50EE66E14DFE5526CC0E6FF39DFE9
:1002C000E552EADE9BD08350100B01E0010E026E76
:1002D0008350020B01E0010E021429E00A0EE66EC3
:1002E00093EC02F0E5520001010E716F700770C0CF
:1002F00081FF71C0E6FF69DFE55200016C6F830E7C
:10030000E66EEEDEE5526CC0E6FF13DFE55270C02C
:10031000E6FF5BDFE55200016C6FC50EE66EE0DEC6
:10032000E5526CC0E6FF05DFE552B6DE67D08350CC
:10033000100B01E0010E026E8350040B01E0010E70
:10034000021429E00A0EE66E93EC02F0E552000179
:10035000020E716F702B70C081FF71C0E6FF35DF38
:10036000E55200016C6F830EE66EBADEE5526CC09A
:10037000E6FFDFDEE55270C0E6FF27DFE552000151
:100380006C6FC50EE66EACDEE5526CC0E6FFD1DEEA
:10039000E55282DE33D08350100B01E0010E026E75
:1003A0008350080B01E0010E021428E00A0EE66EED
:1003B00093EC02F0E5520001020E716F700770C0FD
:1003C00081FF71C0E6FF01DFE55200016C6F830E13
:1003D000E66E86DEE5526CC0E6FFABDEE55270C02D
:1003E000E6FFF3DEE55200016C6FC50EE66E78DEC7
:0E03F000E5526CC0E6FF9DDEE5524EDE1200C7
:0203FE00060EE9
:10040000F66E000EF76E000EF86E00010900F55052
:10041000656F0900F550666F03E1656701D03DD057
:100420000900F550606F0900F550616F0900F55043
:10043000626F09000900F550E96E0900F550EA6E97
:10044000090009000900F550636F0900F550646F59
:1004500009000900F6CF67F0F7CF68F0F8CF69F030
:1004600060C0F6FF61C0F7FF62C0F8FF0001635390
:1004700002E1645307E00900F550EE6E6307F8E20D
:100480006407F9D767C0F6FF68C0F7FF69C0F8FFD7
:0C04900000016507000E665BBFD712007C
:04049C00D9CFE6FFCF
:1004A000DACFE6FFE1CFD9FFE2CFDAFFAC6AAB6A81
:1004B000FD0EDBB0AC88DBA202D0AC8CAB8CDBB425
:1004C000AC8EDBA602D0AB8801D0AB8ADBB8AC84A3
:1004D0009E98DBBAAB86DBAC02D09D8A01D09D9A98
:1004E0009E9ADBAE02D09D8801D09D98FB0EDB501A
:1004F000AF6EFB0EFC0EDBCF03F003C002F0036A0D
:100500000250B06EAC8AAB8E949C948EAC50100BA3
:1005100004E0AC50800B01E1948CE552E5CFDAFFAA
:06052000E7CFD9FF120035
:0A052600FF0EE350056EEF0E01D04A
:10053000F30EE76EE72E9AEF02F00C0E046EE76AF8
:10054000E72EA0EF02F0042E9FEF02F0052E98EFA9
:0405500002F01200A3
:0C055400D9CFE6FFDACFE6FFE1CFD9FFF8
:10056000E2CFDAFFACAC04D0AC90000172B3AC8047
:10057000FD0EDB50AD6EE552E5CFDAFFE7CFD9FFD8
:02058000120067
:0E058200000EF36E00EE00F0080E01D812001D
:10059000EA6002D0EE6AFCD7F350E9601200EE6A1E
:0205A000FCD786
:0E05A20013EE00F023EE00F0F86A019CFFEC6F
:0E05B00001F0EAEC02F00AEC00F0FBD71200BA
:0205BE00FF0E2E
:1005C000E350E84E1200000000D000D000D0E82E2A
:0405D000FAD7120044
:0205D400120013
:0305D60000000121
:020000040030CA
:0100000000FF
:010001000EF0
:010002001EDF
:010003001EDE
:010006008178
:00000001FF
