:020000040000FA
:10000000662883160313FF3085000F308600F93011
:10001000870000308800890083120800FF30A000AC
:10002000A003031D102808000230A2000E20A20326
:10003000031D162808000130A400FF30A500A50309
:10004000031D1F28A403031D1D2808001B200618DC
:1000500008003F308000840AA30A3F30880006175A
:100060001420061308001B208618080006308000A4
:10007000840AA30A06308800861614208612080017
:100080001B20061908006D308000840AA30A5B302B
:10009000880006161420061208001B208619080086
:1000A0004030840000088800861714208613840AD4
:1000B000A30300302302031D522840308400A30113
:1000C0000800F0308800F0308600652801204030BC
:1000D00084008601A30106186E2826208618712840
:1000E000332006197428402086196B284D206B2870
:00000001FF
