:020000040000FA
:10000000012883160313FF3085000F30860001306E
:10001000870000308800890083120030A0001B2078
:100020000230A000AA30A10027201030A20000302A
:10003000A30041201A282008031783128D0083167D
:100040008C130C1483120C0803138312080020086D
:10005000031783128D000313210803178C008316E6
:100060008C130C158B1355308D00AA308D008C1419
:100070008B170C11831603178C183C28831203135B
:100080000800220803178F000313230803178D00AD
:1000900083168C170C140000000083120C08031345
:1000A000A40003170E080313A50008002308031774
:1000B0008D000313220803178F000313240803176E
:1000C0008C000313250803178E0083168C178B13DF
:1000D0000C1555308D00AA308D008D148B17000043
:0A00E00000000C1183120313080046
:04200000F134833400
:00000001FF
