:020000040000FA
:0600000073EF13F0120083
:0A0006000100182700007800000038
:0400100016000000D6
:0C001400060EF66E000EF76E000EF86E81
:1000200000010900F550936F0900F550946F03E14A
:10003000936701D03DD00900F5508E6F0900F5504F
:100040008F6F0900F550906F09000900F550E96EB7
:100050000900F550EA6E090009000900F550916F9A
:100060000900F550926F09000900F6CF95F0F7CF1F
:1000700096F0F8CF97F08EC0F6FF8FC0F7FF90C0D4
:10008000F8FF0001915302E1925307E00900F55097
:10009000EE6E9107F8E29207F9D795C0F6FF96C089
:1000A000F7FF97C0F8FF00019307000E945BBFD7DE
:0200B00012003C
:0E00B200FB0EE3CFF6FFFC0EE3CFF7FFFD0ED3
:1000C000E3CFF8FFFE0EE3CFE9FFFF0EE3CFEAFF39
:1000D000E9CFF3FFEACFF4FFF90EE35003E1FA0EA4
:1000E000E35009E0F90EE30602E2FA0EE306090026
:0800F000F5CFEEFFF1D712007D
:0200F8001200F4
:10010000000000000000005F000000030003001476
:100110003E143E14242A7F2A12433308666136496E
:100120005522500005030000001C2241000041221E
:100130001C0014083E081408083E0808005030004F
:100140000008080808080060600000201008040289
:100150003E5149453E04027F00004261514946221A
:10016000414949361814127F1027454545393E4903
:100170004949320101710907364949493626494939
:10018000493E003636000000563600000814224171
:100190000014141414140041221408020151090619
:1001A0003E4159555E7E0909097E7F494949363EDF
:1001B000414141227F4141413E7F494949417F09B7
:1001C0000909013E4141493A7F0808087F00417F03
:1001D0004100304040403F7F081422417F40404072
:1001E000407F020C027F7F0204087F3E4141413E76
:1001F0007F090909061E2121215E7F09090976264A
:100200004949493201017F01013F4040403F1F20E1
:1002100040201F7F2010207F41221C2241070870B0
:1002200008076151494543007F410000020408105E
:10023000200000417F000402010204404040404091
:10024000000102040020545454787F444444383858
:1002500044444444384444447F38545454180404B7
:100260007E0505085454543C7F0804047800447DFE
:1002700040002040443D007F1028440000417F4062
:10028000007C047804787C080404783844444438BA
:100290007C14141408081414147C007C080404480A
:1002A0005454542004043F44443C4040207C1C20CF
:1002B00040201C3C4030403C44281028440C505006
:1002C000503C4464544C44000836414100007F00D7
:1002D0000041413608000201020402000000000053
:1002E0007F0ED06E806A816A826A836A846A896AB4
:1002F0008A6A8B6A8C6A8D6AFB0E926E2C0E936EE4
:100300007D0E946E956A0C0E966E0F0EC16E070EE2
:10031000B46EC80EE66E53EC13F0E552010EE66EB5
:1003200047D9E552010EE66EE66E790EE66E000ED6
:10033000E66E0A0EE66E1E0EE66EC5EC0EF0006E60
:10034000060EE15E0050010EE66EE66E300EE66EC1
:10035000670EE66E260EE66E530EE66ED5DB006E79
:10036000060EE15E0050E66A010EE66E880EE66E4D
:10037000000EE66E280EE66E550EE66EC5EC0EF02B
:10038000006E060EE15E0050010EE66EE66A300E6B
:10039000E66E250EE66E260EE66E170EE66EB4DBF2
:1003A000006E060EE15E0050010EE66EE66E850EF2
:1003B000E66E000EE66E280EE66E190EE66EC5ECD1
:1003C0000EF0006E060EE15E00500001736B819826
:1003D000010EE66E80EC10F0E5520001776F010E21
:1003E000E66EE2EC10F0E552E66A80EC10F0E552C1
:1003F0000001766FE66AE2EC10F0E55200017351FD
:1004000001E1D4D077C0E6FF010EE66E31EC11F0C9
:10041000E552E5520001606F76C0E6FFE66A31EC16
:1004200011F0E552E5520001616F605117085CE27E
:10043000250E605D59E26151260856E2300E615D7D
:1004400053E2010EE66EE66E300EE66E250EE66EA7
:10045000260EE66E170EE66E57DB006E060EE15EA8
:100460000050E66A010EE66E850EE66E000EE66E40
:10047000280EE66E190EE66EC5EC0EF0006E060E46
:10048000E15E0050E66A010EE66E300EE66E670E23
:10049000E66E260EE66E530EE66E36DB006E060E38
:1004A000E15E0050010EE66EE66A300EE66E670E03
:1004B000E66E260EE66E530EE66E26DB006E060E28
:1004C000E15E0050010EE66EE66E880EE66E000EEE
:1004D000E66E280EE66E550EE66EC5EC0EF0006E6A
:1004E000060EE15E005081880001605153085CE215
:1004F000670E605D59E26151260856E2300E615D7B
:1005000053E2010EE66EE66E300EE66E670EE66EA4
:10051000260EE66E530EE66EF7DA006E060EE15E0C
:100520000050E66A010EE66E880EE66E000EE66E7C
:10053000280EE66E550EE66EC5EC0EF0006E060E49
:10054000E15E0050E66A010EE66E300EE66E250EA4
:10055000E66E260EE66E170EE66ED6DA006E060E14
:10056000E15E0050010EE66EE66A300EE66E250E84
:10057000E66E260EE66E170EE66EC6DA006E060E04
:10058000E15E0050010EE66EE66E850EE66E000E30
:10059000E66E280EE66E190EE66EC5EC0EF0006EE5
:1005A000060EE15E005081980001736B11D71200B6
:1005B000D9CFE6FFE1CFD9FF9390000000008A8CED
:1005C0008D928A908A928D90C00EE66EE66A36EC25
:1005D00010F0E552E552C00EE66E010EE66E36EC06
:1005E00010F0E552E552400EE66EE66A36EC10F089
:1005F000E552E552400EE66E010EE66E36EC10F066
:10060000E552E552B80EE66EE66A36EC10F0E552B9
:10061000E552B80EE66E010EE66E36EC10F0E552CD
:10062000E552FE0EDB0410E13F0EE66EE66A36ECA4
:1006300010F0E552E5523F0EE66E010EE66E36EC26
:1006400010F0E552E5520FD03E0EE66EE66A36EC4B
:1006500010F0E552E5523E0EE66E010EE66E36EC07
:1006600010F0E552E552E66AE2EC0FF0E5529380B5
:10067000E552E7CFD9FF1200D9CFE6FFE1CFD9FF8E
:10068000030EE126020EDB6AFE0EDB503F080FE28E
:10069000400E006EFE0EDBCFE7FF0050E75EFE0E61
:1006A000E7CFDBFF010EF36E020EF3CFDBFF8D9081
:1006B000FE0EDB507F0BE76EFE0EE7CFDBFFDB505D
:1006C0004009E76EFE0EE7CFDBFFFE0EDBCFE6FF55
:1006D000020EDBCFE6FF36EC10F0E552E552FD0EE0
:1006E000DB50F80BE842E842E842BF0BB809E66E7F
:1006F000020EDBCFE6FF36EC10F0E552E5528D80BE
:10070000020EDBCFE6FF56EC10F0E552DF6EFC0E7A
:10071000DB0417E1DE52010EDD6EFD0EDB50070B30
:10072000006E010EDB50005204E0E846FE0B0006AE
:10073000FCE1E76E010EE7CFDBFFDB50DF10DF6E81
:1007400017D0DE52010EDD6EFD0EDB50070B006E82
:10075000010EDB50005204E0E846FE0B0006FCE10F
:10076000E81CE76E010EE7CFDBFFDB50DF14DF6E26
:100770008D90FE0EDBCFE6FF020EDBCFE6FF36EC00
:1007800010F0E552E5528D80DFCFE6FF020EDBCFA1
:10079000E6FF36EC10F0E552E552030EE15C02E2B2
:1007A000E16AE552E16EE552E7CFD9FF1200D9CFF9
:1007B000E6FFE1CFD9FF0B0EE126FC0EDBCF00F008
:1007C000FE0EDB50D88000540CE2FC0EDBCFE6FFBF
:1007D000FE0EDB50E552E75CE76E040EE7CFDBFF71
:1007E0000BD0FE0EDBCFE6FFFC0EDB50E552E75CE4
:1007F000E76E040EE7CFDBFFFB0EDBCF00F0FD0E54
:10080000DB50D88000540CE2FB0EDBCFE6FFFD0E80
:10081000DB50E552E75CE76E050EE7CFDBFF0BD060
:10082000FD0EDBCFE6FFFB0EDB50E552E75CE76E2B
:10083000050EE7CFDBFFFE0EDB50DF6EFD0EDB505B
:10084000E76E010EE7CFDBFFFE0EDBCF00F0FC0E04
:10085000DB50D880005403E2020EDB6805D0010EA5
:10086000F36E020EF3CFDBFFFD0EDBCF00F0FB0ECD
:10087000DB50D880005403E2030EDB6805D0010E84
:10088000F36E030EF3CFDBFF040EDBCF00F0050E9B
:10089000DB50E76E0018E8AE02D0E73402D0E75034
:1008A000005C01E291D0040EDBCFE6FF050EDB50C9
:1008B000E824E552D880E754006E016A026A036AB0
:1008C00000AE03D0016802680368060E00C0DBFFBB
:1008D000070E01C0DBFF080E02C0DBFF090E03C0DC
:1008E000DBFF0A0EDB6ADBCF00F0040EDB50D880A2
:1008F000005469E3FA0EDBCFE6FF010EDBCFE6FF23
:10090000DFCFE6FFB9DEE552E552E552D950060FDA
:10091000E96EDACFEAFFD890030EEB50000A08E642
:10092000000EEE5C000EEE58000EEE58000EEE5873
:100930001DE2050EDB50E824006E016A026A036ABC
:1009400000AE03D0016802680368D950060FE96E53
:10095000DACFEAFF0050EE260150EE220250EE22DE
:100960000350EE22020EDB50DF262AD0050EDB50AC
:10097000E824046E040EDB50E824045C006E016A77
:10098000026A036A00AE03D0016802680368D950A6
:10099000060FE96EDACFEAFF0050EE260150EE2294
:1009A0000250EE220350EE22020EDB50DF26010E33
:1009B000DBCFE7FF030EDB50E726010EE7CFDBFFBF
:1009C0000A0EDB2A90D796D0050EDBCFE6FF040E89
:1009D000DB50E824E552D880E754006E016A026AD1
:1009E000036A00AE03D0016802680368060E00C007
:1009F000DBFF070E01C0DBFF080E02C0DBFF090EA4
:100A000003C0DBFF0A0EDB6ADBCF00F0050EDB5014
:100A1000D88000546FE3FA0EDBCFE6FF010EDBCF88
:100A2000E6FFDFCFE6FF28DEE552E552E552D9507A
:100A3000060FE96EDACFEAFFD890030EEB50000AFA
:100A400008E6000EEE5C000EEE58000EEE58000EAA
:100A5000EE5823E2040EDB50E824006E016A026ABD
:100A6000036A00AE03D0016802680368D950060F1C
:100A7000E96EDACFEAFF0050EE260150EE22025076
:100A8000EE220350EE22010EDBCFE7FF030EDB5018
:100A9000E726010EE7CFDBFF2AD0040EDB50E82467
:100AA000046E050EDB50E824045C006E016A026AE5
:100AB000036A00AE03D0016802680368D950060FCC
:100AC000E96EDACFEAFF0050EE260150EE22025026
:100AD000EE220350EE22020EDB50DF26010EDBCFAA
:100AE000E7FF030EDB50E726010EE7CFDBFF0A0E20
:100AF000DB2A8AD70B0EE15C02E2E16AE552E16E85
:100B0000E552E7CFD9FF1200D9CFE6FFE1CFD9FFF9
:100B1000020EE126FA0EDB5036E0FB0EDB50F36EE0
:100B2000FD0EDBCFF4FFF350F45C0AE2FD0EDB5068
:100B3000DF6EFB0EDB50E76E010EE7CFDBFF09D067
:100B4000FB0EDB50DF6EFD0EDB50E76E010EE7CFD4
:100B5000DBFF010EDB50D880DF5414E3F90EDBCF4E
:100B6000E6FFDFCFE6FFFC0EDBCFE6FFDFCFE6FFE1
:100B7000FE0EDBCFE6FF1BDE006E050EE15E0050D1
:100B8000DF2AE7D750D0F90EDBCFE6FFFD0EDBCF33
:100B9000E6FFFC0EDBCFE6FFFD0EDBCFE6FFFE0E31
:100BA000DBCFE6FF04DE006E050EE15E0050F90EBD
:100BB000DBCFE6FFFB0EDBCFE6FFFC0EDBCFE6FF75
:100BC000FB0EDBCFE6FFFE0EDBCFE6FFF0DD006EB7
:100BD000050EE15E0050F90EDBCFE6FFFB0EDBCF2A
:100BE000E6FFFE0EDBCFE6FFFD0EDBCFE6FFFE0EDF
:100BF000DBCFE6FFDCDD006E050EE15E0050F90E96
:100C0000DBCFE6FFFB0EDBCFE6FFFC0EDBCFE6FF24
:100C1000FD0EDBCFE6FFFC0EDBCFE6FFC8DD006E8E
:100C2000050EE15E0050020EE15C02E2E16AE5526F
:100C3000E16EE552E7CFD9FF1200D9CFE6FFE1CF51
:100C4000D9FF1A0EE126FC0EDBCFE6FFFE0EDB50CD
:100C5000E552E75C086E08C031F0B3EC11F02FC02C
:100C600004F030C005F031C006F032C007F004C017
:100C7000E6FF05C0E6FF06C0E6FF07C0E6FF0AEC98
:100C800013F0E552E552E552E5522EC000F02FC0B8
:100C900001F030C002F031C003F000C02FF001C0FD
:100CA00030F002C031F003C032F015EC12F0090E42
:100CB0002EC0DBFF0A0E2FC0DBFF0B0E30C0DBFFA8
:100CC0000C0E31C0DBFFFB0EDBCFE6FFFD0EDB5071
:100CD000E552E75C086E08C031F0B3EC11F02FC0AC
:100CE00004F030C005F031C006F032C007F004C097
:100CF000E6FF05C0E6FF06C0E6FF07C0E6FF0AEC18
:100D000013F0E552E552E552E5522EC000F02FC037
:100D100001F030C002F031C003F000C02FF001C07C
:100D200030F002C031F003C032F015EC12F00D0EBD
:100D30002EC0DBFF0E0E2FC0DBFF0F0E30C0DBFF1F
:100D4000100E31C0DBFFFE0EDB50DF6EFD0EDB5000
:100D5000E76E010EE7CFDBFFFE0EDBCF0CF00D6A76
:100D60000E6A0F6A090EDBCF08F00A0EDBCF09F01E
:100D70000B0EDBCF0AF00C0EDBCF0BF0000E086C75
:100D8000091E09220A1E0A220B1E0B2208C02EF081
:100D900009C02FF00AC030F00BC031F00CC033F0A6
:100DA0000DC034F00EC035F00FC036F0D2EC12F0AA
:100DB0002AC004F02BC005F02CC006F02DC007F0AF
:100DC000FD0EDBCF10F0116A126A136A10C02EF00C
:100DD00011C02FF012C030F013C031F00D0EDBCF78
:100DE00033F00E0EDBCF34F00F0EDBCF35F0100EEC
:100DF000DBCF36F0D2EC12F02A50045C006E2B50A0
:100E00000558016E2C500658026E2D500758036E7F
:100E1000110E00C0DBFF120E01C0DBFF130E02C07B
:100E2000DBFF140E03C0DBFFFC0EDBCF0CF00D6A02
:100E30000E6A0F6A090EDBCF08F00A0EDBCF09F04D
:100E40000B0EDBCF0AF00C0EDBCF0BF0000E086CA4
:100E5000091E09220A1E0A220B1E0B2208C02EF0B0
:100E600009C02FF00AC030F00BC031F00CC033F0D5
:100E70000DC034F00EC035F00FC036F0D2EC12F0D9
:100E80002AC004F02BC005F02CC006F02DC007F0DE
:100E9000FB0EDBCF10F0116A126A136A10C02EF03D
:100EA00011C02FF012C030F013C031F00D0EDBCFA7
:100EB00033F00E0EDBCF34F00F0EDBCF35F0100E1B
:100EC000DBCF36F0D2EC12F02A50045C006E2B50CF
:100ED0000558016E2C500658026E2D500758036EAF
:100EE000150E00C0DBFF160E01C0DBFF170E02C09F
:100EF000DBFF180E03C0DBFFFE0EDBCF00F0FC0EA5
:100F0000DB50D880005401E3D3D0020EDB68FC0E26
:100F1000DBCF0CF00D6A0E6A0F6A090EDBCF08F00A
:100F20000A0EDBCF09F00B0EDBCF0AF00C0EDBCF85
:100F30000BF0000E086C091E09220A1E0A220B1E65
:100F40000B2208C02EF009C02FF00AC030F00BC0F1
:100F500031F00CC033F00DC034F00EC035F00FC0CE
:100F600036F0D2EC12F02AC004F02BC005F02CC0F1
:100F700006F02DC007F0FB0EDBCF10F0116A126AED
:100F8000136A10C02EF011C02FF012C030F013C041
:100F900031F00D0EDBCF33F00E0EDBCF34F00F0E41
:100FA000DBCF35F0100EDBCF36F0D2EC12F02A504A
:100FB000045C006E2B500558016E2C500658026ED2
:100FC0002D500758036E110E00C0DBFF120E01C03A
:100FD000DBFF130E02C0DBFF140E03C0DBFFFE0EAF
:100FE000DBCF0CF00D6A0E6A0F6A090EDBCF08F03A
:100FF0000A0EDBCF09F00B0EDBCF0AF00C0EDBCFB5
:101000000BF0000E086C091E09220A1E0A220B1E94
:101010000B2208C02EF009C02FF00AC030F00BC020
:1010200031F00CC033F00DC034F00EC035F00FC0FD
:1010300036F0D2EC12F02AC004F02BC005F02CC020
:1010400006F02DC007F0FD0EDBCF10F0116A126A1A
:10105000136A10C02EF011C02FF012C030F013C070
:1010600031F00D0EDBCF33F00E0EDBCF34F00F0E70
:10107000DBCF35F0100EDBCF36F0D2EC12F02A5079
:10108000045C006E2B500558016E2C500658026E01
:101090002D500758036E150E00C0DBFF160E01C061
:1010A000DBFF170E02C0DBFF180E03C0DBFF05D00D
:1010B000010EF36E020EF3CFDBFFFD0EDBCF00F06F
:1010C000FB0EDB50D880005401E3D3D0030EDB6865
:1010D000FC0EDBCF0CF00D6A0E6A0F6A090EDBCF37
:1010E00008F00A0EDBCF09F00B0EDBCF0AF00C0E76
:1010F000DBCF0BF0000E086C091E09220A1E0A2223
:101100000B1E0B2208C02EF009C02FF00AC030F0D1
:101110000BC031F00CC033F00DC034F00EC035F010
:101120000FC036F0D2EC12F02AC004F02BC005F04C
:101130002CC006F02DC007F0FB0EDBCF10F0116ABB
:10114000126A136A10C02EF011C02FF012C030F0D6
:1011500013C031F00D0EDBCF33F00E0EDBCF34F0C9
:101160000F0EDBCF35F0100EDBCF36F0D2EC12F0E5
:101170002A50045C006E2B500558016E2C50065806
:10118000026E2D500758036E110E00C0DBFF120EC9
:1011900001C0DBFF130E02C0DBFF140E03C0DBFF38
:1011A000FE0EDBCF0CF00D6A0E6A0F6A090EDBCF64
:1011B00008F00A0EDBCF09F00B0EDBCF0AF00C0EA5
:1011C000DBCF0BF0000E086C091E09220A1E0A2252
:1011D0000B1E0B2208C02EF009C02FF00AC030F001
:1011E0000BC031F00CC033F00DC034F00EC035F040
:1011F0000FC036F0D2EC12F02AC004F02BC005F07C
:101200002CC006F02DC007F0FD0EDBCF10F0116AE8
:10121000126A136A10C02EF011C02FF012C030F005
:1012200013C031F00D0EDBCF33F00E0EDBCF34F0F8
:101230000F0EDBCF35F0100EDBCF36F0D2EC12F014
:101240002A50045C006E2B500558016E2C50065835
:10125000026E2D500758036E150E00C0DBFF160EF0
:1012600001C0DBFF170E02C0DBFF180E03C0DBFF5F
:1012700005D0010EF36E030EF3CFDBFF0D0EDBCFB7
:1012800000F00E0EDBCF01F00F0EDBCF02F0100EE0
:10129000DBCF03F0D950090FE96EDACFEAFF030E76
:1012A000EB500318E8AE02D0033408D00050EE5CD7
:1012B0000150EE580250EE580350EE5801E2E8D1CA
:1012C0000D0EDBCF04F00E0EDBCF05F00F0EDBCFE3
:1012D00006F0100EDBCF07F0D89004360536063640
:1012E0000736D950090FE96EDACFEAFFEE50045CF9
:1012F000006EEE500558016EEE500658026EEE502C
:101300000758036E050E00C0DBFF060E01C0DBFFB1
:10131000070E02C0DBFF080E03C0DBFF190EDB6AFD
:10132000DBCF00F0016A026A036A090EDBCF2FF0FF
:101330000A0EDBCF30F00B0EDBCF31F00C0EDBCF23
:1013400032F032500318E8AE02D0033408D0005017
:101350002F5C01503058025031580350325801E28E
:1013600096D1FA0EDB50FE0BE842FF0D040EF3CFD0
:10137000DBFFFA0EDB50010B006EFA0EDB50FE0BAA
:10138000E8420024F36E040EDBCFF4FFF350F45C6C
:1013900001E3FED0DFCF0CF00D6A0E6A0F6A0CAECF
:1013A00003D00D680E680F680CC02EF00DC02FF032
:1013B0000EC030F00FC031F0090EDBCF33F00A0E53
:1013C000DBCF34F00B0EDBCF35F00C0EDBCF36F07D
:1013D000D2EC12F02AC008F02BC009F02CC00AF0A1
:1013E0002DC00BF0040EDBCFE6FF010EDB50E55203
:1013F000E724106E116A126A136A10AE03D01168E6
:101400001268136810C02EF011C02FF012C030F017
:1014100013C031F00D0EDBCF33F00E0EDBCF34F006
:101420000F0EDBCF35F0100EDBCF36F0D2EC12F022
:1014300008502A24046E09502B20056E0A502C20D7
:10144000066E0B502D20076ED950110FE96EDACFC2
:10145000EAFF0450EE24006E0550EE20016E0650A7
:10146000EE20026E0750EE20036E0001800E031482
:1014700001E08BD0DFCF20F0216A226A236A20AE00
:1014800003D021682268236820C02EF021C02FF0ED
:1014900022C030F023C031F0090EDBCF33F00A0E4A
:1014A000DBCF34F00B0EDBCF35F00C0EDBCF36F09C
:1014B000D2EC12F02AC01CF02BC01DF02CC01EF084
:1014C0002DC01FF0040EDBCFE6FF010EDB50E5520E
:1014D000E724246E256A266A276A24AE03D025688D
:1014E0002668276824C02EF025C02FF026C030F0D3
:1014F00027C031F00D0EDBCF33F00E0EDBCF34F012
:101500000F0EDBCF35F0100EDBCF36F0D2EC12F041
:101510001C502A24186E1D502B20196E1E502C2092
:101520001A6E1F502D201B6ED950150FE96EDACFA1
:10153000EAFF1850EE24146E1950EE20156E1A5062
:10154000EE20166E1B50EE20176E1734000E171883
:1015500009E6D880000E1454000E1554000E1654DF
:10156000000E175412E3F90EDBCFE6FF040EDBCFBB
:10157000E6FF010EDB50E552E724E66EDFCFE6FF23
:101580003CEC03F0E552E552E552040EDB2AF1D6BD
:10159000D950050FE96EDACFEAFFD890030EEB5071
:1015A000000A08E6000EEE5C000EEE58000EEE5843
:1015B000000EEE5822E20D0EDBCF00F00E0EDBCF58
:1015C00001F00F0EDBCF02F0100EDBCF03F0D8904E
:1015D0000036013602360336D950050FE96EDACFF0
:1015E000EAFF0050EE260150EE220250EE22035098
:1015F000EE22020EDB50DF2647D00D0EDBCF04F0CB
:101600000E0EDBCF05F00F0EDBCF06F0100EDBCF9A
:1016100007F0D8900436053606360736090EDBCFBC
:1016200008F00A0EDBCF09F00B0EDBCF0AF00C0E30
:10163000DBCF0BF0D890083609360A360B36085047
:10164000045C006E09500558016E0A500658026E7F
:101650000B500758036ED950050FE96EDACFEAFF39
:101660000050EE260150EE220250EE220350EE22F0
:10167000020EDB50DF26010EDBCFE7FF030EDB504F
:10168000E726010EE7CFDBFF190EDB2A49D6EAD1A8
:10169000090EDBCF04F00A0EDBCF05F00B0EDBCF1B
:1016A00006F00C0EDBCF07F0D89004360536063670
:1016B0000736D9500D0FE96EDACFEAFFEE50045C21
:1016C000006EEE500558016EEE500658026EEE5058
:1016D0000758036E050E00C0DBFF060E01C0DBFFDE
:1016E000070E02C0DBFF080E03C0DBFF190EDB6A2A
:1016F000DBCF00F0016A026A036A0D0EDBCF2FF028
:101700000E0EDBCF30F00F0EDBCF31F0100EDBCF43
:1017100032F032500318E8AE02D0033408D0005043
:101720002F5C01503058025031580350325801E2BA
:1017300099D1D950050FE96EDACFEAFFD890030EA0
:10174000EB50000A08E6000EEE5C000EEE58000EAC
:10175000EE58000EEE5828E2090EDBCF00F00A0E1C
:10176000DBCF01F00B0EDBCF02F00C0EDBCF03F072
:10177000D8900036013602360336D950050FE96E8F
:10178000DACFEAFF0050EE260150EE220250EE22A0
:101790000350EE22010EDBCFE7FF030EDB50E726FE
:1017A000010EE7CFDBFF47D0090EDBCF04F00A0EB6
:1017B000DBCF05F00B0EDBCF06F00C0EDBCF07F016
:1017C000D89004360536063607360D0EDBCF08F006
:1017D0000E0EDBCF09F00F0EDBCF0AF0100EDBCFC1
:1017E0000BF0D890083609360A360B360850045CE0
:1017F000006E09500558016E0A500658026E0B50D3
:101800000758036ED950050FE96EDACFEAFF005092
:10181000EE260150EE220250EE220350EE22020E7E
:10182000DB50DF26010EDBCFE7FF030EDB50E726A0
:10183000010EE7CFDBFFFA0EDB50FE0BE842FF0D97
:10184000040EF3CFDBFFFA0EDB50010B006EFA0E35
:10185000DB50FE0BE8420024F36E040EDBCFF4FFF6
:10186000F350F45C01E3FBD0DFCF0CF00D6A0E6A9D
:101870000F6A0CAE03D00D680E680F680CC02EF016
:101880000DC02FF00EC030F00FC031F0090EDBCFCD
:1018900033F00A0EDBCF34F00B0EDBCF35F00C0E3D
:1018A000DBCF36F0D2EC12F02AC008F02BC009F0E2
:1018B0002CC00AF02DC00BF0040EDBCFE6FF010EAA
:1018C000DB50E552E724106E116A126A136A10AEFB
:1018D00003D011681268136810C02EF011C02FF0E9
:1018E00012C030F013C031F00D0EDBCF33F00E0E0E
:1018F000DBCF34F00F0EDBCF35F0100EDBCF36F040
:10190000D2EC12F008502A24046E09502B20056EE8
:101910000A502C20066E0B502D20076ED950110F47
:10192000E96EDACFEAFF0450EE24006E0550EE2097
:10193000016E0650EE20026E0750EE20036E00018D
:10194000800E031401E088D0DFCF20F0216A226AE4
:10195000236A20AE03D021682268236820C02EF0BD
:1019600021C02FF022C030F023C031F0090EDBCFB0
:1019700033F00A0EDBCF34F00B0EDBCF35F00C0E5C
:10198000DBCF36F0D2EC12F02AC01CF02BC01DF0D9
:101990002CC01EF02DC01FF0040EDBCFE6FF010EA1
:1019A000DB50E552E724246E256A266A276A24AEB6
:1019B00003D025682668276824C02EF025C02FF0A4
:1019C00026C030F027C031F00D0EDBCF33F00E0E05
:1019D000DBCF34F00F0EDBCF35F0100EDBCF36F05F
:1019E000D2EC12F01C502A24186E1D502B20196EB8
:1019F0001E502C201A6E1F502D201B6ED950150F13
:101A0000E96EDACFEAFF1850EE24146E1950EE207A
:101A1000156E1A50EE20166E1B50EE20176E1734FE
:101A2000000E171809E6D880000E1454000E155445
:101A3000000E1654000E17540FE3F90EDBCFE6FF2D
:101A4000010EDBCFE6FF040EDB50DF24E66E3CEC3C
:101A500003F0E552E552E552040EDB2AF4D6190EE6
:101A6000DB2A46D61A0EE15C02E2E16AE552E16E3B
:101A7000E552E7CFD9FF1200D9CFE6FFE1CFD9FF7A
:101A8000030EE126DF6AFC0EDB50E76E010EE7CFA6
:101A9000DBFFFC0EDBCFE6FF010EE552D880E754FA
:101AA000E76E020EE7CFDBFFFB0EDB5001E189D0D2
:101AB000FA0EDBCFE6FF010EDBCFE6FFFD0EDB50BB
:101AC000E552E724E66EFE0EDB50DF24E66E010EE3
:101AD000DBCFE6FFFD0EDB50E552E724E66EFE0E9F
:101AE000DB50D880DF54E66ED7EC03F0006E050EB5
:101AF000E15E0050FA0EDBCFE6FFFD0EDBCFE6FF26
:101B0000010EDB50E552E75CE66EFE0EDB50DF2493
:101B1000E66EFD0EDBCFE6FF010EDB50E552E75C23
:101B2000E66EFE0EDB50D880DF54E66ED7EC03F095
:101B3000006E050EE15E0050FA0EDBCFE6FFFD0EF3
:101B4000DB50DF24E66E010EDBCFE6FFFE0EDB503E
:101B5000E552E724E66EFD0EDB50DF24E66EFE0E56
:101B6000DBCFE6FF010EDB50E552E75CE66ED7EC1B
:101B700003F0006E050EE15E0050FA0EDBCFE6FFCB
:101B8000FD0EDB50D880DF54E66E010EDBCFE6FFA2
:101B9000FE0EDB50E552E724E66EFD0EDB50D880EA
:101BA000DF54E66EFE0EDBCFE6FF010EDB50E552A2
:101BB000E75CE66ED7EC03F0006E050EE15E0050C8
:101BC000A4D0FA0EDBCFE6FFFD0EDBCFE6FF010E61
:101BD000DB50E552E724E66EFE0EDB50DF24E66EB6
:101BE0003CEC03F0E552E552E552FA0EDBCFE6FF9E
:101BF000FD0EDB50DF24E66EFE0EDBCFE6FF010EAE
:101C0000DB50E552E724E66E3CEC03F0E552E5528A
:101C1000E552FA0EDBCFE6FFFD0EDBCFE6FF010E4D
:101C2000DB50E552E724E66EFE0EDB50D880DF5431
:101C3000E66E3CEC03F0E552E552E552FA0EDBCFDE
:101C4000E6FFFD0EDB50DF24E66EFE0EDBCFE6FF87
:101C5000010EDB50E552E75CE66E3CEC03F0E5522A
:101C6000E552E552FA0EDBCFE6FFFD0EDB50D880E1
:101C7000DF54E66EFE0EDBCFE6FF010EDB50E552D1
:101C8000E724E66E3CEC03F0E552E552E552FA0E2D
:101C9000DBCFE6FFFD0EDBCFE6FF010EDB50E552AA
:101CA000E75CE66EFE0EDB50DF24E66E3CEC03F0F4
:101CB000E552E552E552FA0EDBCFE6FFFD0EDBCF33
:101CC000E6FF010EDB50E552E75CE66EFE0EDB50F0
:101CD000D880DF54E66E3CEC03F0E552E552E55265
:101CE000FA0EDBCFE6FFFD0EDB50D880DF54E66E48
:101CF000FE0EDBCFE6FF010EDB50E552E75CE66E41
:101D00003CEC03F0E552E552E552020EDBCF00F069
:101D100000340EE3DF50DF2AE824030F006E020ECA
:101D2000DBCFE7FF0050E726020EE7CFDBFF14D042
:101D3000DF50DF2A016E010EDBCFF3FFDB06F3502D
:101D4000015CE824050F006E020EDBCFE7FF0050B8
:101D5000E726020EE7CFDBFFDFCF00F0010EDB50FE
:101D6000E76E0018E8AE02D0003403D0E750D88008
:101D7000005401E399D6030EE15C02E2E16AE55208
:101D8000E16EE552E7CFD9FF1200D9CFE6FFE1CFF0
:101D9000D9FF0B0EE126DF6ADF50E76EFB0EDBCFCB
:101DA000E9FFFC0EDBCFEAFFE750E926000EEA224E
:101DB000EF5001E1FDD0DF50E76EFB0EDBCFE9FF16
:101DC000FC0EDBCFEAFFE750E926000EEA22EF50D7
:101DD0007E082EE3050EE66EE66ADF50E76EFB0E28
:101DE000DBCFE9FFFC0EDBCFEAFFE750E926000E70
:101DF000EA22EF50E00F050DF3CF00F0F4CF01F031
:101E0000000E0026010E0122026A00C0E6FF01C09A
:101E1000E6FF02C0E6FFD950050FE66E000EDA209D
:101E2000E66E59EC00F0036E070EE15E03501AD027
:101E3000050EE66EE66A000E006E010E016E026A85
:101E400000C0E6FF01C0E6FF02C0E6FFD950050F63
:101E5000E66E000EDA20E66E59EC00F0036E070E17
:101E6000E15E0350FE0EDBCFE6FFFA0EDB50050D00
:101E7000F350E552E724006E016AD890015004E661
:101E8000800E005C000E01580FE3FE0EDB6AFA0EB6
:101E9000DB50070DF328006EFD0EDBCFE7FF00508F
:101EA000E726FD0EE7CFDBFF010EDB6A050EF36EC2
:101EB000010EDBCFF4FFF350F45C76E2020EDB6A36
:101EC000FA0EDB50070DF350F36E020EDBCFF4FF7A
:101ED000F350F45C5DE2020EDBCF02F0D950050F47
:101EE000006EDACF01F0010EDB500F010024E96E25
:101EF000000E0120EA6EEF5002C0E7FFE75204E057
:101F0000E8427F0BE706FCE1010B3FE0030EDB6AD2
:101F1000FA0EDB50F36E030EDBCFF4FFF350F45CEC
:101F200034E2040EDB6AFA0EDB50F36E040EDBCFF4
:101F3000F4FFF350F45C26E2F90EDBCFE6FF030E6C
:101F4000DBCFE6FFFD0EDBCFE6FFFA0EDBCFE6FFD1
:101F5000020EDB50E552E702F350E552E724E5526A
:101F6000E724E66E040EDBCFE6FFFE0EDB50E55203
:101F7000E724E66E3CEC03F0E552E552E552040E30
:101F8000DB2AD1D7030EDB2AC3D7020EDB2A98D770
:101F9000010EDB2AFE0EDBCFE7FFFA0EDB50E72651
:101FA000FE0EE7CFDBFF82D7DF2AFE0EDB2AF4D658
:101FB0000B0EE15C02E2E16AE552E16EE552E7CF29
:101FC000D9FF1200D9CFE6FFE1CFD9FF020EE126FB
:101FD000DF6A080EDF5C40E28D90400EE66E010E77
:101FE000E66E44D8E552E552400EE66EE66A3ED80B
:101FF000E552E552B80EDF10E66E010EE66E36D8F9
:10200000E552E552B80EDF10E66EE66A2FD8E552CB
:10201000E5528D80010EDB6A400EF36E010EDBCFC0
:10202000F4FFF350F45C16E2FE0EDB50FF0DF350AC
:10203000E66EE66A1BD8E552E552FE0EDB50FF0D58
:10204000F350E66E010EE66E11D8E552E552010E30
:10205000DB2AE2D7DF2ABDD7020EE15C02E2E16AA9
:10206000E552E16EE552E7CFD9FF1200D9CFE6FF86
:10207000E1CFD9FF939000000000FE0EDB5002E19B
:102080008A8001D08A828A9EFD0EDB50836E00001A
:1020900000008D82000000008D92000000008A90F8
:1020A0008A929380E552E7CFD9FF1200D9CFE6FF9D
:1020B000E1CFD9FFE652DF6A939000000000FE0EE8
:1020C000DB5002E18A8001D08A8295688A8E000006
:1020D00000008D82000000008D92000000008D82C3
:1020E000000000008350DF6E000000008D928A9097
:1020F0008A92956A9380E552E552E7CFD9FF1200A4
:10210000D9CFE6FFE1CFD9FF020EE126808400009F
:1021100000008094FE0EDB5003E0D10EDF6E02D093
:10212000910EDF6E010EDB6A080EF36E010EDBCF3F
:10213000F4FFF350F45C13E2DFAE02D0828E01D0E4
:10214000829E000000008182000000008192000059
:102150000000DF50E824DF6E010EDB2AE5D7829E07
:10216000020EE66E81EC13F0E552DF6A010EDB6AC7
:10217000080EF36E010EDBCFF4FFF350F45C13E2B4
:10218000DF50E824DF6E00000000818200000000C4
:1021900081920000000081A003D0010EDF10DF6EED
:1021A000010EDB2AE5D78084DF5000D0006E020EDE
:1021B000E15C02E2E16AE552E16E0050E552E7CFF0
:1021C000D9FF1200D9CFE6FFE1CFD9FFFE0EDB50D9
:1021D0001CE100017451765D08E18DC06FF06D0760
:1021E0006D5102E1010E716F0DD08CC06DF06F0763
:1021F0006F5108E1716B746B736B00010A0E8C6F89
:10220000020E8D6F76C074F01BD000017551775DA2
:1022100008E18DC070F06E076E5102E1010E726F21
:102220000DD08CC06EF07007705108E1726B756B49
:10223000736B00010A0E8C6F020E8D6F77C075F004
:10224000000171510AE0725108E0010E736F716B69
:10225000726B00018C6F020E8D6FE552E7CFD9FFD4
:102260001200D9CFE6FFE1CFD9FF020EE126FE0E24
:10227000DB0433E1FD0EDB50026E036AEB0E025EFF
:10228000000E035A800E306E316A02C035F003C072
:1022900036F0E8EC11F02EC000F02FC001F0230E54
:1022A000356E366800C030F001C031F0C2EC11F07C
:1022B00030C000F031C001F000C0DEFF01C0DDFF22
:1022C000DECF00F0DDCF01F00001800E011403E04D
:1022D000000E3BD03AD0DF5038D0FE0EDB5033E159
:1022E000FD0EDB50026E036A1D0E025E000E035AE5
:1022F000400E306E316A02C035F003C036F0E8ECB3
:1023000011F02EC000F02FC001F0C50E356E366AF8
:1023100000C030F001C031F0C2EC11F030C000F06C
:1023200031C001F000C0DEFF01C0DDFFDECF00F0F4
:10233000DDCF01F00001800E011403E0000E05D096
:1023400004D0DF5002D0000E00D0006E020EE15C1F
:1023500002E2E16AE552E16E0050E552E7CFD9FFB3
:02236000120069
:0E236200299E05D0299E31AE02D0316C298E05
:1023700031C02BF02A6A3B6A3A6A860E2C6E2D6AAF
:1023800068EF12F0286A36AECBEF11F0356C361ECE
:10239000E86A3622281E31AED3EF11F0306C311EC0
:1023A000E86A3122281E3DEC13F031BEE3EF11F054
:1023B00028AE000C306C311EE86A31222C6C2D1EC8
:1023C000E86A2D22000C28BEDAEF11F02988FF0CF4
:1023D00031C03BF030C03AF030503502F4CF2FF02E
:1023E000F3CF2EF031503602F4CF31F0F3CF30F08E
:1023F0003502F3502F26F4503022E86A31223A5049
:102400003602F3502F26F4503022E86A312236AEDD
:102410000EEF12F03A50305E3B50315A3BAE000C9A
:102420003550305E3650315A000C296AA4EC12F057
:1024300029B61FEF12F029A20FD029B407D07F0EC2
:10244000316EFF0E306E2F6E2E6E25D0800E316EE7
:1024500001D0316A000EF6D729B0FBD72E6A9F0E45
:102460003260EBD77E0E3264F4D79E0E325C07E00A
:10247000D890313230322F322E32322AF6D729A478
:102480000AD02E6C2F1E301E311EE86A2F223022F9
:10249000312231AEDED712007F0E326EFF0E316E6A
:1024A000306E2F6E12007F0E29BEFF0E326E02D0EC
:1024B0007F0E326E800E316E306A2F6AF3D729AEEE
:1024C00004D0800E326E316AF7D7326A316AF4D79F
:1024D0002B502A103B103A10F8E02DBEF0D72BBE3F
:1024E0000CD02C502D10EBE0D8903A363B362A36E3
:1024F0002B362C06D8A02D06F2D72D50D4E12C284F
:10250000D2E03AAE11D07F0E3A1402E13BA00CD0DB
:102510003B2AE86A2A222B2207E3D8802B322A3270
:102520003B322C2A2C28BFE02C50C9E03BC02FF0B6
:102530002AC030F02B34316E2C30326E3132329E64
:1025400029BE328E52EF12F03136323602E3298440
:10255000297E06E12980326A316A306A2F6A1200C8
:10256000322803E0D88031321200D890313202E1B3
:1025700029821200298612003636373602E3298C6A
:10258000297E06E12988376A366A356A346A12007C
:10259000372803E0D88036321200D8903632EAE18C
:0425A000298A120072
:0C25A4002E503302F3CF2AF0F4CF2BF0BE
:1025B0003402F3502B26000EF4202C6E2E503502E0
:1025C000F3502C26000EF4202D6E2E503602F350C0
:1025D0002D262F503302F3502B26F4502C22000EC0
:1025E0002D222F503402F3502C26F4502D222F5040
:1025F0003502F3502D2630503302F3502C26F45080
:102600002D2230503402F3502D2631503302F35036
:042610002D26120061
:0C261400D9CFE6FFDACFE6FFE1CFD9FF17
:10262000E2CFDAFFE652E652D950FD0F006EFF0E00
:10263000DA2000C0DEFFDD6EDECFE9FFDDCFEAFF8E
:10264000EF9EFA0EDBCF00F0FB0EDBCF01F0FC0EAD
:10265000DBCF02F0FD0EDBCF03F000C02EF001C097
:102660002FF002C030F003C031F0E552E552E552E0
:0A267000E5CFDAFFE7CFD9FF120033
:06267A002D6A2C6A100E0F
:10268000E76ED890303631362C362D3635502C5CEE
:1026900036502D5805E335502C5E36502D5A302AD1
:0626A000E72EF0D7120046
:0A26A600FF0EE3503C6E480E01D019
:1026B0004C0EE76EE72EFED7E76AE72EFED73C2EDC
:0626C000F7D70000120034
:0A26C600000EF36E00EE00F0080EA7
:1026D00001D81200EA6002D0EE6AFCD7F350E9603C
:0626E0001200EE6AFCD7B7
:0A26E60013EE00F023EE00F0F86A96
:1026F000299C0AEC00F07CEC00F070EC01F0FBD7B8
:022700001200C5
:0E270200FF0EE350E84E1200000000D000D0A1
:0827100000D0E82EFAD71200F8
:082718000056454E54494C41A6
:0E272000444F523A004F4E004F4646000A0208
:020000040030CA
:0100000018E7
:010001000CF2
:0100020016E7
:010003000EEE
:01000500807A
:010006008079
:010008000FE8
:01000900C036
:01000A000FE6
:01000B00E014
:01000C000FE4
:01000D0040B2
:00000001FF
