:020000040000FA
:0600000064EF05F01200A0
:020006001200E6
:060008001CEF00F01200E5
:01000E0000F1
:0600180040EF00F01200B1
:02001E000200DE
:10002000080B000080000000140000000E0000001B
:08003000A60000000100000021
:080038009EAA08D0B3EC04F00D
:100040000001936F0001010EA46F9E9AF2A416D0D6
:10005000ED0EE66E850EE66EEEEC04F0E552E5522E
:100060008CC08EF08DC08FF00001906B916B000101
:100070008C6B8D6B0001010E926FF29411001200D7
:10008000E8CF9EF0D8CFA0F0E0CF9FF000018C2BFE
:10009000000E8D239E949EC0E8FFA0C0D8FF9FC095
:1000A000E0FF10001200D9CFE6FFE1CFD9FF000139
:1000B000A16BA26BA36BFB0EDBCF00F0FC0EDBCFC2
:1000C00001F0FD0EDBCF02F0FE0EDBCF03F0640E7D
:1000D000005E000E015A025A035A0001800E0314FA
:1000E0000FE10001A12BD950FB0FE96EFF0EDA20C2
:1000F000EA6E640EEE5E000EEE5AEE5AEE5ADBD752
:10010000FB0EDBCF00F0FC0EDBCF01F0FD0EDBCFF2
:1001100002F0FE0EDBCF03F00A0E005E000E015A65
:10012000025A035A0001800E03140FE10001A22BB2
:10013000D950FB0FE96EFF0EDA20EA6E0A0EEE5E72
:10014000000EEE5AEE5AEE5ADBD7FB0EDBCFA3F0D1
:10015000300E0001A125A16F300EA225A26F300E36
:10016000A325A36FE552E7CFD9FF1200070EC16E9A
:1001700092680C0E936EF90E946E956A966A816A77
:10018000836A070EE66E92EC04F0E552000EE66E0E
:10019000E66AD2EC04F0E552E552070EE66EE66A36
:1001A0008B0EE66E41EC04F0E552E552E5529F9469
:1001B000A26A040EF16E940EE66E0AEC05F0E552AA
:1001C000ED0EE66E850EE66EEEEC04F0E552E552BD
:1001D0009E94F294D08E9F8AF28EF28C310EE66E4F
:1001E000D7EC03F0E552C80E0001806F816B80C030
:1001F000E6FF81C0E6FF12EC04F0E552E552190E6D
:10020000E66EE66A7C0EE66E9AEC03F0E552E55285
:10021000E552F18EA2D88150040B01E177D08150D4
:10022000080B74E00001925141E0926B8EC0E6FF32
:100230008FC0E6FF90C0E6FF91C0E6FF34DFE552D5
:10024000E552E552E552800EE66EAED8E552A1C009
:10025000E6FFC5D8E552A2C0E6FFC1D8E552A3C06B
:10026000E6FFBDD8E552A1C0E6FF3DEC05F0E55242
:10027000010EE66E26EC05F0E552A2C0E6FF3DEC6D
:1002800005F0E552010EE66E26EC05F0E552A3C03E
:10029000E6FF3DEC05F0E552010EE66E26EC05F0BA
:1002A000E5520D0EE66E3DEC05F0E5520001A4515D
:1002B0002CE0C00EE66E78D8E55293C0E6FF8FD8EA
:1002C000E5520001A46B750E0001935D09E1C80EB3
:1002D000805D000E815904E20A0E8027000E812302
:1002E000640E935D0AE1000ED8808055000E8155A2
:1002F00004E20A0E805F000E815B80C0E6FF81C0D1
:10030000E6FF12EC04F0E552E55285D7140EE66ED6
:1003100054EC05F0E5528150040B04E18150080BC8
:1003200001E006D08150040B03E08150080B00E18E
:100330008150040B03E08150080B01E1F9D7140E42
:10034000E66E54EC05F0E5528150040B03E0815059
:10035000080B01E1F9D75FD71200380EE66E24D8FA
:10036000E552030EE66E54EC05F0E552380EE66EEB
:100370001BD8E552060EE66E17D8E5520C0EE66E57
:1003800013D8E552010EE66E0FD8E552010EE66E67
:1003900054EC05F0E552800EE66E06D8E552580E94
:1003A000E66E1DD8E5521200D9CFE6FFE1CFD9FFA6
:1003B0008490FE0EDB50836E010EE66E72EC05F04B
:1003C000E55284820000000000008492010EE66E77
:1003D00054EC05F0E552E552E7CFD9FF1200D9CF32
:1003E000E6FFE1CFD9FF8480FE0EDB50836E010E65
:1003F000E66E72EC05F0E552848200000000000019
:100400008492010EE66E54EC05F0E5528480E552CC
:06041000E7CFD9FF120046
:0A0416000001010EA66F070EC16E73
:10042000956A836A96909692929084908492809036
:10043000980EE66E3A0EE66E6BEC04F0E552E5526D
:10044000300E836E8482E66A6BEC04F0E55284928F
:10045000A00EE66E0F0EE66E6BEC04F0E552E55270
:10046000300E836E8482E66A6BEC04F0E55284926F
:10047000A00EE66E0F0EE66E6BEC04F0E552E55250
:10048000300E836E8482E66A6BEC04F0E55284924F
:10049000380EE66E15D8E552080EE66E11D8E55214
:1004A000010EE66E0DD8E552060EE66E09D8E5524D
:1004B0000F0EE66E05D8E5520001A66B00D01200C3
:1004C000D9CFE6FFE1CFD9FF0001A60508E1E80E8C
:1004D000E66E030EE66E6BEC04F0E552E5520001A9
:1004E000A65108E1E80EE66E030EE66E6BEC04F032
:1004F000E552E552849084928090FE0EDB50836E2C
:100500008482E66A6BEC04F0E552849200D0E552F6
:10051000E7CFD9FF1200D9CFE6FFE1CFD9FFE80E30
:10052000E66E030EE66E6BEC04F0E552E552809049
:1005300084808492FE0EDB50836E8482E66A6BECCC
:1005400004F0E552849200D0E552E7CFD9FF1200C3
:100550008490808084929568836A8482E66A6BECDA
:1005600004F0E5520001A60505E183BEFED78492A2
:10057000956A07D0A65105E183BEFED78492956A9D
:1005800000D01200D9CFE6FFE1CFD9FFE652DF6AF3
:10059000E80EE66E030EE66E6BEC04F0E552E552F3
:1005A00084908080849295688482E66A6BEC04F083
:1005B000E5528350DF6E8492956A7F0EDF1400D07F
:1005C000E552E552E7CFD9FF1200D9CFE6FFE1CFE0
:1005D000D9FFE652DF6AE80EE66E030EE66E6BECBC
:1005E00004F0E552E552848080808492956884828C
:1005F000E66A6BEC04F0E5528350DF6E8492956AF4
:10060000DF5000D0E552E552E7CFD9FF1200D9CF35
:10061000E6FFE1CFD9FFFD0EDBCFF6FFFE0EDBCF0D
:10062000F7FF0800F55011E0FD0EDBCFF6FFFE0EE0
:10063000DBCFF7FF0800F550E66E6DDFE552FD0EEB
:10064000DB2AFE0E01E3DB2AE6D700D0E552E7CF36
:10065000D9FF1200D9CFE6FFE1CFD9FFFD0EDBCFE6
:10066000E9FFFE0EDBCFEAFFEF5010E0FD0EDBCF1F
:10067000E9FFFE0EDBCFEAFFEF50E66E4CDFE552FE
:10068000FD0EDB2AFE0E01E3DB2AE8D700D0E5529F
:06069000E7CFD9FF1200C4
:0A0696001E0EF66E000EF76E000E49
:1006A000F86E00010900F550996F0900F5509A6F36
:1006B00003E1996701D03DD00900F550946F09001E
:1006C000F550956F0900F550966F09000900F55037
:1006D000E96E0900F550EA6E090009000900F550BD
:1006E000976F0900F550986F09000900F6CF9BF04D
:1006F000F7CF9CF0F8CF9DF094C0F6FF95C0F7FFC0
:1007000096C0F8FF0001975302E1985307E00900F3
:10071000F550EE6E9707F8E29807F9D79BC0F6FF01
:100720009CC0F7FF9DC0F8FF00019907000E9A5B7F
:04073000BFD712001D
:0C073400D9CFE6FFDACFE6FFE1CFD9FF16
:10074000E2CFDAFFAC6AAB6AFD0EDBB0AC88DBA2AD
:1007500002D0AC8CAB8CDBB4AC8EDBA602D0AB8809
:1007600001D0AB8ADBA802D0AC8401D0AC949E98B7
:10077000DBAC02D09D8A01D09D9A9E9ADBAE02D05E
:100780009D8801D09D98FB0EDB50AF6EAC8AAB8E7E
:10079000949C948EAC50100B04E0AC50800B01E1A3
:0E07A000948CE552E5CFDAFFE7CFD9FF1200C7
:0207AE00D9CFA1
:1007B000E6FFDACFE6FFE1CFD9FFE2CFDAFFE6527C
:1007C000E652E652E652F8CF02F0F6CF03F00C0EF6
:1007D000BA6E050EF66EF76A300EF86E0800F55028
:1007E000010B03E0010EDB6802D0010EDB6A010E93
:1007F000DB5002E0949201D09396CA94FD0EDB5038
:10080000CB6ECA8402C0F8FF03C0F6FF040EE15CA1
:1008100002E2E16AE552E16EE552E5CFDAFFE7CFA9
:04082000D9FF1200EA
:0C082400D9CFE6FFDACFE6FFE1CFD9FF25
:10083000E2CFDAFFE652E652FC0EDBCF00F0FD0E0F
:10084000DBCF01F0060ED89000360136E804FBE15C
:1008500000C0DEFF01C0DDFF010EDB50BB6EDF50CC
:10086000E840E8403F0B300B006ECF0EBA1400108A
:10087000BA6EE552E552E552E5CFDAFFE7CFD9FF90
:02088000120064
:0E088200D9CFE6FFDACFE6FFE1CFD9FFE2CF14
:10089000DAFFFB0EDB50BE6EFC0EDBCF01F001C0B9
:1008A00000F00150BF6EFD0EDB500F0BBD6EFD0E54
:1008B000DBAE02D09E949D840F0EBD140A0805E0A5
:1008C0000F0EBD140B0801E09494E552E5CFDAFF5A
:0608D000E7CFD9FF120082
:0A08D600D9CFE6FFE1CFD9FF020EF3
:1008E000E126DE6ADD6ADECF00F0DDCF01F0FD0E2D
:1008F000DBCF02F0FE0EDBCF03F00250005C0350B2
:10090000015806E20000DF2A010E01E3DB2AEBD7E3
:10091000020EE15C02E2E16AE552E16EE552E7CFE8
:04092000D9FF1200E9
:0C092400D9CFE6FFDACFE6FFE1CFD9FF24
:10093000E2CFDAFFFD0EDB507E0BCD6EFD0EDBACA1
:1009400002D0CD8E01D0CD9ECF6ACE6A9E90DBAE16
:1009500002D09D8001D09D90CD80E552E5CFDAFF99
:06096000E7CFD9FF1200F1
:0A096600D9CFE6FFDACFE6FFE1CFBC
:10097000D9FFE2CFDAFFE652F20E0001A517ABACC9
:1009800003D0A591ABB0A581ABB4A585ABB2A587CB
:10099000AE50DF6EDF50E552E552E5CFDAFFE7CF2C
:0409A000D9FF120069
:0C09A400D9CFE6FFDACFE6FFE1CFD9FFA4
:1009B000E2CFDAFFE652E652FC0EDBCFDEFFDBCF02
:1009C000DDFF010EDB50CF6EDF50CE6EE552E552FB
:0C09D000E552E5CFDAFFE7CFD9FF1200B7
:0409DC00D9CFE6FF8A
:1009E000DACFE6FFE1CFD9FFE2CFDAFFE652E652F7
:1009F000FC0EDBCFDEFFDBCFDDFF010EDB50D76E61
:100A0000DF50D66EE552E552E552E5CFDAFFE7CF8B
:040A1000D9FF1200F8
:0C0A1400D9CFE6FFDACFE6FFE1CFD9FF33
:100A2000E2CFDAFFFD0EDB507F0BD56ED76AD66AB8
:100A3000F294FD0EDBAE02D0F28A01D0F29AD58E8E
:0C0A4000E552E5CFDAFFE7CFD9FF120046
:040A4C00FF0EE35066
:100A5000076EEF0E01D0F30EE76EE72E2DEF05F0D7
:100A60000C0E066EE76AE72E33EF05F0062E32EF26
:0A0A700005F0072E2BEF05F0120031
:060A7A00D9CFE6FFDACF40
:100A8000E6FFE1CFD9FFE2CFDAFFACAC04D0AC9007
:100A90000001A5B3AC80FD0EDB50AD6EE552E5CF95
:080AA000DAFFE7CFD9FF1200D5
:080AA800FF0EE350076E480E3B
:100AB00001D04C0EE76EE72EFED7E76AE72EFED791
:080AC000072EF7D70000120019
:080AC80015EE00F025EE00F030
:100AD000F86A059C4BEC03F003EC00F0B6EC00F078
:040AE000FBD712002E
:0C0AE400FF0EE350E84E1200000000D0AE
:0A0AF00000D000D0E82EFAD7120063
:060AFA0000EE00F00F0EFB
:080B0000EE6AEA62FDD7120063
:080B08000000303132333435B6
:0C0B1000363738390000000000000000FB
:020000040030CA
:0100010021DD
:0100020006F7
:010003000EEE
:010006008178
:00000001FF
