:020000040000FA
:0200000056297F
:08000800A000030EA100D93095
:100010008100A20A64302202031D3D28A201A50A24
:100020000A302502031D3D28A501A60A0630260236
:10003000031D3D28A601A70A0A302702031D3D28FB
:10004000A701A80A06302802031D3D28A801023096
:100050002A0203193528A90A0A302902031D3D285E
:10006000A901AA0A3D28A90A3D2803302902031D37
:100070003328AA01A9013D283D28210E8300A00EA6
:10008000200E0B11090082073034313432343334FE
:100090003434353436343734383439348316031332
:1000A000FF3085000F308600F9308700003088006F
:1000B00089008730810007309F009C00A0308B00B2
:1000C0008312D93081000800FF30A300A303031D71
:1000D00066280800FF30A4006420A403031D6C28D8
:1000E00008006430AB00FF30AC00AC03031D752882
:1000F000AB03031D73280800383096206420642069
:100100006420383096200C3096200630962001303E
:1001100096206420080009140000880000000000F8
:1001200089140000000089106420080009100000F4
:10013000880000000000891400000000891064207D
:1001400008008C309620250843208B2008008B3037
:100150009620260843208B20080089309620270807
:1001600043208B20080088309620280843208B20CD
:10017000080086309620290843208B20080085300F
:1001800096202A0843208B200800712006180800BA
:100190008B13A601A5018B17080071208619080092
:1001A0008B132A0E2904233C031DDA28A901AA0176
:1001B0008B170800A90A0A302902031DE128A901AA
:1001C000AA0A8B1708007120061908008B13A80AC9
:1001D00006302802031DED28A8018B1708007120A6
:1001E000861808008B13A70A0A302702031DF92876
:1001F000A7018B1708002D08031783128D008316A3
:100200008C130C1483120C080313831208008B1335
:100210002D08031783128D0003132E0803178C007B
:1002200083168C130C1555308D00AA308D008C145C
:100230000C11831203138B17642064206420642044
:10024000642008002F0803178F00031330080317DA
:100250008D0083168C170C140000000083120C080C
:100260000313B10003170E080313B200080030088F
:1002700003178D0003132F0803178F000313310892
:1002800003178C000313320803178E0083168C1794
:100290008B130C1555308D00AA308D008D148B17E3
:1002A000000000000C118312031308004E20860189
:1002B0000030AD00FB20AA000130AD00FB20A900FA
:1002C0000230AD00FB20A8000330AD00FB20A700EA
:1002D0000430AD00FB20A6000530AD00FB20A500DA
:1002E0007C208030962048308B204F308B2052303D
:1002F0008B2041308B203A308B20873096203A304B
:100300008B208A3096203A308B20BF20B920B32032
:10031000AD20A720A1208D30962020308B20873063
:1003200096203A308B200030AD002A08AE0007211D
:100330000130AD002908AE0007210230AD002808C9
:10034000AE0007210330AD002708AE0007210430BE
:10035000AD002608AE0007210530AD002508AE002F
:1003600007210618B429C5208619B729CD200619FA
:0C037000BA29E32086188529EF20852992
:02400E00713F00
:00000001FF
