:020000040000FA
:06000000F4EF09F012000C
:020006001200E6
:060008000EEF00F01200F3
:02000E000100EF
:0C00100028140000E500000006000000BD
:04001C00DACFE4FF54
:10002000E2CFDAFFE9CFE4FFEACFE4FFF6CFE4FF67
:10003000F7CFE4FFF5CFE4FFF3CFE4FFF4CFE4FF25
:10004000FACFE4FF00EE00F0140EE80403E3EECF75
:10005000E4FFFBD700EE14F0020EE80403E3EECF5A
:10006000E4FFFBD7E6529EA202D04CEC07F0E5522B
:1000700000EE15F0020EE80403E3E5CFEDFFFBD739
:1000800000EE13F0140EE80403E3E5CFEDFFFBD719
:10009000E5CFFAFFE5CFF4FFE5CFF3FFE5CFF5FFBE
:1000A000E5CFF7FFE5CFF6FFE5CFEAFFE5CFE9FFC4
:1000B000E5CFDAFF1100806A816A826A836A846A06
:1000C000896A8A6A8B6A8C6A8D6AC30E926E010E87
:1000D000936ED10E946E956A040E966E0C0EE66EBB
:1000E0000C0EE66E110EE66E2DEC08F0E552E552B0
:1000F000E552430EE66EF4EC08F0E552CD0EE66EE6
:100100008CEC09F0E5520C0EBD6EF90ECB6E0F0EA5
:10011000BA6E000EE66EE66AC5EC08F0E552E552EE
:10012000000EE66EE66A96EC08F0E552E552E4EC65
:1001300005F0DAEC05F0850EE66EA2EC05F0E5526E
:100140000E0EE66EA2EC05F0E552B40EE66E0F0E52
:10015000E66E28EC06F0E552E552FA0EE66ED4ECB7
:1001600009F0E552FA0EE66ED4EC09F0E552FA0E0B
:10017000E66ED4EC09F0E552FA0EE66ED4EC09F026
:10018000E552C40EE66EA2EC05F0E552AC0EE66E4A
:100190000F0EE66E28EC06F0E552E5520C0EE66E08
:1001A000A2EC05F0E552FA0EE66ED4EC09F0E55249
:1001B000FA0EE66ED4EC09F0E552FA0EE66ED4ECD7
:1001C00009F0E552FA0EE66ED4EC09F0E552DAECED
:1001D00005F0810EE66EA2EC05F0E5529D0EE66E8E
:1001E0000F0EE66E09EC06F0E552E552FA0EE66EE9
:1001F000D4EC09F0E552FA0EE66ED4EC09F0E552C3
:10020000FA0EE66ED4EC09F0E552FA0EE66ED4EC86
:1002100009F0E552C30EE66EA2EC05F0E552910E30
:10022000E66E0F0EE66E09EC06F0E552E552936AB3
:10023000956A806A010E816E010E836E81500FE017
:10024000FA0EE66ED4EC09F0E552FA0EE66ED4EC46
:1002500009F0E552819E8146839E8346EFD7FA0ED0
:10026000E66ED4EC09F0E552FA0EE66ED4EC09F035
:10027000E552010E816E010E836E81500FE0FA0E81
:10028000E66ED4EC09F0E552FA0EE66ED4EC09F015
:10029000E552819E8146839E8346EFD7010E936E81
:1002A000FA0EE66ED4EC09F0E552FA0EE66ED4ECE6
:1002B00009F0E552FA0EE66ED4EC09F0E552FA0EBA
:1002C000E66ED4EC09F0E552DAEC05F0800EE66E4D
:1002D000A2EC05F0E552800EE66E0F0EE66E09EC1C
:1002E00006F0E552E552C00EE66EA2EC05F0E552CE
:1002F000700EE66E0F0EE66E09EC06F0E552E55262
:10030000956AFA0EE66ED4EC09F0E552FA0EE66E46
:10031000D4EC09F0E552FA0EE66ED4EC09F0E552A1
:10032000FA0EE66ED4EC09F0E552010E836E200E53
:10033000806E020E0001D66FD76B0001706B960EB7
:10034000E66ED4EC09F0E5528350E824836E8350C6
:1003500017E1809080420001702B040E0001705D57
:1003600008E1200E806E0001D607000ED75B000169
:10037000706B0001D651D71101E103D0010E836EDD
:10038000DED7806AFA0EE66ED4EC09F0E552FA0E7A
:10039000E66ED4EC09F0E552FA0EE66ED4EC09F004
:1003A000E552FA0EE66ED4EC09F0E552DAEC05F00F
:1003B000956A820EE66EC6DBE552640EE66E0F0E9F
:1003C000E66E09EC06F0E552E552C00EE66EBADBC9
:1003D000E552540EE66E0F0EE66E09EC06F0E5529D
:1003E000E5520001100ED66F270ED76F0001D651CF
:1003F000D7116EE0010EE66ED4EC09F0E552000173
:10040000D607000ED75B640E0001605D0DE10001B0
:100410006F417F0B00016F6F00016F5103E100011D
:10042000080E6F6F6FC083FF00016FA703D000013C
:10043000040E626F00016FA503D00001030E626F0E
:1004400000016FA303D00001020E626F00016FA1D3
:1004500003D00001010E626FF00E8314800A19E0D0
:10046000C00A11E0600A09E0300A01E018D000017A
:10047000010E616F4CEC06F02AD00001020E616F94
:100480004CEC06F024D00001030E616F4CEC06F03A
:100490001ED00001040E616F4CEC06F018D0000174
:1004A000640E606F816AC60EE66E4CDBE552200E6C
:1004B000E66E64DBE552CF0EE66E44DBE552200EBD
:1004C000E66E5CDBE552836A6FC081FF00D08ED799
:1004D000FA0EE66ED4EC09F0E552FA0EE66ED4ECB4
:1004E00009F0E552FA0EE66ED4EC09F0E552FA0E88
:1004F000E66ED4EC09F0E5525DDB800EE66E22DBA1
:10050000E552440EE66E0F0EE66E83DBE552E552D1
:10051000C00EE66E17DBE552390EE66E0F0EE66E84
:1005200078DBE552E552960E0001D66FD76B0001DD
:10053000D6C014F0D7C015F0D607000ED75B145004
:1005400015104CE0640EE66ED4EC09F0E55212ECA6
:100550000AF00DEC0AF0000901E0FBD7C4500001DD
:10056000E56FE66B320E086E096AE5C00DF0E6C075
:100570000EF034EC09F006C0E5F007C0E6F0E5C087
:10058000E5F0E6C0E6F00D680E6AE5C008F0E6C0EA
:1005900009F0BEEC09F008C0E5F009C0E6F0E5C0DE
:1005A000E7F0E7C0E6FF97DBE552CA0EE66ECADA6F
:1005B000E552300E00016425E66EE0DAE5522C0EBD
:1005C000E66EDCDAE552300E00016325E66ED6DA1F
:1005D000E552560EE66ED2DAE552A9D7E66AE66A29
:1005E000E66A64EC08F0E552E552E552808AE2DA08
:1005F000800EE66EA7DAE552280EE66E0F0EE66E66
:1006000008DBE552E552FA0EE66ED4EC09F0E5524D
:10061000FA0EE66ED4EC09F0E552FA0EE66ED4EC72
:1006200009F0E552FA0EE66ED4EC09F0E55200014D
:10063000EA6B550EE66E0001EA51E66EE66A75DB7E
:10064000E552E552E5520001EA2BF3E1640EE66E55
:10065000D4EC09F0E5520001EA6B0001706B000177
:10066000EA51E66EE66AAADBE552E552550804E077
:100670000001010E706F03D00001EA2BF0E10001D0
:1006800070510CE1C50EE66E5DDAE552210EE66EA4
:100690000F0EE66EBEDAE552E5520BD0C60EE66EE0
:1006A00051DAE5521C0EE66E0F0EE66EB2DAE55236
:1006B000E552FA0EE66ED4EC09F0E552FA0EE66E5B
:1006C000D4EC09F0E552FA0EE66ED4EC09F0E552EE
:1006D000FA0EE66ED4EC09F0E552809AC69AE66A04
:1006E000030EE66EE66A64EC08F0E552E552E55268
:1006F00061DA8098000000000000000000016E6BCD
:100700008F0EE66EB0DBE5520001230E6E6F820E97
:10071000E66EA9DBE5520001400E6E6F810EE66EBB
:10072000A2DBE55200016E6B800EE66E9CDBE552AB
:10073000810EE66E07DAE5520E0EE66E0F0EE66EDD
:1007400068DAE552E552310E0001E85D69E0020E1B
:10075000E66E71DBE55200016E390F0B00016A6F26
:10076000030E00016A15300F00016A6F6EC06BF056
:100770000F0E00016B15300F00016B6F010EE66E5E
:100780005ADBE55200016E390F0B00016C6F0F0E42
:1007900000016C15300F00016C6F6EC06DF00F0E14
:1007A00000016D15300F00016D6FE66A44DBE55204
:1007B00000016E390F0B0001E86F0F0E0001E81504
:1007C000300F0001E86F6EC0E9F00F0E0001E9156F
:1007D000300F0001E96FC30EE66EB4D9E5526AC06E
:1007E000E6FFCCD9E5526BC0E6FFC8D9E5523A0E18
:1007F000E66EC4D9E5526CC0E6FFC0D9E5526DC0C3
:10080000E6FFBCD9E5523A0EE66EB8D9E552E8C02B
:10081000E6FFB4D9E552E9C0E6FFB0D9E55293D777
:10082000FA0EE66ED4EC09F0E552FA0EE66ED4EC60
:1008300009F0E552FA0EE66ED4EC09F0E552FA0E34
:10084000E66ED4EC09F0E552E668030EE66EC5EC00
:1008500008F0E552E552000EE66EE66A96EC08F006
:10086000E552E552A7D9800EE66E6CD9E552010E2D
:10087000E66E0F0EE66ECDD9E552E5520C0EE66E31
:10088000040EE66E110EE66E2DEC08F0E552E55210
:10089000E552F28CF28E0001D00ED66F070ED76FA4
:1008A0000001D651D71145E00001DAA341D0000183
:1008B000DA930001D607000ED75BFA0E086E096ABC
:1008C00068C00DF069C00EF034EC09F006C068F0A5
:1008D00007C069F00D680E6A68C008F069C009F0C9
:1008E000BEEC09F008C068F009C069F068C0E6FF16
:1008F000F2D9E552C60EE66E25D9E552300E00015A
:100900006525E66E3BD9E552300E00016425E66EA2
:1009100035D9E552300E00016325E66E2FD9E55238
:10092000DF0EE66E2BD9E552430EE66E27D9E5526F
:10093000B7D7FA0EE66ED4EC09F0E552FA0EE66E81
:10094000D4EC09F0E552FA0EE66ED4EC09F0E5526B
:10095000FA0EE66ED4EC09F0E552000EE66EE66A99
:10096000C5EC08F0E552E552BC0EE66E020EE66EEE
:1009700096EC08F0E552E5521DD9800EE66EE2D8FD
:10098000E552F40EE66E0E0EE66E43D9E552E552E0
:100990000001D00ED66F070ED76F0001D651D711C8
:1009A00001E18DD00001DAA349D00001DA93000102
:1009B000D607000ED75BFA0E086E096A68C00DF004
:1009C00069C00EF034EC09F006C068F007C069F0A9
:1009D0000D680E6A68C008F069C009F0BEEC09F045
:1009E00008C068F009C069F068C0E6FF74D9E55234
:1009F000C00EE66EA7D8E552540EE66EBFD8E5529B
:100A00003A0EE66EBBD8E552300E00016525E66E63
:100A1000B5D8E552300E00016425E66EAFD8E55238
:100A2000300E00016325E66EA9D8E552DF0EE66EB2
:100A3000A5D8E552430EE66EA1D8E5520001DAA131
:100A40003DD00001DA9166C066F067C067F0070E1E
:100A50000D6E0E6A66C008F067C009F0BEEC09F0C2
:100A600008C066F009C067F066C0E6FF34D9E552F9
:100A7000C80EE66E67D8E552520EE66E7FD8E55294
:100A8000500EE66E7BD8E552530EE66E77D8E552EF
:100A90003A0EE66E73D8E552300E00016525E66E1B
:100AA0006DD8E552300E00016425E66E67D8E55238
:100AB000300E00016325E66E61D8E5526ED7000E58
:100AC000E66EE66AC5EC08F0E552E552000EE66E09
:100AD000E66A96EC08F0E552E552FA0EE66ED4ECC2
:100AE00009F0E552FA0EE66ED4EC09F0E552FA0E82
:100AF000E66ED4EC09F0E552FA0EE66ED4EC09F09D
:100B0000E55258D8800EE66E1DD8E5520E0EE66E00
:100B100019D8E552E40EE66E0E0EE66E99D8E5524F
:100B2000E552C00EE66E0ED8E552D40EE66E0E0EFD
:100B3000E66E8ED8E552E5520C0EE66E03D8E5520D
:100B4000FFD71200D9CFE6FFE1CFD9FF956A849095
:100B5000FE0EDB50836E8482010EE66E02EC0AF01C
:100B6000E5528492F00E956E040EE66E02EC0AF0E9
:100B7000E5528380E552E7CFD9FF1200D9CFE6FFD7
:100B8000E1CFD9FF956A8480FE0EDB50836E8482AC
:100B9000010EE66E02EC0AF0E5528492F00E956EBC
:100BA000040EE66E02EC0AF0E5528380E552E7CFD0
:100BB000D9FF1200010EE66EC5DFE552020EE66EA9
:100BC000D4EC09F0E5521200819E300EE66EBADFD9
:100BD000E552040EE66ED4EC09F0E552300EE66EF6
:100BE000B1DFE5520A0EE66E02EC0AF0E552300E75
:100BF000E66EA8DFE552380EE66EA4DFE552DADFD6
:100C00000C0EE66E9FDFE552060EE66E9BDFE552A8
:100C10001200D9CFE6FFE1CFD9FFFD0EDBCFF6FF03
:100C2000FE0EDBCFF7FF0800F550E66EA7DFE552BA
:100C3000FD0EDB2ADBCFF6FFFE0E01E3DB2ADBCF66
:100C4000F7FF0800F550E9E1E552E7CFD9FF1200C0
:100C5000D9CFE6FFE1CFD9FFFD0EDBCFF6FFFE0EC9
:100C6000DBCFF7FF0800F550E66E88DFE552C80ECF
:100C7000E66ED4EC09F0E552FD0EDB2ADBCFF6FF81
:100C8000FE0E01E3DB2ADBCFF7FF0800F550E4E1BD
:100C9000E552E7CFD9FF12000001605104E0600780
:100CA000605101E017D0C60EE66E4CDFE552300E03
:100CB00000016125E66E62DFE552CF0EE66E42DF8F
:100CC000E552300E00016225E66E58DFE552836A78
:100CD0006FC083FF1200D9CFE6FFE1CFD9FF00013B
:100CE000636B646B656BFE0EDB5001E11AD0FE0E88
:100CF000DBCFF3FFDB06F350000913E0632B0A0E92
:100D0000635D01E0F4D7636B642B0A0E645D01E060
:100D1000EED7646B652B0A0E655D01E0E8D7656B65
:100D2000E6D7E552E7CFD9FF1200D9CFE6FFE1CFF2
:100D3000D9FF020EE126FD0EDBCF14F0FE0EDBCF55
:100D400015F015C014F0156A1450DF6EFD0EDB505F
:100D5000E76E010EE7CFDBFF809A060EE66E52ECDF
:100D600009F0E552808A0000000000000000809A2F
:100D7000020EE66E52EC09F0E552DFCFE6FF52ECD0
:100D800009F0E552010EDBCFE6FF52EC09F0E55227
:100D9000FC0EDBCFE6FF52EC09F0E552808A0A0E2A
:100DA000E66ED4EC09F0E552020EE15C02E2E16A83
:100DB000E552E16EE552E7CFD9FF1200D9CFE6FF49
:100DC000E1CFD9FF030EE126FD0EDBCF14F0FE0EBE
:100DD000DBCF15F015C014F0156A1450DF6EFD0E50
:100DE000DB50E76E010EE7CFDBFF809A030EE66E65
:100DF00052EC09F0E552DFCFE6FF52EC09F0E55284
:100E0000010EDBCFE6FF52EC09F0E552A7EC09F04A
:100E1000E76E020EE7CFDBFF808ADB50146E030E15
:100E2000E15C03E200D0E16AE552E16E1450E55264
:100E3000E7CFD9FF1200D9CFE6FFE1CFD9FF8088F5
:100E40000000000000000000FE0EDBCFE6FF52ECC9
:100E500009F0E552A7EC09F000016E6F8098E552A9
:100E6000E7CFD9FF1200D9CFE6FFE1CFD9FF8088C5
:100E70000000000000000000FE0EDBCFE6FF52EC99
:100E800009F0E5526EC0E6FF52EC09F0E552809899
:100E9000E552E7CFD9FF12009E920001D507D55148
:100EA00011E1640ED56F15EC09F0F3CF66F0F4CFC5
:100EB00067F0000EE66EE66A70EC09F0E552E55266
:100EC0000001DA81C450686F696B12EC0AF000010E
:040ED000DA831200AF
:0C0ED40070617261207265696E6963696B
:100EE00061722E005072657373696F6E6520726552
:100EF000736574004573667269616E646F2E2E2E81
:100F0000004171756563656E646F2E2E2E00546509
:100F10007374652072656C6F67696F004552524F3C
:100F200000504153534F5500546573742E2045456E
:100F300050524F4D205350490064652074656E73C4
:100F4000616F3A005465737465206465206D656453
:100F5000696461004C696E68613A2020436F6C756A
:100F60006E613A005465636C61646F2034583400DC
:100F70002064652037205365676D656E746F73005C
:100F8000546573746520646F20446973706C617973
:100F90000054657374616E646F2E2E2E0054657359
:100FA000746520646F73204C454473004D4F53416A
:0B0FB00049434F004D434C41423300C9
:040FBC000E0EF66EB1
:100FC000000EF76E000EF86E00010900F550E06F9C
:100FD0000900F550E16F03E1E06701D03DD0090061
:100FE000F550DB6F0900F550DC6F0900F550DD6F3F
:100FF00009000900F550E96E0900F550EA6E090094
:1010000009000900F550DE6F0900F550DF6F090097
:101010000900F6CFE2F0F7CFE3F0F8CFE4F0DBC061
:10102000F6FFDCC0F7FFDDC0F8FF0001DE5302E190
:10103000DF5307E00900F550EE6EDE07F8E2DF0748
:10104000F9D7E2C0F6FFE3C0F7FFE4C0F8FF000104
:0A105000E007000EE15BBFD71200BD
:06105A00D9CFE6FFDACF5A
:10106000E6FFE1CFD9FFE2CFDAFFC26AC06AFC0E29
:10107000DB407F0B3C0BC26EFC0EDB38F00B300B01
:10108000146EFB0EDB500F0B1410C16EFD0EDB5007
:10109000040DF350380B156EFD0EDB380F0B070BEC
:1010A000146EFD0EDB50800B14101510C06EFC0E7C
:1010B000DBAE03D09E9C9D8CF28CC280E552E5CFC6
:0810C000DAFFE7CFD9FF1200AF
:0810C800D9CFE6FFDACFE6FF05
:1010D000E1CFD9FFE2CFDAFF3F0EC716C66AFD0E99
:1010E000DB50C612FB0EDB50C712FC0EDB50030AAE
:1010F00009E0010A04E0020A06E1C78C04D0C78CAB
:10110000C68801D0C688FD0EDB50050A03E0010A3F
:1011100003E1928A938201D093929380949EC68A2F
:0C112000E552E5CFDAFFE7CFD9FF12005F
:04112C00D9CFE6FF32
:10113000DACFE6FFE1CFD9FFE2CFDAFFE652E6529F
:10114000FC0EDBCF14F0FD0EDBCF15F0060ED890B1
:1011500014361536E804FBE114C0DEFF15C0DDFFD0
:10116000010EDB50BB6EDF50E840E8403F0B300B18
:10117000146ECF0EBA141410BA6EE552E552E55251
:0A118000E5CFDAFFE7CFD9FF120038
:06118A00D9CFE6FFDACF29
:10119000E6FFE1CFD9FFE2CFDAFFE652E652FC0EDE
:1011A000DBCF14F0FD0EDBCF15F0060ED890143611
:1011B0001536E804FBE114C0DEFF15C0DDFF010EAB
:1011C000DB50BE6EDF50E840E8403F0B300B146E42
:1011D000CF0EBD141410BD6EE552E552E552E5CFB9
:0811E000DAFFE7CFD9FF12008E
:0811E800D9CFE6FFDACFE6FFE4
:1011F000E1CFD9FFE2CFDAFFFD0EDB507E0BCD6EE3
:10120000FD0EDBAC02D0CD8E01D0CD9ECF6ACE6A72
:101210009E90DBAE02D09D8001D09D90CD80E552A6
:0A122000E5CFDAFFE7CFD9FF120097
:06122A00D9CFE6FFDACF88
:10123000E6FFE1CFD9FFE2CFDAFFE652E652CE5029
:10124000DF6E010ECFCFDBFFDECF14F0DDCF15F068
:1012500014C0F3FF15C0F4FFE552E552E552E5CFA7
:08126000DAFFE7CFD9FF12000D
:0812680008C012F008500D024D
:10127000F4CF07F0F3CF06F009500E02F4CF09F0D7
:10128000F3CF08F00D02F3500726F4500822E86A65
:10129000092212500E02F3500726F4500822E86A81
:0412A0000922000C13
:0C12A400D9CFE6FFDACFE6FFE1CFD9FF9B
:1012B000E2CFDAFFE652C950DF6E9E96C69EFD0E63
:1012C000DB50C96EC6AE02D0FF0E03D09EA6FED77D
:1012D000000EE552E552E5CFDAFFE7CFD9FF120065
:1012E000D9CFE6FFDACFE6FFE1CFD9FFE2CFDAFFD1
:1012F000E652E652FC0EDBCFDEFFDBCFDDFF010E58
:10130000DB50CF6EDF50CE6EE552E552E552E5CFB1
:08131000DAFFE7CFD9FF12005C
:08131800D9CFE6FFDACFE6FFB2
:10132000E1CFD9FFE2CFDAFFFD0EDB50FB0BCA6E37
:10133000CC6A9E92FD0EDBAE02D09D8201D09D92C2
:0E134000CA84E552E5CFDAFFE7CFD9FF1200ED
:02134E00D9CFF5
:10135000E6FFDACFE6FFE1CFD9FFE2CFDAFFE652D0
:10136000C950DF6E9E96C96A9EA6FED7C950E55247
:0C137000E552E5CFDAFFE7CFD9FF12000D
:04137C00056A046A90
:10138000100EE76ED89008360936043605360D5033
:10139000045C0E50055805E30D50045E0E50055ACE
:0813A000082AE72EF0D7120025
:0813A800FF0EE350166E480E23
:1013B00001D04C0EE76EE72EFED7E76AE72EFED788
:0813C000162EF7D70000120001
:0813C800000EF36E00EE00F0D0
:1013D000080E01D81200EA6002D0EE6AFCD7F35082
:0813E000E9601200EE6AFCD77F
:0813E80013EE00F023EE00F00B
:1013F000F86A019CDEEC07F003EC00F05BEC00F017
:04140000FBD7120004
:0C140400FF0EE350E84E1200000000D084
:0A14100000D000D0E82EFAD7120039
:06141A00C250020B01E0CC
:04142000010E1200A7
:04142400C28212006E
:06142800000000000000BE
:020000040030CA
:0100000000FF
:010001000CF2
:0100020000FD
:010003000EEE
:010005008179
:010006008079
:00000001FF
