:020000040000FA
:0600000012EF01F01200F6
:020006000000F8
:08000800060EF66E000EF76E05
:10001000000EF86E00010900F550856F0900F550DB
:10002000866F03E1856701D03DD00900F550806FF0
:100030000900F550816F0900F550826F0900090031
:10004000F550E96E0900F550EA6E09000900090053
:10005000F550836F0900F550846F09000900F6CF51
:1000600087F0F7CF88F0F8CF89F080C0F6FF81C025
:10007000F7FF82C0F8FF0001835302E1845307E0D9
:100080000900F550EE6E8307F8E28407F9D787C0C0
:10009000F6FF88C0F7FF89C0F8FF00018507000E52
:0600A000865BBFD71200D1
:0A00A600D9CFE6FFDACFE6FFE1CF85
:1000B000D9FFE2CFDAFFAC6AAB6AFD0EDBB0AC88E9
:1000C000DBA202D0AC8CAB8CDBB4AC8EDBA602D056
:1000D000AB8801D0AB8ADBA802D0AC8401D0AC9451
:1000E0009E98DBAC02D09D8A01D09D9A9E9ADBAE91
:1000F00002D09D8801D09D98FB0EDB50AF6EAC8A7C
:10010000AB8E949C948EAC50100B04E0AC50800BE2
:1001100001E1948CE552E5CFDAFFE7CFD9FF120079
:100120000F0E816E836A070EC16E0F0E936EB90EAD
:10013000946E956A040E966E190EE66EE66A3C0E93
:10014000E66E53EC00F0E552E552E5529EAA04D06B
:10015000CCEC00F0836E1ED081B005D0E66AEBECEB
:1001600000F0E55217D081B206D0010EE66EEBEC3E
:1001700000F0E5520FD081B406D0020EE66EEBEC33
:1001800000F0E55207D081B605D0030EE66EEBEC29
:0801900000F0E552DBD712007C
:08019800D9CFE6FFDACFE6FF44
:1001A000E1CFD9FFE2CFDAFFE652F20E00018A1763
:1001B000ABAC03D08A91ABB08A81ABB48A85ABB2C9
:1001C0008A87AE50DF6EDF50E552E552E5CFDAFFA9
:0601D000E7CFD9FF120089
:0A01D600D9CFE6FFDACFE6FFE1CF54
:1001E000D9FFE2CFDAFFACAC04D0AC9000018AB307
:1001F000AC80FD0EDB50AD6EE552E5CFDAFFE7CF08
:04020000D9FF120010
:0C020400000EF36E00EE00F0060E01D8B4
:100210001200EA6002D0EE6AFCD7F350E9601200E7
:04022000EE6AFCD7AF
:0C02240015EE00F025EE00F0F86A019CD9
:1002300004EC00F020EC01F090EC00F0FBD7120091
:020240001200AA
:020000040030CA
:0100010021DD
:010002000EEF
:010003000EEE
:010006008178
:00000001FF
