:020000040000FA
:060000009AEF07F0120068
:020006001200E6
:060008000EEF00F01200F3
:02000E000100EF
:0C001000860F0000BF0000000E00000082
:04001C00F2A448D131
:1000200083C0D6FF84C0D7FF35DA9BC024F09CC0C4
:1000300025F00FEC04F023C0B7F024C0B8F025C0C1
:10004000B9F026C0BAF00001BB6BBC6BBD6B440EAF
:10005000BE6FB7C028F0B8C029F0B9C02AF0BAC046
:100060002BF0BBC023F0BCC024F0BDC025F0BEC047
:1000700026F022EC04F023C0AFF024C0B0F025C07D
:10008000B1F026C0B2F0AFC028F0B0C029F0B1C0C6
:100090002AF0B2C02BF0C3C023F0C4C024F0C5C006
:1000A00025F0C6C026F0B9EC04F023C00CF024C043
:1000B0000DF025C00EF026C00FF0BFC028F0C0C064
:1000C00029F0C1C02AF0C2C02BF00CC023F00DC033
:1000D00024F00EC025F00FC026F0B9EC04F023C0C8
:1000E00008F024C009F025C00AF026C00BF0286AE9
:1000F000296A2A6A3F0E2B6E08C023F009C024F03B
:100100000AC025F00BC026F0B9EC04F023C004F0BF
:1001100024C005F025C006F026C007F0B3C028F0C3
:10012000B4C029F0B5C02AF0B6C02BF0C3C023F08C
:10013000C4C024F0C5C025F0C6C026F0B9EC04F058
:1001400023C018F024C019F025C01AF026C01BF0F7
:10015000BFC028F0C0C029F0C1C02AF0C2C02BF037
:1001600018C023F019C024F01AC025F01BC026F0D7
:10017000B9EC04F023C014F024C015F025C016F02B
:1001800026C017F0286A296A2A6A3F0E2B6E14C00F
:1001900023F015C024F016C025F017C026F0B9ECE6
:1001A00004F023C010F024C011F025C012F026C0C6
:1001B00013F010C028F011C029F012C02AF013C0AB
:1001C0002BF004C023F005C024F006C025F007C0C2
:1001D00026F023EC04F023C000F024C001F025C079
:1001E00002F026C003F0A3C028F0A4C029F0A5C0E7
:1001F0002AF0A6C02BF000C023F001C024F002C0FA
:1002000025F003C026F023EC04F023C0A7F024C09F
:10021000A8F025C0A9F026C0AAF0AFC028F0B0C051
:1002200029F0B1C02AF0B2C02BF0C7C023F0C8C07B
:1002300024F0C9C025F0CAC026F0B9EC04F023C0F0
:10024000ABF024C0ACF025C0ADF026C0AEF0AFC01E
:10025000B3F0B0C0B4F0B1C0B5F0B2C0B6F0A7C052
:10026000A3F0A8C0A4F0A9C0A5F0AAC0A6F0ABC096
:1002700028F0ACC029F0ADC02AF0AEC02BF0A7C06A
:1002800023F0A8C024F0A9C025F0AAC026F023ECD2
:1002900004F053EC05F024C0CBF025C0CCF0CBC06B
:1002A000E6FFCCC0E6FFD3EC06F0E552E552F2944F
:1002B0001200936AF90E946E956A966A0F0EC16EDB
:1002C000846A826A816A010E836EE6685CEC07F0DC
:1002D000E55289D8E66844EC07F0E552CBC0E6FF6A
:1002E000CCC0E6FFD3EC06F0E552E5520F0EE66E09
:1002F000040EE66EE30EE66E9CEC06F0E552E55267
:10030000E552F184D08EF28E190EE66EE66A3C0E4E
:10031000E66E57EC06F0E552E552E552930EE66EB6
:1003200028EC07F0E55200016D0E846F840E836F98
:100330006F0EE66EE66A02EC07F0E552E552F8D77A
:100340001200D9CFE6FFE1CFD9FF849083CF82F0AE
:10035000956A010EE66EA8EC07F0E552FE0EDB5042
:10036000836E8482030EE66EA8EC07F0E552849259
:10037000F00E956E010EE66EA8EC07F0E55282C015
:1003800083FF020EE66E5CEC07F0E552E552E7CF24
:10039000D9FF1200D9CFE6FFE1CFD9FF848083CF08
:1003A00082F0956A010EE66EA8EC07F0E552FE0EAB
:1003B000DB50836E8482030EE66EA8EC07F0E552F4
:1003C0008492F00E956E010EE66EA8EC07F0E552F1
:1003D00082C083FF020EE66E5CEC07F0E552E55248
:1003E000E7CFD9FF1200380EE66EABDFE552060EFE
:1003F000E66E5CEC07F0E552380EE66EA2DFE552E1
:100400000C0EE66E9EDFE552060EE66E9ADFE552B2
:10041000010EE66E96DFE552020EE66E5CEC07F02A
:10042000E552800EE66E8DDFE5521200D9CFE6FF71
:10043000E1CFD9FFFE0EDB50090A26E0010A22E0D7
:100440000F0A1EE0010A1AE0030A16E0010A12E090
:10045000070A0EE0010A0AE0030A06E0010A02E0C8
:10046000450E14D0300E12D0310E10D0320E0ED0F8
:10047000330E0CD0340E0AD0350E08D0360E06D00E
:10048000370E04D0380E02D0390E00D0E552E7CF37
:10049000D9FF1200C1EC07F0BCEC07F0010801E144
:1004A000FBD7B3EC07F0F3CF9BF0F4CF9CF0120036
:1004B000020E246E256A9BC029F09CC02AF026EC0F
:1004C00005F022C0F6FF23C0F7FF000EF626200E2F
:1004D000F722F86AF7BEF8680800F5CF94F0F62A1C
:1004E000000EF722000EF8220800F5CF95F00F0E4F
:1004F000000194150001966F96C0E6FF97DFE55264
:100500000001966F000194390F0B0001946F94C0A5
:1005100097F097C0E6FF8ADFE5520001976F0F0E54
:10052000000195150001986F98C0E6FF7FDFE55246
:100530000001986F000195390F0B0001956F95C070
:1005400099F099C0E6FF72DFE5520001996F01D87A
:100550001200C00EE66EF5DEE552540EE66E1ADFAE
:10056000E552650EE66E16DFE5526E0EE66E12DFA0
:10057000E552730EE66E0EDFE552610EE66E0ADF9F
:10058000E5526F0EE66E06DFE5523A0EE66E02DFCA
:10059000E552200EE66EFEDEE55299C0E6FFFADE79
:1005A000E5522C0EE66EF6DEE55298C0E6FFF2DE6E
:1005B000E55297C0E6FFEEDEE55296C0E6FFEADEC2
:1005C000E5521200C00EE66EBCDEE552520EE66E3B
:1005D000E1DEE552650EE66EDDDEE552660EE66EA4
:1005E000D9DEE5523A0EE66ED5DEE552200EE66E15
:1005F000D1DEE55299C0E6FFCDDEE5522C0EE66E67
:10060000C9DEE55298C0E6FFC5DEE55297C0E6FFB9
:10061000C1DEE55296C0E6FFBDDEE552120083A0C2
:1006200003D0020E836E0ED083A203D0040E836E1D
:1006300009D083A403D0080E836E04D083A602D011
:10064000010E836E010EE66E5CEC07F0E5528350FE
:10065000100B01E0010E006E8350010B001404E04A
:100660000001010E856FD8D08350100B01E0010E00
:10067000006E8350020B01E0010E001404E0000143
:10068000020E866FC9D08350100B01E0010E006E80
:100690008350040B01E0010E001404E00001030E7E
:1006A000876FBAD08350100B01E0010E006E8350AB
:1006B000080B01E0010E001401E0AED08350200BC6
:1006C00001E0010E006E8350010B001404E00001F4
:1006D000040E886FA1D08350200B01E0010E006E44
:1006E0008350020B01E0010E001404E00001050E2E
:1006F000896F92D08350200B01E0010E006E835071
:10070000040B01E0010E001404E00001060E8A6FE4
:1007100083D08350200B01E0010E006E8350080B44
:1007200001E0010E001401E077D08350400B01E09E
:10073000010E006E8350010B001404E00001070E4F
:100740008B6F6AD08350400B01E0010E006E835026
:10075000020B01E0010E001404E00001080E8C6F92
:100760005BD08350400B01E0010E006E8350040B00
:1007700001E0010E001404E00001090E8D6F4CD061
:100780008350400B01E0010E006E8350080B01E026
:10079000010E001401E040D08350800B01E0010EF7
:1007A000006E8350010B001401E036D08350800BA3
:1007B00001E0010E006E8350020B01E0010E0014F7
:1007C00003E000018E6B28D08350800B01E0010E06
:1007D000006E8350040B01E0010E00141DE00001C7
:1007E000930503E1020E936F17D0020E935D03E1B0
:1007F000030E936F11D0030E935D03E1010E936F0F
:100800000BD08350800B01E0010E006E8350080B6B
:0A08100001E0010E001400E01200E8
:06081A001D9E08D01D9E8A
:1008200025AE05D0246C251EE86A25221D8E25C024
:100830001FF024C01EF02F6A2E6A8E0E206E216AD1
:100840009EEF05F02B7E1D6ADAEC05F0F2EC05F068
:100850001DB682EF05F01DA20AD01DAA03D01DBE51
:1008600082EF05F01DA48EEF05F08BEF05F01DAAB9
:1008700005D01DAC8EEF05F08BEF05F01DA00AD062
:100880001DA808D01DBE04D01DA402D097EF05F00E
:100890009BEF05F02E6A216A2B50265C2D6E10E32B
:1008A00023C02FF024C01EF025C01FF026C02CF05E
:1008B00028C023F029C024F02AC025F01D3A09D011
:1008C00028C02FF029C01EF02AC01FF02BC02CF02A
:1008D0002D6C1D9E1DBC1D8E2CC020F01DB0CAEFBE
:1008E00005F01A0E2D60CAEF05F0206A266A1DA4D5
:1008F00008D0236C241E251E261EE86A24222522E9
:1009000026221DAC08D02F6C1E1E1F1E201EE86A5A
:100910001E221F222022226A2D5207E02634253271
:100920002432233222322D2EF9D723502F26245061
:100930001E2225501F222650202222C02EF01D9E4E
:1009400020AE0BD02E6C2F1E1E1E1F1E201EE86A0E
:100950002F221E221F2220221D8E20A006D0D880EA
:100960001F321E322F322E322C2A2CC020F09EEF46
:1009700005F01D6ADAEC05F0F2EC05F01DB682EF29
:1009800005F01DA205D01DB882EF05F089EF05F036
:100990001DAA05D01DB082EF05F089EF05F01DB04E
:1009A00002D01DA802D095EF05F0216A2B50262415
:1009B000206EE86A21227E0E205EE86A215A2E6AA5
:1009C0002F6A1E6A1F6A2A502502F4CF1FF0F3CF48
:1009D0001EF029502502F3502F26F4501E22000E3F
:1009E0001F222A502402F3502F26F4501E22000EFC
:1009F0001F2228502502F3502E26F4502F22000EDD
:100A00001E221F2229502402F3502E26F4502F229A
:100A1000000E1E221F222A502302F3502E26F450CD
:100A20002F22000E1E221F2228502402F4502E26B0
:100A3000000E2F221E221F2229502302F4502E26A0
:100A4000000E2F221E221F229EEF05F025C02FF040
:100A500024C02EF024502902F4CF23F0F3CF22F04B
:100A600025502A02F4CF25F0F3CF24F02902F350C9
:100A70002326F4502422E86A25222E502A02F3501D
:100A80002326F4502422E86A25222AAE4CEF05F0F2
:100A90002E50245E2F50255A2FAE000C2950245E74
:100AA0002A50255A000C1D6ADAEC05F01DB65DEFE0
:100AB00005F01DA20ED01DB405D07F0E256EFF0ED1
:100AC000246E1FD0800E256E246A1BD0256A246AEE
:100AD00018D01DB0FBD78F0E2660EDD77E0E266492
:100AE000F5D78E0E265C05E0D89025322432262AD2
:100AF000F8D71DA406D0246C251EE86A252225AE51
:100B0000E5D712007F0E266EFF0E256E246E236E33
:100B100012007F0E1DBEFF0E266E02D07F0E266EC7
:100B2000800E256E246A236AF3D71DAE04D0800E92
:100B3000266E256AF7D7266A256AF4D71F501E103D
:100B40002F102E10F8E021BEF0D71FBE0CD0205081
:100B50002110EBE0D8902E362F361E361F36200699
:100B6000D8A02106F2D72150D4E12028D2E02EAE21
:100B700011D07F0E2E1402E12FA00CD02F2AE86A8C
:100B80001E221F2207E3D8801F321E322F32202A56
:100B90002028BFE02050C9E02FC023F01EC024F061
:100BA0001F34256E2030266E2532269E1DBE268ED1
:100BB00088EF05F02536263602E31D841D7E06E10A
:100BC0001D80266A256A246A236A1200262803E00B
:100BD000D88025321200D890253202E11D82120001
:100BE0001D8612002A362B3602E31D8C1D7E06E17F
:100BF0001D882B6A2A6A296A286A12002B2803E0BA
:100C0000D8802A321200D8902A32EAE11D8A1200D6
:100C10000E0EF66E000EF76E000EF86E0001090063
:100C2000F550D26F0900F550D36F03E1D26701D0C0
:100C30003DD00900F550CD6F0900F550CE6F090089
:100C4000F550CF6F09000900F550E96E0900F55025
:100C5000EA6E090009000900F550D06F0900F5504F
:100C6000D16F09000900F6CFD4F0F7CFD5F0F8CF57
:100C7000D6F0CDC0F6FFCEC0F7FFCFC0F8FF000121
:100C8000D05302E1D15307E00900F550EE6ED007D2
:100C9000F8E2D107F9D7D4C0F6FFD5C0F7FFD6C028
:0E0CA000F8FF0001D207000ED35BBFD7120091
:020CAE00D9CF9C
:100CB000E6FFDACFE6FFE1CFD9FFE2CFDAFFAC6A99
:100CC000AB6AFD0EDBB0AC88DBA202D0AC8CAB8C87
:100CD000DBB4AC8EDBA602D0AB8801D0AB8ADBB82C
:100CE000AC849E98DBBAAB86DBAC02D09D8A01D087
:100CF0009D9A9E9ADBAE02D09D8801D09D98FB0EF6
:100D0000DB50AF6EFB0EFC0EDBCF01F001C000F03C
:100D1000016A0050B06EAC8AAB8E949C948EAC503D
:100D2000100B04E0AC50800B01E1948CE552E5CF50
:080D3000DAFFE7CFD9FF120042
:080D3800D9CFE6FFDACFE6FF98
:100D4000E1CFD9FFE2CFDAFFC26AC06AFC0EDB4016
:100D50007F0B3C0BC26EFC0EDB38F00B300B006ED1
:100D6000FB0EDB500F0B0010C16EFD0EDB50040DAF
:100D7000F350380B016EFD0EDB380F0B070B006EC6
:100D8000FD0EDB50800B00100110C06EFC0EDBAEC0
:100D900003D09E9C9D8CF28CC280E552E5CFDAFF99
:060DA000E7CFD9FF1200AD
:0A0DA600D9CFE6FFDACFE6FFE1CF78
:100DB000D9FFE2CFDAFFE652E652FC0EDBCF00F0BD
:100DC000FD0EDBCF01F0060ED89000360136E804A8
:100DD000FBE100C0DEFF01C0DDFF010EDB50BE6E97
:100DE000DF50E840E8403F0B300B006ECF0EBD14E3
:100DF0000010BD6EE552E552E552E5CFDAFFE7CFD0
:040E0000D9FF120004
:0C0E0400D9CFE6FFDACFE6FFE1CFD9FF3F
:100E1000E2CFDAFFACA2FED7FC0EDBCFE9FFFD0E7E
:100E2000DBCFEAFFEF50E66E73EC07F0E552FC0E05
:100E3000DBCFE9FFDB2AFD0EDBCFEAFF01E3DB2A94
:100E4000EF50E8E1E552E5CFDAFFE7CFD9FF120036
:100E5000D9CFE6FFDACFE6FFE1CFD9FFE2CFDAFF65
:100E6000FD0EDB507F0BD56ED76AD66AF294FD0E6D
:100E7000DBAE02D0F28A01D0F29AD58EE552E5CFF0
:080E8000DAFFE7CFD9FF1200F1
:080E8800D9CFE6FFDACFE6FF47
:100E9000E1CFD9FFE2CFDAFF0C0EBD129494CA94D1
:100EA000FD0EDB50CB6ECA84E552E5CFDAFFE7CF0B
:080EB000D9FF12009494120016
:080EB800FF0EE350316EEF0E56
:100EC00001D0F30EE76EE72E63EF07F00C0E306EE5
:100ED000E76AE72E69EF07F0302E68EF07F0312E52
:060EE00061EF07F01200B3
:0A0EE600D9CFE6FFDACFE6FFE1CF37
:100EF000D9FFE2CFDAFFACAC04D0AC900001D7B39D
:100F0000AC80FD0EDB50AD6EE552E5CFDAFFE7CFEA
:040F1000D9FF1200F3
:0C0F1400000EF36E00EE00F0060E01D897
:100F20001200EA6002D0EE6AFCD7F350E9601200CA
:040F3000EE6AFCD792
:0C0F340015EE00F025EE00F0F86A1D9CA0
:100F400008EC06F003EC00F059EC01F0FBD71200BE
:100F5000FF0EE350E84E1200000000D000D000D099
:060F6000E82EFAD7120092
:0A0F6600C450036E026AC35002106B
:080F7000F36E03C0F4FF120050
:080F7800C250020B01E0010E62
:020F800012005D
:040F8200C282120015
:0A0F8600CDCC4C3DCDCCCC3D00009D
:040F9000803F00009E
:102000000000050010001500200024002900340005
:10201000390044004900540059006400680073000E
:1020200078008300880093009800030108011201E2
:1020300017012201270132013701420147015201F4
:1020400056016101660171017601810186019101EC
:10205000960100020502100215022002250230023C
:1020600035023902440249025402590264026902EB
:102070007402790283028802930298020303080320
:1020800013031803230327033203370342034703D1
:1020900052035703620367037103760381038603C8
:1020A0009103960301040604110415042004250479
:1020B00030043504400445045004550459046404B4
:1020C000690474047904840489049404990403055C
:1020D00008051305180523052805330538054305AC
:1020E00047055205570562056705720577058205A4
:1020F00087059105960501060606110616062106B6
:10210000260630063506400645065006550660068A
:102110006506700674067906840689069406990693
:102120000407090714071807230728073307380788
:10213000430748075307580762076707720777077F
:1021400082078707920797070208060811081608F2
:102150002108260831083608410846085008550865
:10216000600865087008750880088508900894085C
:1021700099080409090914091909240929093409C4
:10218000380943094809530958096309680973095B
:10219000780982098709920997090210071012101D
:1021A0001710221026103110361041104610511011
:1021B0005610611065107010751080108510901009
:1021C000951000110511091114111911241129116B
:1021D0003411391144114911531158116311681107
:1021E000731178118311881193119711021207123C
:1021F00012121712221227123212371241124612ED
:1022000051125612611266127112761281128512E3
:102210009012951200130513101315132013251394
:1022200029133413391344134913541359136413E2
:102230006913731378138313881393139813031478
:1022400008141314171422142714321437144214C8
:1022500047145214571461146614711476148114BF
:1022600086149114961400150515101515152015D2
:1022700025153015351540154415491554155915B2
:1022800064156915741579158415881593159815B5
:1022900003160816131618162316281632163716A4
:1022A000421647165216571662166716721676169B
:1022B000811686169116961601170617111716170E
:1022C0002017251730173517401745175017551782
:1022D000601764176917741779178417891794178B
:1022E00099170418081813181818231828183318E1
:1022F0003818431848185218571862186718721877
:10230000771882188718911896180119061911194B
:10231000161921192619311935194019451950195D
:102320005519601965197019751979198419891960
:1023300094199919042009201420192023202820F9
:102340003320382043204820532058206320672022
:102350007220772082208720922097200221072157
:102360001121162121212621312136214121462109
:102370005121552160216521702175218021852100
:102380009021952199210422092214221922242224
:1023900029223422392243224822532258226322FE
:1023A0006822732278228322872292229722022394
:1023B00007231223172322232623312336234123E5
:1023C00046235123562361236623702375238023DC
:1023D00085239023952300240524102414241924F4
:1023E00024242924342439244424492454245824DA
:1023F00063246824732478248324882493249824D1
:1024000002250725122517252225272532253725C0
:1024100042254625512556256125662571257625B7
:10242000812586259025952500260526102615262A
:1024300020262526302634263926442649265426A9
:1024400059266426692674267826832688269326AC
:1024500098260327082713271727222727273227FD
:102460003727422747275227572761276627712793
:102470007627812786279127962701280528102867
:10248000152820282528302835284028452849287F
:102490005428592864286928742879288428892888
:1024A000932898280329082913291829232928293A
:1024B000332937294229472952295729622967296F
:1024C0007229772981298629912996290130063098
:1024D0001130163021302530303035304030453025
:1024E0005030553060306530693074307930843028
:1024F0008930943099300431093113311831233146
:10250000283133313831433148315231573162311A
:1025100067317231773182318731923196310132B0
:102520000632113216322132263231323632403200
:1025300045325032553260326532703275328032F7
:102540008432893294329932043309331433193383
:1025500024332833333338334333483353335833F6
:1025600063336833723377338233873392339733ED
:1025700002340734123416342134263431343634DC
:1025800041344634513456346034653470347534D3
:10259000803485349034953400350435093514354C
:1025A00019352435293534353935433548355335D2
:1025B00058356335683573357835833587359235C9
:1025C0009735023607361236173622362736313619
:1025D00036364136463651365636613666367136AF
:1025E0007536803685369036953600370537103784
:1025F00015371937243729373437393744374937AE
:1026000054375937633768377337783783378837A4
:102610009337983703380738123817382238273855
:10262000323837384238473851385638613866388A
:1026300071387638813886389138953800390539BF
:102640001039153920392539303935393939443976
:102650004939543959396439693974397839833980
:102660008839933998390340084013401840224074
:102670002740324037404240474052405740624036
:1026800066407140764081408640914096400141CD
:10269000064110411541204125413041354140411D
:1026A0004541504154415941644169417441794126
:1026B000844189419441984103420842134218429F
:1026C0002342284233423842424247425242574212
:1026D0006242674272427742824286429142964209
:1026E00001430643114316432143264330433543F8
:1026F00040434543504355436043654370437443EF
:1027000079438443894394439943044409441344DB
:1027100018442344284433443844434448445344ED
:1027200057446244674472447744824487449244E5
:102730009744014506451145164521452645314535
:1027400036454145454550455545604565457045CB
:102750007545804585458945944599450446094612
:1027600014461946244629463346384643464846C9
:1027700053465846634668467346774682468746C0
:102780009246974602470747124717472147264771
:1027900031473647414746475147564761476547A6
:1027A00070477547804785479047954700480448DC
:1027B00009481448194824482948344839484448A5
:1027C000484853485848634868487348784883489D
:1027D00088489248974802490749124917492249AF
:1027E0002749324936494149464951495649614983
:1027F0006649714976498049854990499549005013
:020000040030CA
:0100010001FD
:010002001AE3
:010003001EDE
:010006008178
:00000001FF
