:020000040000FA
:10000000562983160313FF3085000F308600F93020
:10001000870000308800890082309F008030810096
:10002000831241309F000030B10021209020003029
:10003000A300A4000800FF30A000A003031D1D289A
:100040000800FF30A2001B20A203031D2328080084
:100050001F151F19292883161E088312A3001E08C6
:10006000A4000800A701A801A901A418B017A41CA6
:10007000B01324183017241C3013A31BB016A31F71
:10008000B012231B3016231F3012A31AB015A31E63
:10009000B011231A3015231E3015A319B014A31D57
:1000A000B01023193014231D301031186D2830087A
:1000B000B200003030020319C028B003A90AA90A0F
:1000C0000A302902031D5928A901A80A0A3028026A
:1000D000031D5928A801A70A59283008B300003089
:1000E000B0020319D828B003A90AA90A0A302902C4
:1000F000031D6F28A901A80A0A302802031D6F28D2
:10010000A801A70A6F2831188828311C8C280800FC
:10011000311041309F008728311449309F008728D3
:100120003830B5201B201B201B203830B5200C3068
:10013000B5200630B5200130B5201B200800091479
:1001400000008800000000008914000000008910F1
:100150001B200800820730343134323433343434D5
:1001600035343634373438343934091000008800D7
:100170000000000089140000000089101B20080006
:100180008030B52054309F2045309F204D309F2037
:1001900050309F203A309F202708AA209F202C30E3
:1001A0009F202808AA209F202908AA209F20080015
:1001B0008030B520C030B52050309F204F309F2078
:1001C00054309F203A309F202708AA209F202C30AF
:1001D0009F202808AA209F202908AA209F200800E5
:1001E0006430A5070318A60A1D212120861DF628C4
:1001F00008000530A5070318A60A261901291D21A4
:100200000800FF30A5000330A6001D2108002508C6
:10021000031D0D292608031908000F30A502031C31
:1002200013291D2108002608031D1A29A501A6016E
:100230001D210800A6031D21080025181716251CDE
:100240001712A5189716A51C971225191514251D08
:100250001510A5199514A51D9510251A1515251EFF
:100260001511A51A9515A51E9511251B1516251FE7
:100270001512A51B9516A51F951226181517261CD5
:100280001513A6189517A61C951308000F30970094
:100290009D000F3095009B018316FF309200831262
:1002A00012150030A5000030A600080001204621EC
:1002B000B1011B20282032208320282032208320D7
:1002C0003308320203195929031C67296A29F920C6
:0A02D0002120592907212120592976
:0402DA0000340034B8
:00000001FF
