:020000040000FA
:0600000014EF02F01200F3
:020006000000F8
:060008000FEF00F01200F2
:02000E001200DE
:060018001BEF00F01200D6
:02001E009EAA98
:1000200008D0BEEC01F00001626F0001010E636FA9
:100030009E9A11001200E8CF69F0D8CF6BF0E0CFA4
:100040006AF069C0E8FF6BC0D8FF6AC0E0FF10002B
:100050001200D9CFE6FFE1CFD9FF849083CF66F0BD
:10006000956A010EE66E2EEC02F0E552FE0EDB50B4
:10007000836E8482030EE66E2EEC02F0E5528492CB
:10008000F00E956E010EE66E2EEC02F0E55266C0A3
:1000900083FF020EE66EDDEC01F0E552E552E7CF9C
:1000A000D9FF1200D9CFE6FFE1CFD9FF848083CFFB
:1000B00066F0956A010EE66E2EEC02F0E552FE0E39
:1000C000DB50836E8482030EE66E2EEC02F0E55266
:1000D0008492F00E956E010EE66E2EEC02F0E55263
:1000E00066C083FF020EE66EDDEC01F0E552E552DC
:1000F000E7CFD9FF1200380EE66EABDFE552060EF1
:10010000E66EDDEC01F0E552380EE66EA2DFE55258
:100110000C0EE66E9EDFE552060EE66E9ADFE552A5
:10012000010EE66E96DFE552020EE66EDDEC01F0A2
:10013000E552800EE66E8DDFE5521200010EE66E8E
:1001400088DFE552020EE66EF4EC01F0E552120093
:10015000D9CFE6FFE1CFD9FFFD0EDBCFF6FFFE0ED4
:10016000DBCFF7FF0800F550E66E9CDFE552FD0E91
:10017000DB2ADBCFF6FFFE0E01E3DB2ADBCFF7FF46
:100180000800F550E9E1E552E7CFD9FF1200800EF3
:10019000E66E5FDFE5524F0EE66E040EE66ED8DFC8
:1001A000E552E552C00EE66E54DFE5521200936A46
:1001B000F90E946EF00E956E966A0F0EC16E846AFB
:1001C000826A816A010E836E190EE66EE66A3C0E43
:1001D000E66E79EC01F0E552E552E5529F8A9E9A6F
:1001E000F28EF28C88DFD3DF0001616B0001635176
:1001F0002FE0636B615116E0C00EE66E2ADFE55218
:1002000062C0E6FF4FDFE5520001616B800EE66ED3
:1002100020DFE5524A0EE66E040EE66E99DFE552E7
:10022000E55216D0C00EE66E14DFE55262C0E6FF5E
:1002300039DFE5520001010E616F850EE66E09DFC0
:10024000E552440EE66E040EE66E82DFE552E5529C
:04025000CDD71200F4
:0C025400060EF66E000EF76E000EF86E3F
:1002600000010900F550716F0900F550726F03E14C
:10027000716701D03DD00900F5506C6F0900F55051
:100280006D6F0900F5506E6F09000900F550E96EB9
:100290000900F550EA6E090009000900F5506F6F7A
:1002A0000900F550706F09000900F6CF73F0F7CF21
:1002B00074F0F8CF75F06CC0F6FF6DC0F7FF6EC03C
:1002C000F8FF00016F5302E1705307E00900F55099
:1002D000EE6E6F07F8E27007F9D773C0F6FF74C0CF
:1002E000F7FF75C0F8FF00017107000E725BBFD702
:0202F0001200FA
:0E02F200D9CFE6FFDACFE6FFE1CFD9FFE2CFAA
:10030000DAFFAC6AAB6AFD0EDBB0AC88DBA202D0D0
:10031000AC8CAB8CDBB4AC8EDBA602D0AB8801D04E
:10032000AB8ADBB8AC849E98DBBAAB86DBAC02D080
:100330009D8A01D09D9A9E9ADBAE02D09D8801D005
:100340009D98FB0EDB50AF6EFB0EFC0EDBCF03F077
:1003500003C002F0036A0250B06EAC8AAB8E949C6C
:10036000948EAC50100B04E0AC50800B01E1948CE7
:0C037000E552E5CFDAFFE7CFD9FF12001D
:04037C00D9CFE6FFF0
:10038000DACFE6FFE1CFD9FFE2CFDAFFE652F20E95
:1003900000017617ABAC03D07691ABB07681ABB4ED
:1003A0007685ABB27687AE50DF6EDF50E552E55210
:0A03B000E5CFDAFFE7CFD9FF120016
:0603BA00FF0EE350056E8A
:1003C000EF0E01D0F30EE76EE72EE4EF01F00C0E16
:1003D000046EE76AE72EEAEF01F0042EE9EF01F080
:0803E000052EE2EF01F012000E
:0803E800FF0EE350056E480E04
:1003F00001D04C0EE76EE72EFED7E76AE72EFED758
:08040000052EF7D700001200E1
:08040800000EF36E00EE00F09F
:10041000080E01D81200EA6002D0EE6AFCD7F35051
:08042000E9601200EE6AFCD74E
:0804280013EE00F023EE00F0DA
:10043000F86A019C2AEC01F007EC00F0D7EC00F020
:04044000FBD71200D4
:0C044400626169786100616C74610020E5
:0C04500020204D45535452452020200030
:04045C00FF0EE3505C
:10046000E84E1200000000D000D000D0E82EFAD7ED
:02047000120078
:020000040030CA
:0100000000FF
:010001000EF0
:010002001EDF
:010003001EDE
:010006008178
:00000001FF
