:020000040000FA
:0600000058EF16F012009B
:0600080004EF08F01200F5
:060018000CEF08F01200DD
:0610000058EF16F012008B
:06100800A5EF13F0120039
:06101800F0EF13F01200DE
:06102A000100E42C0000AF
:08103000FE00000002000000B8
:08103800D9CFE6FFE1CFD9FF9B
:10104000E652A09A6A6A686A706A020EE66EE66AFA
:10105000E66A710EE66E0F0EE66E3EEC16F00B6E53
:10106000050EE15E0B50160E6F6E9F0E6B6E7B0EC3
:10107000696EDF6ADF500B6E0C6A0C0E0B5C000EA3
:101080000C5810E2DF50040DF3CFE9FFF4CFEAFF74
:10109000000EE926040EEA22EE6AEE6AEE6AEE6AB5
:1010A000DF2AE8D76D8C6E6A6D986D9C68A607D0B4
:1010B00068960101176B1C6B1D6B1E6BF7D7010146
:1010C000010E306F316F326B336B246BDF6A030EAE
:1010D000DF5C26E2EA6ADF34FE0BEA36E96E0D0ECB
:1010E000E926010EEA22EE6AED6AEA6ADF34FE0BB7
:1010F000EA36E96E070EE926010EEA22EE6AED6A8B
:10110000DF50EA6A280FE96E010EEA22EF6ADF502B
:10111000EA6A2B0FE96E010EEA22EF6ADF2AD7D7BF
:101120000101080E0D6F040E0E6F160E706E040195
:10113000300E026F040E036F080E016F840E006FF5
:101140000101016B006BE552E552E7CFD9FF1200B8
:10115000D9CFE6FFE1CFD9FFE6520101000507E153
:101160006DBA05D0686A69806988020E006F6850A0
:10117000040B05E06950040B02E06894CBD86DA223
:1011800002D0A19A94D06850010B09E06950010B7C
:1011900006E052DFA08A0101040E006F68906850DB
:1011A000100B05E06950100B02E09FD8689868ACFE
:1011B00019D069AC0FD0010EE66EE66A000EE66E3D
:1011C000E66A730EE66EE66A3BEC15F00B6E060EF1
:1011D000E15E0B50689C01012E5101E02E072E515B
:1011E00001E164DB6850200B04E06950200B01E052
:1011F00063D86850020B13E06950020B10E0010E37
:10120000E66EE66A000EE66EE66AE6687F0EE66E59
:101210003BEC15F00B6E060EE15E0B506A6A040E95
:101220000101E76E0019E8AE02D0E73402D0E750C2
:10123000005D02E2A19A3BD069A638D0DF6A040EB5
:10124000DF5C34E268A631D06CCF25F10101255175
:10125000780BE842E842E842266F689625B508D048
:101260002651EA6A2B0FE96E010EEA22EF7007D0D1
:101270002651EA6A280FE96E010EEA22EF70265124
:1012800002E15FD810D0000EE66EE66A250EE66E2B
:10129000010EE66E720EE66EE66A3BEC15F00B6E22
:1012A000060EE15E0B50DF2ACAD700D0A19AE552A4
:1012B000E552E7CFD9FF120070A015D003C1E9FFB6
:1012C00004C1EAFFEF5080080DE10DC1E9FF0EC136
:1012D000EAFFEF50840806E103C1E9FF04C1EAFF19
:1012E0008C0EEF6E7090689A1200698468986D8217
:1012F0000101010E246F000EE66EE66AE66EE66AF4
:10130000750EE66EE66A3BEC15F00B6E060EE15EBE
:101310000B5012000101246B000EE66EE66AE66EC9
:10132000E66A740EE66EE66A3BEC15F00B6E060E8E
:10133000E15E0B506D92699468A402D06894FCD76A
:101340001200D9CFE6FFE1CFD9FFE65201012D0E01
:101350002E6FFD0E251553E17E0E2515E8407F0BFF
:10136000040DF3CF03F1F4CF04F1000E0327040EB4
:10137000042303C105F104C106F1057503C1E9FFAA
:1013800004C1EAFFEF503C0BE842E8420D0835E1AA
:10139000DF6A080EDF5C23E203C1E9FF04C1EAFF54
:1013A000020EE926000EEA22EE50EFCFEAFFE96EC8
:1013B000EF50E66EDF50EA6A300FE96E040EEA2263
:1013C000E552E750EF6E03C1E9FF04C1EAFF020EE8
:1013D000E926000EEA22EE2AEF22DF2ADAD703C13D
:1013E000E9FF04C1EAFF020EE926000EEA22300EF0
:1013F000EE6E040EED6E0DD801D03AD805D0FD0E7C
:101400002515040801E15AD8E552E552E7CFD9FF86
:1014100012000101136B2F6B326B336B276B146B54
:101420000DC1E9FF0EC1EAFFEF9E0D750DC1E9FF89
:101430000EC1EAFFEF9E0D7505C1E9FF06C1EAFF87
:10144000EF9E176B186B196B1C6B1D6B1E6B90D886
:10145000000EE66EE66AE66EE66A030EE66EE66A81
:101460003BEC15F00B6E060EE15E0B50A8EF0DF095
:10147000020E0101145D03E16BEC0EF01ED0146B43
:1014800027511AE105C1E9FF06C1EAFFEE52080E35
:10149000EF6E05C1E9FF06C1EAFF020EE926000E64
:1014A000EA22300EEE6E040EED6E05C1E9FF06C1B4
:1014B000EAFF8C0EEF6E01D0276B1200D9CFE6FF4A
:1014C000E1CFD9FFE6520DC1E9FF0EC1EAFFEF50AF
:1014D000400B01E0010EDF6E01010D75080E005D8D
:1014E00009E132C46EFF6E5003E0100E006F02D0AF
:1014F000040E006F140528E10DC1E9FF0EC1EAFFDB
:10150000020EE926000EEA22380EEE6E040EED6E93
:1015100080DB020E0101135D07E10DC1E9FF0EC181
:10152000EAFF840EEF6E0FD0DF5007E10DC1E9FF37
:101530000EC1EAFFC80EEF6E06D00DC1E9FF0EC165
:10154000EAFF880EEF6E0FD01CAF0CD01F51201198
:1015500007E005D020C1FAFF01011F51F96EFADF43
:1015600001011C9F146BE552E552E7CFD9FF120031
:1015700004013051600BE842E842E842E842E842A8
:10158000000901E059D031510C0A55E00B0A44E042
:101590000C0A36E0010A27E00B0A23E0020A21E0E8
:1015A000030A1DE0080A11E0010A0CE00F0A08E036
:1015B000030A01E040D00101178F080E006F3CD0F4
:1015C00006DA3AD00BEC0FF037D00101010E156F9F
:1015D000010E166F1781010E186F178F2DD057DA75
:1015E0002BD02BD829D034510101156F166B020E68
:1015F0001527010E16231781010E186F178F1CD0A7
:101600000101178F04013451EA6A020FE96E010EDD
:10161000EA2232C4EFFF10D0000EE66EE66AE66EF4
:10162000E66A020EE66EE66A3BEC15F00B6E060EFD
:10163000E15E0B5001D000D01200D9CFE6FFE1CF20
:10164000D9FF030EE1260401320510E130511F0BD2
:1016500000090CE10101178F030E0401315D04E163
:101660000101010E236F02D00101236B04013251ED
:1016700001E012D130511F0B020801E00DD13451AD
:101680000F0B000901E108D134510F0B020801E2F0
:1016900003D1200E0101005D01E0FED0178F04018F
:1016A00034BF1AD034510F0BE96EEA6AD890E9368C
:1016B000EA36070EE926010EEA22EECFDEFFEDCF75
:1016C000DDFF34510F0BEA6A2B0FE96E010EEA229F
:1016D000020EEFCFDBFF19D034510F0BE96EEA6A2F
:1016E000D890E936EA360D0EE926010EEA22EECF51
:1016F000DEFFEDCFDDFF34510F0BEA6A280FE96EF4
:10170000010EEA22020EEFCFDBFFD950020FE96E85
:10171000DACFEAFFEF50010B03E1000EDF9401D0B6
:10172000DF8434BF10D034510F0BE96EEA6AD890D1
:10173000E936EA36070EE926010EEA22DECFEEFF91
:10174000DDCFEDFF0FD034510F0BE96EEA6AD89070
:10175000E936EA360D0EE926010EEA22DECFEEFF6B
:10176000DDCFEDFF030E315D23E1DECFE9FFDDCFFD
:10177000EAFFEF50800B13E034BF09D034510F0B58
:10178000EA6A2B0FE96E010EEA22EF8208D034518B
:101790000F0BEA6A280FE96E010EEA22EF82840E2F
:1017A0000B6EDECFE9FFDDCFEAFF0B50EF1274D0F6
:1017B000DF74DECFE9FFDDCFEAFFEF50800B1BE0E7
:1017C000DECFE9FFDDCFEAFFEF9EDECFE9FFDDCF21
:1017D000EAFFEF8C020EE66EE66ADECFE6FFDDCFB3
:1017E000E6FF050EE66EE66A3BEC15F00B6E060EA4
:1017F000E15E0B5005D0DECFE9FFDDCFEAFFEF8CD5
:10180000DF74D950020FE96EDACFEAFFEF50020B16
:101810000EE1DECFE9FFDDCFEAFFEF50800B34E0D1
:10182000DECFE9FFDDCFEAFFEF50040B2DE104012D
:1018300034BF09D034510F0BEA6A2B0FE96E010E49
:10184000EA22EF9208D034510F0BEA6A280FE96EB2
:10185000010EEA22EF923B0E0B6EDECFE9FFDDCFE9
:10186000EAFF0B50EF16020EE66EE66ADECFE6FFE9
:10187000DDCFE6FF050EE66EE66A3BEC15F00B6E7B
:10188000060EE15E0B5008D03B0E0B6EDECFE9FF7B
:10189000DDCFEAFF0B50EF16030EE15C02E2E16AD6
:1018A000E552E16EE552E7CFD9FF12000101305158
:1018B0004DE1010E306F315149E1010E316F020EE1
:1018C000145D0DE10DC1E9FF0EC1EAFFEE52EF6AB2
:1018D0000DC1E9FF0EC1EAFFC80EEF6E37D0140547
:1018E00035E1276B03C1E9FF04C1EAFFEE52080EA0
:1018F000EF6E03C1E9FF04C1EAFF020EE926000E04
:10190000EA22300EEE6E040EED6E03C1E9FF04C153
:10191000EAFF840EEF6E010E276F05C1E9FF06C1D5
:10192000EAFFEE52080EEF6E05C1E9FF06C1EAFFBD
:10193000020EE926000EEA22300EEE6E040EED6E67
:1019400005C1E9FF06C1EAFF800EEF6E120001013A
:10195000326B336B020E145D1AE105C1E9FF06C15B
:10196000EAFFEE52080EEF6E05C1E9FF06C1EAFF7D
:10197000020EE926000EEA22380EEE6E040EED6E1F
:1019800005C1E9FF06C1EAFFC80EEF6E1FD018516E
:101990000401365D010119510401375904E236C4CE
:1019A00018F137C419F135D90DC1E9FF0EC1EAFFAD
:1019B000020EE926000EEA22380EEE6E040EED6EDF
:1019C0000DC1E9FF0EC1EAFFC80EEF6E1200800ED6
:1019D0000401305D5BE10101C00E176F040133515A
:1019E000030A34E0010A0EE0030A03E00101176B69
:1019F0004DD00101140E156F2B0E166F120E186FBD
:101A0000196B44D03251F66EF76AD890F636F73635
:101A1000D50EF6262B0EF7220900F5CF15F10A0098
:101A2000F5CF16F1020E0101F76A1525F66E165173
:101A3000F7220800F5CF18F1030EF76A1525F66EA8
:101A40001651F7220800F5CF19F120D0030E325DB0
:101A50001AE23251F66EF76AD890F636F736D70E9C
:101A6000F6262B0EF7220900F5CF15F10A00F5CF67
:101A700016F115C1F6FF16C1F7FF0800F550010178
:101A8000186F196B02D00101176B00D01200D9CF6B
:101A9000E6FFE1CFD9FF020EE1260401386B396B76
:101AA00030511F0B020A12E0030A0DE0010A01E0A7
:101AB0003BD00101178F040138810101230502E1A8
:101AC0000401388331D00101178F2ED00101178F07
:101AD000040134BF10D034510F0BE96EEA6AD8907C
:101AE000E936EA36070EE926010EEA22EECFDEFFDE
:101AF000EDCFDDFF0FD034510F0BE96EEA6AD890BD
:101B0000E936EA360D0EE926010EEA22EECFDEFFB7
:101B1000EDCFDDFFDECFE9FFDDCFEAFFEF50040BB5
:101B200002E0010E386F00D0010117AF07D0380E68
:101B3000156F040E166F1781020E186F020EE15C0E
:101B400002E2E16AE552E16EE552E7CFD9FF120009
:101B50006D98010117BF2BD01CAF09D0020E146F76
:101B6000335101E1F4DE0101316B306B1FD005C14F
:101B7000E9FF06C1EAFFEE52080EEF6E05C1E9FF6C
:101B800006C1EAFF020EE926000EEA22300EEE6ED2
:101B9000040EED6E05C1E9FF06C1EAFF8C0EEF6E83
:101BA0000DC1E9FF0EC1EAFF840EEF6E31D00401D2
:101BB00030AF0DD00101010E146F325101E1C7DECB
:101BC0000101316B306B2F5101E170DE21D0010139
:101BD000020E146F05C1E9FF06C1EAFFEE52080EBE
:101BE000EF6E05C1E9FF06C1EAFF020EE926000E0D
:101BF000EA22300EEE6E040EED6E05C1E9FF06C15D
:101C0000EAFF840EEF6E316B306B2F5101E14EDE37
:101C10001200D9CFE6FFE1CFD9FFE652080EDF6E02
:101C20000101185D000E19590BE218C1DFFF1351B5
:101C300003E1010E136F04D0130502E1020E136FCE
:101C4000DF500B6E0C6A0B50185D186F0C50195951
:101C5000196F0DC1E9FF0EC1EAFFEE52DFCFEFFFB2
:101C6000380E216F040E226F17B119D0DF5016E025
:101C700015C1F6FF16C1F7FF152B000E162308003D
:101C8000F550E66E21C1E9FF22C1EAFF212B000ECB
:101C90002223E552E750EF6EDF06E8D717D0DF507A
:101CA00015E015C1E9FF16C1EAFF152B000E16233A
:101CB000EF50E66E21C1E9FF22C1EAFF212B000EA1
:101CC0002223E552E750EF6EDF06E9D7E552E552F1
:101CD000E7CFD9FF1200D9CFE6FFE1CFD9FF020E3F
:101CE000E12603C1E9FF04C1EAFFEE52EFCFDFFFB7
:101CF000DFCF0BF00B5001011D5D000E1E5902E2FB
:101D00001DC1DFFFDF500B6E0C6A0B501D5D1D6F98
:101D10000C501E591E6F010EDB6ADF50F36E010E70
:101D2000DBCFF4FFF350F45C16E2010EDB50EA6AFD
:101D3000380FE96E040EEA22EF50E66E1AC1E9FF91
:101D40001BC1EAFF1A2B000E1B23E552E750EF6E72
:101D5000010EDB2AE2D7000ED8801D55000E1E555D
:101D600028E205C1E9FF06C1EAFFEE52080EEF6E58
:101D700005C1E9FF06C1EAFF020EE926000EEA22CC
:101D8000380EEE6E040EED6E03C1E9FF04C1EAFFEA
:101D9000EF50400B07E105C1E9FF06C1EAFFC80E9D
:101DA000EF6E06D005C1E9FF06C1EAFF880EEF6EAF
:101DB00028D005C1E9FF06C1EAFFEE52080EEF6E1A
:101DC00005C1E9FF06C1EAFF020EE926000EEA227C
:101DD000300EEE6E040EED6E05C1E9FF06C1EAFF9E
:101DE000840EEF6E1F51201107E005D020C1FAFFCD
:101DF00001011F51F96EFADF01011C9F2F5101E112
:101E000055DD020EE15C02E2E16AE552E16EE55267
:101E1000E7CFD9FF1200D9CFE6FFE1CFD9FFE652D5
:101E20000101178F020EE66EE66AE66A710EE66E33
:101E30000F0EE66E3EEC16F00B6E050EE15E0B50DB
:101E4000DF6ADF500B6E0C6A0C0E0B5C000E0C5838
:101E500010E2DF50040DF3CFE9FFF4CFEAFF000EEC
:101E6000E926040EEA22EE6AEE6AEE6AEE6ADF2ADC
:101E7000E8D76D8C010EE66EE66AE66A020EE66E43
:101E8000010EE66E3EEC16F00B6E050EE15E0B5099
:101E90006D9C0101080E0D6F040E0E6F000E036F96
:101EA000040E046F03C105F104C106F132C401F14F
:101EB000015103E1100E006F13D0010EE66EE66AC9
:101EC000010EE66E010EE66E010EE66EE66A3BEC72
:101ED00015F00B6E060EE15E0B500101200E006F37
:101EE000E552E552E7CFD9FF1200D9CFE6FFE1CFA7
:101EF000D9FF020EE126000EDE6E040EDD6EFD0E31
:101F0000DB50E8240D6EFE0EDB50040DF3500D2463
:101F1000040DF3CF0BF0F4CF0CF0D9CFE9FFDACFFB
:101F2000EAFF0B50EE260C50ED22DECFE9FFDDCFAD
:101F3000EAFFEF9EFD0EDB500FE1FE0EEA6ADB3496
:101F4000FE0BEA36E96E070EE926010EEA22DECF25
:101F5000EEFFDDCFEDFF0ED0FE0EEA6ADB34FE0BA6
:101F6000EA36E96E0D0EE926010EEA22DECFEEFF1B
:101F7000DDCFEDFFDECFE9FFDDCFEAFFEF9CDECF67
:101F8000E9FFDDCFEAFF040EE926000EEA22EF8C1E
:101F9000020EE15C02E2E16AE552E16EE552E7CF52
:101FA000D9FF1200D9CFE6FFE1CFD9FF020EE1261B
:101FB000FD0EDBA407D0E66AFE0EDBCFE6FF95DF61
:101FC000E552E552FD0EDBA208D0010EE66EFE0ED4
:101FD000DBCFE6FF8ADFE552E552FE0EDB500C6AEE
:101FE000700F0B6E0F0E0C220BC0DEFF0CC0DDFF5E
:101FF000DECFE9FFDDCFEAFFFD0EDBCFEFFF020E04
:10200000E15C02E2E16AE552E16EE552E7CFD9FF19
:102010001200D9CFE6FFE1CFD9FF020EE126FE0E76
:10202000DB5020E105C1E9FF06C1EAFFEE52080ED0
:10203000EF6E05C1E9FF06C1EAFF020EE926000EB8
:10204000EA22300EEE6E040EED6E05C1E9FF06C108
:10205000EAFF8C0EEF6E0DC1E9FF0EC1EAFF840EA0
:10206000EF6E3DD0FD0EDB50E8240D6EFE0EDB5012
:10207000040DF3500D24040DF3CF0BF0F4CF0CF04E
:10208000000E0B26040E0C220BC0DEFF0CC0DDFF81
:10209000840E0B6EDECFE9FFDDCFEAFF0B50EF12AF
:1020A000FD0EDB50E8240D6EFE0EDB50040DF350E8
:1020B0000D24010F040DF3CF0BF0F4CF0CF0000E44
:1020C0000B26040E0C220BC0DEFF0CC0DDFF840EBD
:1020D0000B6EDECFE9FFDDCFEAFF0B50EF12020EF1
:1020E000E15C02E2E16AE552E16EE552E7CFD9FF39
:1020F0001200D9CFE6FFE1CFD9FF020EE126FD0E97
:10210000DB500FE0FE0EEA6ADB34FE0BEA36E96EC6
:102110000D0EE926010EEA22EECFDEFFEDCFDDFF48
:102120000ED0FE0EEA6ADB34FE0BEA36E96E070ECD
:10213000E926010EEA22EECFDEFFEDCFDDFFD9CF9B
:10214000E9FFDACFEAFFEE50ED1003E1F36AF46A3B
:1021500049D0DECFE9FFDDCFEAFF020EE926000E0F
:10216000EA22FB0EDBCFEEFFFC0EDBCFEDFFDECF76
:10217000E9FFDDCFEAFFEE52FA0EDBCFEFFF400EB4
:102180000B6EDECFE9FFDDCFEAFF0B50EF16880EB6
:102190000B6EDECFE9FFDDCFEAFF0B50EF12FD0E35
:1021A000DB500CE0FE0EEA6ADB34FE0BEA36E96E29
:1021B0000D0EE926010EEA22EF740BD0FE0EEA6A3C
:1021C000DB34FE0BEA36E96E070EE926010EEA2241
:1021D000EF74DECF0BF0DDCF0CF00BC0F3FF0CC0C3
:1021E000F4FF00D0020EE15C02E2E16AE552E16E2A
:1021F000E552E7CFD9FF1200D9CFE6FFE1CFD9FFF3
:102200006DA84ED0FE0EEA6ADB34FE0BEA36E96EAC
:102210000D0EE926010EEA22EE50EFCFEAFFE96E3D
:10222000400EEE16EE6AEE6AEE6AFE0EEA6ADB34E5
:10223000FE0BEA36E96E0D0EE926010EEA22EE509B
:10224000EFCFEAFFE96EEE7CFE0EEA6ADB34FE0BAE
:10225000EA36E96E0D0EE926010EEA22EF74400E11
:102260000B6EFE0EEA6ADB34FE0BEA36E96E0D0EEB
:10227000E926010EEA22EE50EFCFEAFFE96E0B509D
:10228000EF16FE0EEA6ADB34FE0BEA36E96E0D0E3F
:10229000E926010EEA22EE50EFCFEAFFE96EEF7C6D
:1022A000E552E7CFD9FF12006D6A696A0101006B40
:1022B00000D012000101005113E16D6A696A160E27
:1022C0006F6E9F0E6B6E7B0E696ED08EA28AA08A97
:1022D000F28E6DB602D06D86FCD70101010E006F43
:0222E0001200EA
:0E22E200040130511F0B010801E04AD03051B9
:1022F000600BE842E842E842E842E842010801E0B7
:1023000040D0345103E0340501E03BD03151220A82
:1023100033E0030A26E0010A17E0210A0EE0010A71
:1023200001E02FD00101F60E156F000E166F080E9A
:10233000186F196B1781178F24D00101F60E156FD6
:10234000000E166F178F1DD036C41DF137C41EF155
:102350000101880E1A6F050E1B6F1F6B206B1C8FFF
:1023600010D00101880E156F050E166F070E186F3D
:10237000196BC10E176F05D032C4F1F00101178F30
:1023800000D012000501886B4B0E896F8A6B8B6B36
:102390008C6B8D6B080E8E6F0001E56B1A0EE66E6E
:1023A000010EE66ED2EC0FF0E552E5521E0EE66E1F
:1023B000020EE66ED2EC0FF0E552E552400EE66EEC
:1023C000080EE66E050EE66EE66A020EE66E79EC23
:1023D00010F00B6E050EE15E0B50F3CFEDF0F4CF75
:1023E000EEF00001EF6BF06BE66B1200D9CFE6FF69
:1023F000E1CFD9FF0001E56BED51EE1102E1000ED6
:1024000008D0EDC0E9FFEEC0EAFFEF50800B01E01D
:10241000010E000945E1FC0EDBCF0BF0EDC0E9FF3A
:10242000EEC0EAFFEE52EF50D8800B5408E2EDC048
:10243000E9FFEEC0EAFFEE52FC0EEFCFDBFFE56BEB
:10244000FC0EDB50E55D19E2E551EA6A080FE96E22
:10245000050EEA22EF50E66EE551E76EFD0EDBCF8A
:10246000E9FFFE0EDBCFEAFFE750E926000EEA2285
:10247000E552E750EF6EE52BE3D7400EE66E080E0F
:10248000E66E050EE66EE66A020EE66E79EC10F078
:102490000B6E050EE15E0B50F3CFEDF0F4CFEEF0D6
:1024A0000001E55100D0E552E7CFD9FF1200D9CFA6
:1024B000E6FFE1CFD9FFA09A0001E6510CE1FD0E45
:1024C000DBCFE7F0FE0EDBCFE8F0FC0EDBCFEBF06E
:1024D000010EEC6FE66FA08AE552E7CFD9FF12003C
:1024E000D9CFE6FFE1CFD9FF030EE126A09A000184
:1024F000E65102E0A08A2FD0DF6AFD0EDBCF06F0A6
:10250000FE0EDBCF07F0DE5206C0DEFF07C0DDFFA8
:10251000DD52DF2ADF500B6E0C6AFF0E0B1801E153
:102520000C5001E10BD0010EDBCFE9FFDB2A020EDC
:10253000DBCFEAFF01E3DB2AEF50EBE1FD0EDBCF5F
:10254000E7F0FE0EDBCFE8F0DFCFEBF00001010E8D
:10255000EC6FE66FA08A030EE15C02E2E16AE552ED
:10256000E16EE552E7CFD9FF1200D9CFE6FFE1CF08
:10257000D9FF030EE126A09A0001E65102E0A08AED
:1025800030D0DF6AFD0EDBCF06F0FE0EDBCF07F0AA
:10259000DE5206C0DEFF07C0DDFFDD52DF2ADF505E
:1025A0000B6E0C6AFF0E0B1801E10C5001E10CD010
:1025B000010EDBCFF6FFDB2A020EDBCFF7FF01E3D4
:1025C000DB2A0800F550EAE1FD0EDBCFE7F0FE0E56
:1025D000DBCFE8F0DFCFEBF00001EC6B010EE66F34
:1025E000A08A030EE15C02E2E16AE552E16EE55287
:1025F000E7CFD9FF1200D9CFE6FFE1CFD9FF020E16
:10260000E126A09A0001EF51F01102E1000E08D07E
:10261000EFC0E9FFF0C0EAFFEF50800B01E0010ED0
:10262000000902E0A08A87D0030EE65D01E1E66BB7
:10263000E65102E1A08A7FD0020EE65D16E1E66A6D
:10264000000EE66EE66A010EE66E020EE66E79ECAC
:1026500010F00B6E050EE15E0B50F3CFEFF0F4CFF0
:10266000F0F00001030EE66F65D0E60563E1400E71
:102670000B6E0C6AEB510B5C000E0C5803E2400E23
:10268000DF6E02D0EBC0DFFFDF50EB5DEB6F480E7B
:10269000E96F050EEA6F010EDFCFDBFFEC5117E1AA
:1026A000010EDB5013E0E7C0F6FFE8C0F7FF0800BB
:1026B000F550E9C0E9FFEAC0EAFFEF6EE92B000E32
:1026C000EA23E72BE823010EDB06EAD715D0010E3B
:1026D000DB5012E0E7C0E9FFE8C0EAFFEF50E9C0D5
:1026E000E9FFEAC0EAFFEF6EE92B000EEA23E72BD1
:1026F000E823010EDB06EBD7EB5108E1400EDF5C6F
:1027000003E1020EE66F02D0030EE66FDFCFE6FFB5
:10271000480EE66E050EE66E010EE66E020EE66EE1
:1027200079EC10F00B6E050EE15E0B50F3CFEFF07D
:10273000F4CFF0F0A08A020EE15C02E2E16AE55219
:0A274000E16EE552E7CFD9FF120069
:06274A00DACFE4FFE2CF4C
:10275000DAFFE9CFE4FFEACFE4FFF6CFE4FFF7CFFB
:10276000E4FFF5CFE4FFF3CFE4FFF4CFE4FFFACFCB
:10277000E4FF00EE00F00B0EE80403E3EECFE4FF0D
:10278000FBD700EE0BF0030EE80403E3EECFE4FF0B
:10279000FBD7E652A8EC08F0E55200EE0DF0030E70
:1027A000E80403E3E5CFEDFFFBD700EE0AF00B0EE4
:1027B000E80403E3E5CFEDFFFBD7E5CFFAFFE5CF74
:1027C000F4FFE5CFF3FFE5CFF5FFE5CFF7FFE5CF6A
:1027D000F6FFE5CFEAFFE5CFE9FFE5CFDAFF11002D
:1027E000D8CFE4FFE0CFE4FFE46EDACFE4FFE2CF3E
:1027F000DAFFE652E552E5CFDAFFE550E5CFE0FF3C
:10280000E5CFD8FF100008D80101005102E15AECD1
:1028100011F013D8F9D712000F0EC11202D81CEF15
:1028200008F00001E26BE16B010EE06F8A6A936AC7
:102830009588958A95908C801200D9CFE6FFE1CFDC
:10284000D9FF020EE1268DD8200E0101E76E001996
:10285000E8AE02D0E73402D0E750005D03E36D50EC
:10286000020B01E074D00001E15111E0E0510EE1F2
:102870000001E6510BE1CC0EE66E2C0EE66EB5ECD7
:1028800012F0E552E5520001010EE06F01D0E06B5D
:102890000001E6515AE1400EE66EA00EE66E000E13
:1028A000E66EF6EC11F0E552E552E552DF6EDF50D0
:1028B0004CE0010EDB6ADF50F36E010EDBCFF4FF5C
:1028C000F350F45C37E2010EDB50EA6AA00FE96EC8
:1028D000000EEA22EF500A0A16E0070A14E0010E81
:1028E000DB50EA6AA00FE96E000EEA22EF28E66EDE
:1028F000010EDB50EA6A600FE96E000EEA22E55233
:10290000E750EF6E14D0010EDB50EA6AA00FE96EBB
:10291000000EEA22EF50E66E010EDB50EA6A600F0D
:10292000E96E000EEA22E552E750EF6E00D0010E8C
:10293000DB2AC1D7DFCFE6FF600EE66E000EE66E43
:1029400057EC12F0E552E552E552FBEC12F0020EA4
:10295000E15C02E2E16AE552E16EE552E7CFD9FFC0
:1029600012000001FE51FF1104E1100EFE6F270E50
:10297000FF6FFE07000EFF5B6DA20AD0FE51FF1134
:1029800006E18A708AA002D08A8201D08A922ED073
:102990000101005103E18A908A9228D0000503E1E9
:1029A0008A808A8223D0020E005D03E18A808A92A7
:1029B0001DD0040E005D03E18A908A8217D0100EAC
:1029C000005D07E10001FE51FF1102E18A708A9269
:1029D0000DD0200E005D0AE10001FE51FF1106E15D
:1029E0008A708AA002D08A9201D08A8212001200D4
:1029F00012008350100B100A01E0010E0001E15D8E
:102A00000CE1E25102E0E20707D08350100B01E035
:102A1000010EE16F640EE26F03D0E25101E0E207C4
:102A20001200120071EF11F01200C2EF11F001015B
:102A3000230520E1010124051DE1A09AD9DF6D9253
:102A40000101246B0001100EE36F0E0EE46FE3072B
:102A5000000EE45BE351E411FAE16D84080EE36FCC
:102A6000070EE46FE307000EE45BE351E411FAE1C3
:102A70006D94A08A1200D9CFE6FFE1CFD9FFFD0EF9
:102A8000DBCF06F0FE0EDBCF07F0050E061801E1E6
:102A9000075039E0E868061802E17F0E071831E0B8
:102AA000030E061801E107502AE0020E061801E1A4
:102AB000075023E0010E061801E107501CE0740ED8
:102AC000061801E1075015E0750E061801E10750E0
:102AD0000EE0730E061801E1075007E0720E0618AB
:102AE00001E1075001E010D00FD083DF0DD07FDF70
:102AF0000BD07EDF09D099DF07D096DF05D092DFBB
:102B000003D08FDF01D000D0010E00D0E552E7CF17
:042B1000D9FF1200D7
:0C2B14001201000202000008D8040A00B0
:102B200000010102000109024300020100C0320954
:102B30000400000102020100052400100104240227
:102B40000205240600010524010001070581030890
:102B5000000209040100020A000000070502024009
:102B60000000070582024000000403090434034DFD
:102B7000006900630072006F006300680069007004
:102B800000200054006500630068006E006F006C58
:102B9000006F0067007900200049006E0063002E7E
:102BA0000034034300440043002000520053002D32
:102BB00000320033003200200045006D0075006CCB
:102BC000006100740069006F006E00200044006521
:0D2BD000006D006F00262B692B6D2BA12BD3
:022BDE002A0EBD
:102BE000F66E100EF76E000EF86E01010900F5503A
:102BF000396F0900F5503A6F03E1396701D03DD0D4
:102C00000900F550346F0900F550356F0900F55093
:102C1000366F09000900F550E96E0900F550EA6EBB
:102C2000090009000900F550376F0900F550386FA9
:102C300009000900F6CF3BF1F7CF3CF1F8CF3DF1A9
:102C400034C1F6FF35C1F7FF36C1F8FF0101375334
:102C500002E1385307E00900F550EE6E3707F8E25D
:102C60003807F9D73BC1F6FF3CC1F7FF3DC1F8FF7C
:0C2C700001013907000E3A5BBFD71200CB
:042C7C00FE0EE3CF96
:102C8000E9FFFF0EE3CFEAFFE9CFF3FFEACFF4FF5E
:102C9000FB0EE35003E1FC0EE35009E0FB0EE306FC
:102CA00002E2FC0EE306FD0EE350EE6EF1D71200D9
:102CB00013EE00F023EE00F0F86A0A9CEFEC15F03A
:0C2CC00071EC16F003EC14F0FBD71200CE
:042CCC004275747465
:102CD0006F6E2050726573736564202D2D200D0A70
:012CE00000F3
:022CE2001200DE
:022CE4000000EE
:020000040030CA
:0100000020DF
:010001000EF0
:010002003FBE
:010003001EDE
:010005008179
:010006008178
:010008000FE8
:01000900C036
:01000A000FE6
:01000B00E014
:01000C000FE4
:01000D0040B2
:00000001FF
