:020000040000FA
:020000000529D0
:040002000034003492
:08000800A000030EA100D93095
:100010008100A20A64302202031D4528A201A50A1C
:100020000A302502031D4528A501A920A60A06308D
:100030002602031D4528A601AF20A70A0A30270281
:10004000031D4528A701B520A80A06302802031D74
:100050004528A801BB2002302A0203193B28A90A1F
:100060000A302902031D4528A901C120AA0AC72078
:100070004528A90A452803302902031D3928AA0169
:10008000A901C120C72045284528210E8300A00EC4
:10009000200E0B11090083160313FF3085000F306B
:1000A0008600F930870000308800890087308100A1
:1000B00007309F009C00A0308B008312D930810054
:1000C0000800FF30A300A303031D63280800FF30CE
:1000D000A4006120A403031D692808006430AB005C
:1000E000FF30AC00AC03031D7228AB03031D702866
:1000F000080038309E2061206120612038309E2029
:100100000C309E2006309E2001309E206120080089
:10011000091400008800000000008914000000009D
:10012000891061200800820730343134323433348E
:100130003434353436343734383439340910000027
:100140008800000000008914000000008910612070
:1001500008008C309E2025089320882008008B30D2
:100160009E20260893208820080089309E2027089A
:1001700093208820080088309E202808932088201B
:10018000080086309E2029089320882008008530AA
:100190009E202A089320882008006E200618080058
:1001A00003302902031CD628AA0A0800AA0A033031
:1001B0002A02031D0800AA0108006E208618080004
:1001C00002302A02031DEA2803302902031DEA280F
:1001D000A9010800A90A0A302902031D0800A90183
:1001E00008006E2006190800A80A06302802031D20
:1001F0000800A80108006E2086190800A70A0A3026
:100200002702031D0800A70108004B20A201A50139
:10021000A601A701A801A901AA01792080309E208A
:10022000483088204F308820523088204130882044
:100230003A30882087309E203A3088208A309E20AD
:100240003A3088200930A7000530A8000530A50005
:100250000530A6000330A9000030AA00C720C12045
:10026000BB20B520AF20A9208D309E2020308820D3
:1002700087309E203A30882006183F29CD208618E6
:100280004229DD2006194529F12086192E29FB2057
:040290002E292E29BC
:02400E00713F00
:00000001FF
